:020000040000fa
:080000000002040000000000f2
:020000040000fa
:100400004ff820000e7f22000e018800000000003f
:100410000c00070080772900010020001f00070062
:10042000000020000000e000020032000000020096
:1004300000000000ce940200000000000040da003e
:100440000000fe004440a900403720000000e0000a
:100450000300320000002000a00188004440a800f2
:1004600000000600f03fb1000180b1000600350039
:10047000ee03090000000000403fb1000180b10020
:10048000fbff3d001000b000203fb000020035002f
:1004900000800900000000000000060091018800b3
:1004a000800078000000eb0015003700e28040007b
:1004b00032a0b4009101ba00e280400032a0b40042
:1004c0009102ba00e280400032a0b4000002eb00ca
:1004d000472bde00f507b200602ce10004003a0073
:1004e0000059eb008301e900fdff3e0004003700e6
:1004f0006128e100010032000082eb0004000700e7
:100500001101ba000200e000e8ff3a000000060016
:100510003159ba008301e9000c0032002159ba00b8
:100520008301e900080032000400e00003003a0003
:10053000e280400032a0b400f5ff370011d9ba00c4
:100540008301e900faff3a008100e800e180400001
:1005500032a0b400000006000040da000000fe00f7
:10056000800078001104b100030035009101b10052
:1005700001003c000050a000000006008000780050
:100580001106b100030035009101b10001003c00eb
:100590000050a100000006000a00fa008001780067
:1005a000e20f500028003e00107c8000e10f500058
:1005b00008003200802320000000e0000500320027
:1005c00004232000252320004623200080017800fa
:1005d00004003700042220002522200046222000ab
:1005e00083222000144090000004e0000400350045
:1005f0008009eb00144090000074a00010429800a5
:10060000154090000028a30003003a001540900018
:100610000024a000904298008001eb000700370002
:10062000154090000008a300fdff320063c0780071
:100630000000fb00000b78008301e800828f51006e
:10064000f7ff3a000800370030002000b0bf9f00dd
:10065000c3bf9f00d1bf9f00e2bf9f006a805700c9
:1006600000c0da006fb99700020078000080fa003d
:1006700000000600020007000400be0000000600a3
:100680006022b800060220000000d0008180d20065
:100690000482d2008582d2000000a0000202520033
:1006a00083825a00030031000202420083824a0022
:1006b0000000a1000603e900f3ff3a000000060075
:1006c000881f7800000478005001be004000be0082
:1006d00004004000858048000601490087814900e8
:1006e000009cbe000294be000400e1000588e10009
:1006f0000690e1000798e100020031006800440024
:100700001008e8004f04780000000600f487470056
:10071000889fbe008a9fbe008c9fbe008e1f7800ff
:100720000205be000004be00d4b79f00e5b79f00dd
:10073000f6b79f0087bf9f000000eb00c0b79f0087
:10074000b0b79f00a0b79f0090b79f0080b79f00f1
:100750000d042000bfb097004fb09700000140008b
:100760000000e0000f003d004f08de0000007100b7
:10077000c0b79f009e00070001003d00120020004e
:10078000a100070001003d0012002000a6000700a4
:10079000b1000700b60007000f004000c8ff0700c7
:1007a000220037004f08de0000067100ccb79f0022
:1007b0008f00070001003d0012002000920007009a
:1007c00001003d001200200097000700a200070072
:1007d0000fb297009fb297002fb39700bfb3970057
:1007e000a90007000000520081805a0002015b004e
:1007f00083815b0080b79f0091b79f00a2b79f00e5
:10080000b3b79f000007eb009f0007000020e10046
:1008100001a8e10002b0e10003b8e10001003100ed
:100820001e0020000e005600c0b79f004fb2970078
:100830000400e00007003500100020000100200047
:100840006011b80008047000898470000a05710006
:100850008b8571008d06e900beff3a000400e000c0
:1008600003003d00820007000f00400094ff0700d6
:100870004fa897000000e00004003a000fb4970072
:100880009fb497002fb59700bfb59700940007005d
:100890004f0778004f06be004f05be004f04be0054
:1008a0004f01b10000000600881f780018002000ea
:1008b000881f780095ff07008f87e9004f047800b4
:1008c00000000600801feb0090ff07008f87e90003
:1008d00000000600889fbe008a9fbe008c1f780023
:1008e0006e00070007003d0073000700e00f5b008b
:1008f000e08f5b0007003d00320007000006eb00c0
:10090000040037003400070002003d002a00070001
:100910001c00200072000700e3ff07000203be0076
:100920000002be000c00e0000100320022000700bf
:100930000400be000601be004f0678004f05be0051
:100940004f04be0000000600889fbe008a9fbe00c4
:100950008c1f78005100070005003d00560007007d
:10096000e00f5b00e08f5b0006003d0004003700f5
:100970001900070003003d006000b8006011b800d6
:100980001000070056000700ceff07000203be005c
:100990000002be000c00e00001003200060007006b
:1009a0000400be000601be004f0678004f05be00e1
:1009b0004f04be00000006006000b8006011b800df
:1009c00000003700040250008582580006035900d9
:1009d00087835900000006000006eb00e00f52007c
:1009e000e08f5a00e00f5b00e08f5b000000060024
:1009f0000180400090b79f000001eb008fb097008e
:100a00000100e000000006000200700090b79f00a7
:100a10000180400080b79f000001eb00ffa8970015
:100a20000100e000000006000200700080b79f0097
:100a3000018040006faa9700cf20de000100700007
:100a4000f0af9f0004024200250007004f18de00af
:100a50000002720000000600e4af9f00080444009a
:100a600089844c000a054d008b854d00000006006e
:100a70003fb29700cfb297005fb39700efb39700f4
:100a800000fe2f00000006003fb09700cfb0970097
:100a90005fb19700efb19700000006000205be00ad
:100aa0000004be00e00f5000e08f5800e00f590036
:100ab000e08f5900000006006000b8006011b80027
:100ac00008045000898458000a0559008b85590094
:100ad0001c002000e00f5200e08f5a0000000600ca
:100ae0000800be000a01be00000006000c00fa006b
:100af000889fbe0000047800cfb09700f0ff270069
:100b0000d0bf9f008004eb0099bf9f0088bf9f006b
:100b1000a8bf9f00200c2000b0bf9f007881570025
:100b200070805700340007000fb89700094878001c
:100b30000fb8970008045000080078004f04be006a
:100b40000080fa00000006008001780000017800b3
:100b500031407800005978000004e000fcff3a00c2
:100b600003007800000006008001eb00020037005f
:100b7000817178008301e800828f5100fcff3a0008
:100b8000000006000003780080027800020278006e
:100b90008001eb00080037000402e90063c0780020
:100ba000805a78008301e8000004e00002003a0067
:100bb0008000eb0006003700828f5100f6ff3a00fc
:100bc000fbff37000040eb0080f07a008100e80076
:100bd000848f5000fbff3a000600780000000600fa
:100be000800078003004e000feff3a000100500071
:100bf0000000e90000000600fe874700889fbe0055
:100c00008a9fbe008c9fbe008e1f7800f0b79f00a9
:100c10000107780082bf9f000000eb00a0b79f0093
:100c20009f0237008006eb0050c2b30080cf500017
:100c3000090032000100fb00ffb09700a30207008b
:100c4000e10f400096023200afb097008100e8004b
:100c5000a1b79f00920237009e407800d0c2b30037
:100c600080cf50000c00320007003c006d40500067
:100c700080cf50000a0032006b40400080cf50000f
:100c80000e003a000800370000c3b30080cf5000c8
:100c90000a003a00060037000d30a00005003700ba
:100ca0000d00a000030037000d10a0000100370068
:100cb0000d20a0000e07e800e7ff37000d18a30085
:100cc000010032000d00a1000d38a3000100320028
:100cd0000d20a1000100fb0002fd2f0002004000da
:100ce000e90f50000e003e000002eb00c4b79f0069
:100cf00082017800cfb297006a28b9001e01fb007c
:100d00000001410003014100c2b79f005e00fb00eb
:100d100003004000e90f50000b003e00f5ff3700d4
:100d20000006eb00ccb79f00a0c2b30080cf5000fc
:100d300005003a000fb89700c000780080bf9f0000
:100d4000c1b79f000e07e8000001eb00b2b79f009b
:100d5000e0c2b3009e4f100018003a000de0a00062
:100d60008e00e80064405000914f100002003200f5
:100d7000010778000c0037000fba9700c402780012
:100d800084bf9f00b5b79f000e87e8000b003700b7
:100d90003fb697006a60b9000000410003004000c0
:100da000b0b79f000e07e8001e01fb0003fd2f00f7
:100db00003004100e90f5000f5ff3600be40780007
:100dc000e1d79f00c0c6b30080cf500022003200a0
:100dd0000f003c006940500080cf50007700320087
:100de00004003c000104e000310232006b4050007e
:100df0000f00370040c6b30080cf50009300320090
:100e00006540400080cf50008b003a008f003700d3
:100e100030c7b30080cf50001a00320007003c00fa
:100e20006440500080cf5000110032000040e800c4
:100e300080cf500080003a000f00370050c7b30049
:100e400080cf5000800032006340400080cf5000cf
:100e500079003a0009003700000028000d48a3007f
:100e600001003a000001200080867600d3ff3700a1
:100e70000d60a000750037000d50a0000d70a0009f
:100e8000720037008fb897004100780081bf9f0043
:100e9000000478000000e00001003a00c8f22000e1
:100ea0008004eb00010037008104e800890078002d
:100eb000088044001004e000fbff3a003fb19700b7
:100ec0000200e00003003200890f510001003100f0
:100ed000820478000002eb00e4af9f00cfb29700dd
:100ee000898f52000200360009805200e0af9f0057
:100ef0004368de00e10660001b003a000d06780042
:100f000009003700ffb0970000022000ef01070042
:100f1000e10f4000030032002fb097000000e8000e
:100f2000a0b79f000c06e800efa89700810f5600bd
:100f3000f4ff3a000081eb00e2af9f000a003700a7
:100f4000880078003100fb0001047800ffb09700b2
:100f5000de010700e10f4000030032002fb29700ce
:100f60000402e800a4b79f000900e90080047800ab
:100f7000e10f4000f2ff3a000006eb000d00e00038
:100f80000a003a00c6013700ffb0970000022000b7
:100f9000ce010700e10f400003003200afb297001e
:100fa0008502e800a5b79f000c06e8006fa897002f
:100fb000800f5600f4ff3a00b90137008fb8970050
:100fc0004100780081bf9f00cf80de0001017800e2
:100fd000820178000205be000004be000203be00cc
:100fe0000002be004822de00482edd00040276002a
:100ff000e4d79f000d48a3000a0032000404e0007b
:1010000008003200e14f42000600320071fd2f005f
:10101000018047000448780018409800290020000b
:1010200002003700f0d79f001900200072fd2f004a
:1010300002844700a1ff370064fd2f0004844700ad
:10104000190020009dff37000d0cb3000d00780043
:10105000000cb20028003a000d00e00005003d0041
:101060008fba97004505be004504be0085bf9f00ae
:10107000140037000d48a3000b0032000fbe97008c
:101080004c00be008cbf9f004f89de00cf91de0078
:101090000002be0002037800820378000605be004d
:1010a0000404be00070037008fb8970041007800a5
:1010b00081bf9f0000047800cfc4de0009057800de
:1010c0008a057800e00f5400e08f5c00e00f5d00bf
:1010d000e08f5d001f003d003d00b3006000b800e0
:1010e0006011b80008045000898458000a055900ae
:1010f0008b855900170037000d00e00005003d000a
:101100000fb997004205be004204be0082bf9f0097
:10111000100037000d48a300070032000fba9700f7
:101120004400be0084bf9f006011b8000205be00ed
:101130000004be00070037008fba97004500780012
:1011400085bf9f0000047800090020000a002000ed
:101150000b0020003fb697000c00e00007003a00ab
:10116000e00f5400e08f5c00e00f5d00e08f5d0059
:1011700002003a0010002000b0b79f008d007800f8
:10118000010cb200e1b79f0000042000808f5000e6
:101190003000320003003c000100e0000800320093
:1011a00040003700000820006fb19700800f510009
:1011b00014003200000c2000800f510039003a006a
:1011c00014c0b300c5e820000b0037000400fb008a
:1011d0004300dd00050040005001be004000be009d
:1011e0000040e10001c8e10002d0e10003d8e100c5
:1011f0002b0039000442e800f44f5200f3ff3a009c
:101200002700370000012000010020006011b80015
:1012100014c0b3000040e10001c8e10002d0e100c9
:1012200003d8e1001e003900450020000000d00076
:101230008180d2000281d2008381d2008502e90040
:10124000faff3a000442e800f04f5200f1ff3a0082
:101250001300370080002000010020006011b8005a
:1012600014c0b3000040e10001c8e10002d0e10079
:1012700003d8e1000a0039003c0020000000d00043
:101280008180d2000281d2008381d2000c06e90065
:10129000faff3a000442e800f54f5200f1ff3a002d
:1012a000e4d79f00efd097000100fb003fb197000b
:1012b000820f500002003d00e2d79f00040037007b
:1012c0003fb29700800f520001003d00b0b79f0071
:1012d000cfb297000500e000040032006380660092
:1012e000020032008502e900c5b79f000de8a300a7
:1012f0000b0032004fb697003fb09700800f5600aa
:1013000003003c008000eb00c1b79f0004003700e1
:101310004fb197003fb2970004015100c2b79f0040
:10132000efd297000500fb000006eb00dcaf9f004a
:10133000cfb09700808f5000020034000080500032
:10134000d0af9f000d28a30037003200e180660077
:101350000d18a3000c003200d00220000100e000b4
:1013600001003a000080e900ffb09700d7000700b5
:10137000e10f40000e0032002fb197000201e8009b
:10138000a2b79f000a0037000100e0000800320009
:10139000ffb0970000022000cc000700e10f4000e2
:1013a000030032002fb297000402e800a4b79f00a8
:1013b000dfaa97000500e0000f0032000006eb00f6
:1013c000ffb0970000032000c0000700e10f4000bd
:1013d000030032002fb097000000e800a0b79f0084
:1013e0000c06e800dfa89700810f5600f4ff3a00d2
:1013f0000001eb00d2af9f003fb29700c320dd0099
:1014000040e820008080400091b79f004220dd002e
:101410006400500080b79f006320b900f0af9f00c8
:101420006306500084003700dfaa97000500e00043
:1014300011003200688066000f003a000006780054
:10144000ffb0970000022000a0000700e10f40005d
:10145000030032002fb097000000e800a0b79f0003
:101460000c06e800dfa89700810f5600f4ff3a0051
:101470000001eb00d2af9f00e18066000d18a300d1
:101480000c003200d00220000100e00001003a0010
:101490000080e900ffb097008c000700e10f4000da
:1014a000d5ff32002fb297000402e800a4b79f00d6
:1014b000d1ff37000100e000cfff3200ffb09700fe
:1014c0000002200081000700e10f4000caff320047
:1014d000afb297008502e800a5b79f00c6ff3700ae
:1014e00000042000efb09700808f500031003200e0
:1014f00003003c000100e000080032003e0037001d
:10150000000820006fb19700800f510011003200d9
:10151000000c2000800f510037003a001fb09700e8
:101520003002be002003be000800be000a01be005b
:10153000ddfc0700a4002000050020006033b80097
:10154000e0fc070004c3b30004424000e4d79f005e
:101550002900370035f32000d5b79f000d58a300b0
:1015600002003a0040f42000d0b79f001400200091
:10157000050020006033b8008fb097008100e900bb
:10158000050033000402d0008582d2000683d20019
:101590008783d200f9ff37000800be000a01be00b1
:1015a000c1fc07006f0060005fb1970062407800e7
:1015b0001000370014002000050020006033b80040
:1015c0000c0078000000e900050033000402d000a0
:1015d0008582d2000683d2008783d200f9ff3700cc
:1015e0000800be000a01be00affc070067406000b3
:1015f0000043b000e0d79f00efd097000100fb0050
:10160000ffb0970031000700e10f400003003200f7
:101610002fb197000201e800a2b79f001fb2970008
:101620006802520094b79f008fb29700e482520084
:1016300085b79f0063065600d0ff2f003fb197008b
:101640000090b9007faa970000004200630050009c
:10165000800f5600a2ff3a000d38a30010003200a0
:10166000dfaa97000500e0000d0034000006eb0043
:10167000ffb097000002200014000700e10f4000b7
:10168000030032002fb097000000e800a0b79f00d1
:101690000c06e800dfa89700810f5600f4ff3a001f
:1016a000be407800e1d79f000104e0005dfd3a00f4
:1016b0002fb097004f0778004f06be004f05be00c1
:1016c0004f04be00ef01b10000000600889fbe007d
:1016d0000001780001047800b10090000118a30017
:1016e0003d0032000198a30003003a00180090006a
:1016f0000000e00038003a000190a000310498009a
:1017000082047800f90fb200180090000000e00099
:1017100002003a0028009000000c7800ea8f540084
:1017200006003a00380090000078a30003003a0059
:1017300088007800d0002000e4ff070098009000a7
:1017400058009000808f50000b0032000100e8002c
:10175000100498001800780009587800000c7800f0
:1017600011c0b30000f8200001487800ea8f54004f
:101770000600320019003700880078000940780020
:10178000190007008004780014003700380090002a
:101790000088a3001100320018019000a8009000fa
:1017a000480090007cfb070098009000810f5000db
:1017b00004003200380090000003b30030049800a9
:1017c0008084eb000000eb001004980028009000db
:1017d000000c7800010037008084eb0009007800dd
:1017e0004f04be00000006000200fa00889fbe0001
:1017f000a0ff9f0001047800b100900081047800f0
:101800000904b200020032000000fb00360037007d
:101810000118a30005003a000103b3003104980049
:10182000190498000080eb002f003700580090004a
:101830000000e00006003a0048009000120020007e
:10184000e680570054fb0700190498002400370075
:10185000280090000000e00008003a00c0f72000d7
:1018600020049800000c780020002000500498000c
:10187000100498000130a000310498001801900075
:10188000a80090004800900043fb0700280090004b
:10189000000c78000080eb0010049800180078001d
:1018a000aff8970001587800000c78002ff89700e7
:1018b000ea4f50000a003a00380090000088a30068
:1018c0000700320018019000a80090004800900026
:1018d00031fb070019049800a8009000010c780063
:1018e000aff897000100fb004f04be000080fa0033
:0418f00000000600ee
:020000040000fa
:020000040001f9
:0457f800dff90000d5
:020000040000fa
:020000040001f9
:0457fc007f3f0000eb
:020000040000fa
:10000800ac020000ac020000ac020000ac02000030
:10001800ac020000ac020000ac020000ac02000020
:10002800ac020000ac020000ac020000ac02000010
:10003800ac020000ac020000ac020000ac02000000
:10004800ac020000ac020000ac020000ac020000f0
:10005800ac020000ac020000ac020000ac020000e0
:10006800ac020000ac020000ac020000ac020000d0
:10007800e0930000ac020000ac020000ac020000fb
:10008800ac020000ac020000ac0200004492000088
:10009800ac020000ac020000ac020000ac020000a0
:1000a800ac020000ac020000ac020000ac02000090
:1000b800ac020000ac020000ac020000ac02000080
:1000c800ac020000ac020000ac020000ac02000070
:1000d800ac020000ac020000ac020000ac02000060
:1000e800ac020000ac020000ac020000ac02000050
:1000f800ac020000ac020000ac020000ac02000040
:10010800ac020000ac020000ac020000ac0200002f
:10011800ac020000ac020000ac020000ac0200001f
:10012800ac020000ac020000ac020000ac0200000f
:10013800ac020000ac020000ac020000ac020000ff
:10014800ac020000ac020000ac020000ac020000ef
:10015800ac020000ac020000ac020000ac020000df
:10016800ac020000ac020000ac020000ac020000cf
:10017800ac020000ac020000ac020000ac020000bf
:10018800ac020000ac020000ac020000ac020000af
:10019800ac020000ac020000ac020000ac0200009f
:1001a800ac020000ac020000ac020000ac0200008f
:1001b800ac020000ac020000ac020000ac0200007f
:1001c800ac020000ac020000ac020000ac0200006f
:1001d800ac020000ac020000ac020000ac0200005f
:1001e800ac020000ac020000ac020000ac0200004f
:0801f800ac020000ac020000a3
:020000040000fa
:10020800ac020000ac020000ac020000ac0200002e
:10021800ac020000ac020000ac020000ac0200001e
:10022800ac020000ac020000ac020000ac0200000e
:10023800ac020000ac020000ac020000ac020000fe
:10024800ac020000ac020000ac020000ac020000ee
:10025800ac020000ac020000ac020000ac020000de
:10026800ac020000ac020000ac020000ac020000ce
:10027800e0930000ac020000ac020000ac020000f9
:10028800ac020000ac020000ac0200004492000086
:10029800ac020000ac020000ac020000ac0200009e
:1002a800ac020000ac020000ac020000ac0200008e
:1002b800ac020000ac020000ac020000ac0200007e
:1002c800ac020000ac020000ac020000ac0200006e
:1002d800ac020000ac020000ac020000ac0200005e
:1002e800ac020000ac020000ac020000ac0200004e
:1002f800ac020000ac020000ac020000ac0200003e
:10030800ac020000ac020000ac020000ac0200002d
:10031800ac020000ac020000ac020000ac0200001d
:10032800ac020000ac020000ac020000ac0200000d
:10033800ac020000ac020000ac020000ac020000fd
:10034800ac020000ac020000ac020000ac020000ed
:10035800ac020000ac020000ac020000ac020000dd
:10036800ac020000ac020000ac020000ac020000cd
:10037800ac020000ac020000ac020000ac020000bd
:10038800ac020000ac020000ac020000ac020000ad
:10039800ac020000ac020000ac020000ac0200009d
:1003a800ac020000ac020000ac020000ac0200008d
:1003b800ac020000ac020000ac020000ac0200007d
:1003c800ac020000ac020000ac020000ac0200006d
:1003d800ac020000ac020000ac020000ac0200005d
:1003e800ac020000ac020000ac020000ac0200004d
:0803f800ac020000ac020000a1
:020000040000fa
:1018f400000000000000000000000000005f000085
:1019040000000000000700000007000000140000b1
:101914007f1400007f140000242a00007f2a0000a6
:10192400122300001308000064620000364900001e
:1019340055220000500000000503000000000000d4
:10194400001c0000224100000000000041220000b1
:101954001c000000140800003e08000014080000e9
:10196400083e00000808000000500000300000009d
:1019740000080000080800000808000000600000db
:1019840060000000002000001008000004020000b5
:101994003e510000494500003e000000427f000027
:1019a400400000004261000051490000462100004f
:1019b400414500004b31000018140000127f000064
:1019c4001027000045450000453900003c4a00004e
:1019d40049490000300100007109000005030000be
:1019e4003649000049490000360600004949000014
:1019f400291e000000360000360000000000000030
:101a040056360000000000000814000022410000c7
:101a1400001400001414000014140000004100001d
:101a24002214000008020000015100000906000011
:101a340032490000794100003e7e0000111100008f
:101a4400117e00007f49000049490000363e000035
:101a540041410000412200007f410000412200007a
:101a64001c7f000049490000494100007f09000033
:101a740009090000013e000041490000497a0000c4
:101a84007f080000080800007f000000417f00007c
:101a94004100000020400000413f0000017f0000a1
:101aa40008140000224100007f4000004040000074
:101ab400407f0000020c0000027f00007f04000051
:101ac400081000007f3e000041410000413e00003c
:101ad4007f09000009090000063e00004151000092
:101ae400215e00007f09000019290000464600001d
:101af4004949000049310000010100007f01000054
:101b0400013f000040400000403f00001f20000053
:101b1400402000001f3f000040380000403f00000c
:101b2400631400000814000063070000087000003c
:101b3400080700006151000049450000430000000f
:101b44007f41000041000000020400000810000072
:101b540020000000414100007f000000040200005a
:101b6400010200000440000040400000404000002a
:101b74000001000002040000002000005454000092
:101b8400547800007f4800004444000038380000c6
:101b9400444400004420000038440000444800004d
:101ba4007f3800005454000054180000087e0000e0
:101bb40009010000020c000052520000523e0000d5
:101bc4007f0800000404000078000000447d000049
:101bd4004000000020400000443d0000007f000061
:101be4001028000044000000004100007f40000075
:101bf400007c000004180000047800007c08000049
:101c04000404000078380000444400004438000014
:101c14007c140000141400000808000014140000d0
:101c2400187c00007c080000040400000848000040
:101c34005454000054200000043f000044400000bd
:101c4400203c000040400000207c00001c200000dc
:101c5400402000001c3c000040300000403c0000dc
:101c64004428000010280000440c000050500000dc
:101c7400503c000044640000544c00004400000048
:101c84000836000041000000000000007f00000052
:101c940000000000413600000800000010080000a9
:101ca4000810000008780000464100004678000053
:101cb4005265000063760000202000003a200000f6
:101cc400256c00007520000062000000546f0000c5
:101cd400746100006c2000003a20000025640000bc
:101ce400206400006f630000004c0000617300007a
:101cf40074200000203a000020250000730000003a
:101d040050720000696e0000746900006e67000084
:101d14002e2e00002e000000524500004144000019
:101d2400592e000000460000726500006520000086
:101d3400203a0000202500006c640000204d0000c3
:101d440042000000534400002043000041520000c0
:101d54004420000045520000524f00005221000070
:101d64000053000044200000492f00004f200000d1
:101d740045520000524f0000522100000043000071
:101d840068650000636b00002026000020520000fc
:101d94006573000074610000727400000053000059
:101da40059530000544500004d20000048410000f4
:101db4004c54000045440000210000005052000033
:101dc400494e0000544900004e4700002e2e0000ea
:101dd4002e000000505200004e2500006c750000db
:101de4002e500000524e0000007700000056000004
:101df4004952000054550000414c0000204c0000a2
:101e04005054000000500000524900004e5400009d
:101e14004552000000440000657400006563000042
:101e2400746900006e6700002063000061720000a6
:101e3400642e00002e2e0000005200006561000098
:101e4400646900006e670000206300006172000096
:101e5400642e00002e2e0000005600006f6c00005f
:101e6400756d0000653a0000202500007300000035
:101e7400466f0000726d0000617400003a2000009b
:101e84002573000000530000697a000065200000fb
:101e9400203a0000202500006c640000204d000062
:101ea4004200000000950000000000000000000057
:101eb40001f9000000000000000000000887000095
:101ec400040000000000000009af00000000000052
:101ed400010000000a1b00000000000001000000d7
:101ee4000cc3000001000000000000000daf000062
:101ef400020000000000000010ff000000000000cd
:101f04000000000011ff00000000000001000000bc
:101f140012ff0000000000000100000018ff000094
:101f2400000000000100000019ff00000000000094
:101f34000100000020ff000000000000000000007d
:101f440021ff0000000000000000000026df000068
:101f540001000000000000003773000000000000d2
:101f6400000000003a25000004000000000000000a
:101f74003b250000000000000000000029ff0000d5
:101f8400040000000000000017ff00000000000033
:101f940000000000464100005431000032000000ff
:101fa4004641000054310000360000004641000064
:101fb4005433000032000000556e00006b6e0000c8
:101fc4006f7700006e0000002a2e00002a00000037
:081fd4002e2e000000000000a9
:020000040000fa
:101fdc000400fa000000eb00000f78000600370048
:101fec009e00780020cf20008080400010c0b300fd
:101ffc00804878001e0fe800200020009e0f100083
:10200c00f7ff34000040eb0086eeb7000040eb0019
:10201c007ceeb7000080eb008080eb00c073880082
:10202c00d17388000080eb008080eb000074880086
:10203c0011748800cc350700e0da20004302070059
:10204c000004e00036003a0041748000e0da200021
:10205c0080087800417480000000eb00d0009800ec
:10206c00417480000000eb00e00098004274800096
:10207c006000b8007001980001099800427480005b
:10208c006000b80010099800210998004174800084
:10209c00c0c5b300c058980010002000000f780095
:1020ac0007003700417480001e0078007c0040005f
:1020bc008100400000c2b300804878001e0fe80089
:1020cc00a00020009e0f1000f6ff34004174800029
:1020dc000000eb00c010980041748000000120004b
:1020ec00e010980042748000006880001168800045
:1020fc0070119800011998004274800000688000eb
:10210c001168800010199800211998000040eb000c
:10211c0004edb700100020001007980002003700f3
:10212c000000eb00100798001e0090000080fa00e1
:10213c00000006001400fa00881f78006007980061
:10214c007107980002579800135798006e00900082
:10215c004010900050079800b00020002007980015
:10216c006e00900080189000701090006e0190002e
:10217c0010199800211998007e00900060119000b1
:10218c00020078000080ea008180ea0030079800a5
:10219c005e0090000000e00009003a00ea004700f1
:1021ac0012c0b3006e009000fc1107000000e000ac
:1021bc000f003a00b0012000200798000c003700f7
:1021cc005e0090006f0060000000e000080032002c
:1021dc00ea00470012c0b3006e009000ef11070038
:1021ec000000e00002003a00b00120002007980037
:1021fc002e009000fb0f5000b60032002e00900015
:10220c000000e000b3003200ea0047006e009000ce
:10221c007e170700104798001e409000e24f5000b8
:10222c00ac0032001e4090000004e000a0003a0018
:10223c006e009000e010900041079800ce009000d6
:10224c00f003200000806000400798001e509000b2
:10225c000080fb00100f98001e0890000000e000aa
:10226c00040032009e089000e18f500028003200dc
:10227c00940037004e009000e80f5000910032009f
:10228c000000eb0020079800d0c6b3003047980040
:10229c000040eb00004f7800190037001e80fb0057
:1022ac00ee0090007c0040000100400010407800df
:1022bc00304798001e80fb00fe0090007c00400020
:1022cc000100400010407800204798003e409000ec
:1022dc000080fb009ff80700000478002e4090005f
:1022ec000080fb009bf80700800f540003003200b5
:1022fc00b000200020079800720037001e4fe80045
:10230c00a0c0b3009e4f1000e4ff36006d003700f4
:10231c004e009000be009000010060000000e00044
:10232c0068003a004e009000ef0f5000650032003c
:10233c000000eb0020079800d0c6b300304798008f
:10234c007e009000c0589000a0c2b30080cf500017
:10235c00270032000040eb00004f780021003700ce
:10236c001e80fb00ee0090007c004000010040004d
:10237c0010407800304798001e80fb00fe00900053
:10238c007c0040000100400010407800204798007d
:10239c00ae409000a0c2b30080cf500014003200b9
:1023ac00ae409000f0c3b30080cf50000c00320060
:1023bc003e4090000080fb0066f8070000047800a7
:1023cc002e4090000080fb0062f80700800f540044
:1023dc0003003200b00020002007980004003700f2
:1023ec001e4fe80071c0b3009ecf1000dcff36001a
:1023fc007e009000c0609000a0c2b30080cf50005f
:10240c00300032002e0090000000e0002d003a0059
:10241c0080c0b300004f7800210037001e80fb0005
:10242c00ee0090007c00400001004000104078005d
:10243c00304798001e80fb00fe0090007c0040009e
:10244c00010040001040780020479800ae409000fa
:10245c00a0c2b30080cf50001a003200ae409000f2
:10246c00f0c3b30080cf50000c0032003e4090000f
:10247c000080fb0037f80700000478002e40900025
:10248c000080fb0033f80700800f5400030032007b
:10249c00b0002000200798000a0037001e4fe8000b
:1024ac00a0c0b3009e4f1000dcff360005003700c3
:1024bc000e5090000004e00002003a000000eb0017
:1024cc00200798005e0090000000e800500798007c
:1024dc004aff37002e0090004f0478000080fa006d
:1024ec00000006001200fa005007980061079800df
:1024fc00624f98000000eb00000f78005e00900027
:10250c0090007800410798004e00900030609000d9
:10251c000004e00003003a0070002000000f780077
:10252c008d0037005e0090008018900070109000b5
:10253c005e01900010199800211998006e0090000f
:10254c00100078000000e00009003a0012c0b3004f
:10255c00ee0090005e009000101107000000e000fb
:10256c0010003a00b0012000000f78000d00370079
:10257c006e009000100078006f0060000000e0001a
:10258c000800320012c0b300ee0090005e00900014
:10259c00021107000000e00002003a00b001200028
:1025ac00000f7800ee0090005e0090009716070078
:1025bc00604798006e4090000004e0000300320079
:1025cc00b0002000000f7800630037005e0190001f
:1025dc006000b80070019800010998005e0090003e
:1025ec00a0009000100090005e0190003001980057
:1025fc0041019800de0090000000eb00d000980034
:10260c00de0090000000eb00e00098006e409000af
:10261c00e14f500003003a00b0002000000f78009a
:10262c002d0037005e00900030019000c00190003a
:10263c004e009000711b07001007980021079800ae
:10264c0084cebf000004e00006003200961d070097
:10265c000004e0000300320090002000000f9800fe
:10266c003f003700de009000f17388000274800098
:10267c00137480001e009000ae009000800f51007b
:10268c00818f5900140032000040eb0086eeb70039
:10269c004e0090009080fb00104090000080fb00ea
:1026ac004800dd0001007000000178001e00900061
:1026bc00ae009000e03407000004e00002003a0095
:1026cc0080002000000f78001e009000ae009000eb
:1026dc0000748800117488005e019000b2089000ac
:1026ec00b0ff2f000080600030099800ee48900089
:1026fc0070c7b30080cf500004003200ee48900049
:10270c0010c6b30080cf50000a003a00de009000e3
:10271c00310890000000a000b00898005e01900005
:10272c00b2089000d0ff2f000080600030099800a4
:10273c00090037005e019000b2089000e0ff2f0006
:10274c000080600030099800de0090003108900095
:10275c000010a000b00898009e007800010f9800af
:10276c000e0890000080fa00000006001c00fa0021
:10277c00200f9800320f9800430f98000040eb0098
:10278c00204798002e089000100f78001e0078004b
:10279c00206090000080fb00500f98005e089000b5
:1027ac00e10f50000d0032005e099000e30f510064
:1027bc00010032001200370080ff2f00f1ff2000d3
:1027cc002007980031079800f0ff2f00f1ff200040
:1027dc0040079800510798001100370080ff200037
:1027ec00010020002007980031079800f0ff2f000f
:1027fc00010020004007980051079800080037009e
:10280c0080ff2f000100200020079800310798005e
:10281c00f0ff2f000100200040079800510798009e
:10282c002e08900030019000c001900062079800c3
:10283c00730798006e019000fe0190001e00780056
:10284c00ec210700000f9800110f98000e09900062
:10285c009e0990004e009000de009000800f510009
:10286c00818f590003003a0080c0b30020479800c4
:10287c001f0037009e007800415090000082fb0042
:10288c00515090000080fb004800dd0004007000f7
:10289c0000017800615090000082fb0071509000a4
:1028ac000080fb004800dd0004007000800178000f
:1028bc000e0890009e089000800f5100818f5900e7
:1028cc0002003e00a0c0b300204798000e09900003
:1028dc009e0990002e009000be009000800f5100c9
:1028ec00818f590002003900c0c3b3002047980003
:1028fc002e0890000e0990009e099000320098005e
:10290c00430098003e089000ce08900061005000f3
:10291c00e0805800300f9800410f98003e0890005e
:10292c00ce089000e00f5000e08f580003003200fa
:10293c002e4090000004e000b9ff32002e409000c1
:10294c000080fb000080fa00000006000800fa007e
:10295c00200798000040eb0020479800ae00900044
:10296c000040eb00b0609800ae00900002852000a3
:10297c00f00f20000000610091417800e0c8610078
:10298c00914870004811de001140900060406000da
:10299c00024070009040980039370700000f780013
:1029ac001e007800104078000004e00005003200a2
:1029bc0060c0b3002047980060c0b30004edb700be
:1029cc003c0037001e0078009000780000102000ba
:1029dc00008060000000e000270032001e0078003c
:1029ec00100090006101b800ae009000f00f2000c4
:1029fc0000026100015890006040600004407000cb
:102a0c00805898004812de00115890006040600019
:102a1c000440700090589800f00f20000082610074
:102a2c00215890006040600004407000a05898004d
:102a3c004819de0031589000604060000240700080
:102a4c00b05898001e0078009000900000202000e4
:102a5c00808f50000800360010c2b3002047980049
:102a6c0010c2b30004edb7002e4090000080fb00b4
:102a7c0030079800120037002e009000130007005a
:102a8c00204798002e4090000004e00009003a0016
:102a9c002e0090003e010700204798002e40900029
:102aac000004e00003003a00ae00900010c0b30038
:102abc00b06098002e4090000080fb00300798001a
:102acc003e0090000080fa00000006000e00fa00a4
:102adc00300798000040eb00304798003e00900013
:102aec009080fb00104090000080fb004800dd004f
:102afc0001007000000178006000b800ce330700c0
:102b0c00e14f50000500320080c0b3003047980000
:102b1c0080c0b30004edb700170137003e009000f1
:102b2c009080fb00104090000080fb004800dd000e
:102b3c0001007000000f78001e007800e0f8930090
:102b4c0050c5b30080cf5000a3003a001e0078009f
:102b5c00f0f89300a0cab30080cf50009e003a005a
:102b6c003e0090009080fb00104090000080fb0025
:102b7c004800dd000100700061032000e21907002d
:102b8c008040780060c4b30080cf500043003a000e
:102b9c003e0090009080fb00104090000080fb00f5
:102bac004800dd000100700071032000d6190700f9
:102bbc008040780010c4b30080cf500037003a003a
:102bcc003e0090009080fb00104090000080fb00c5
:102bdc004800dd000100700081032000ca190700c5
:102bec008040780040c5b30080cf50002b003a00e5
:102bfc003e0090009080fb00104090000080fb0095
:102c0c004800dd000100700091032000be19070090
:102c1c008040780010c3b30080cf50001f003a00f2
:102c2c003e0090009080fb00104090000080fb0064
:102c3c004800dd000100700061022000b21907009d
:102c4c008040780090c2b30080cf500013003a004f
:102c5c003e009000a0409000e0c060002140980031
:102c6c00b0409000e0c0600031409800c04090003f
:102c7c00e0c0600041409800d0409000e0c060008f
:102c8c0051409800be00900020c0b300a060980096
:102c9c000000eb0050079800ba0037003e0090008f
:102cac009080fb00104090000080fb004800dd008d
:102cbc000100700021052000931907008040780066
:102ccc0060c4b30080cf500043003a003e00900037
:102cdc009080fb00104090000080fb004800dd005d
:102cec000100700031052000871907008040780032
:102cfc0010c4b30080cf500037003a003e00900063
:102d0c009080fb00104090000080fb004800dd002c
:102d1c0001007000410520007b19070080407800fd
:102d2c0040c5b30080cf50002b003a003e0090000d
:102d3c009080fb00104090000080fb004800dd00fc
:102d4c0001007000510520006f19070080407800c9
:102d5c0030c3b30080cf50001f003a003e009000fb
:102d6c009080fb00104090000080fb004800dd00cc
:102d7c0001007000210420006319070080407800d6
:102d8c0090c2b30080cf500013003a003e00900078
:102d9c00a0409000e0c0600021409800b04090003e
:102dac00e0c0600031409800c0409000e0c060007e
:102dbc0041409800d0409000e0c060005140980025
:102dcc00be00900030c0b300a06098008000eb0003
:102ddc00510798006b0037003e0090009080fb007c
:102dec00104090000080fb004800dd0001007000e6
:102dfc00200798002e009000e0f8930050c5b30017
:102e0c0080cf500005003a002e009000f0f893009f
:102e1c00a0cab30080cf50000500320040c0b30000
:102e2c0004edb70040c0b3003047980052003700a3
:102e3c00ae00900061c093000082fb0071c0930053
:102e4c000080fb004800dd000400700000017800e9
:102e5c0001c893000082fb0011c893000080fb00a6
:102e6c004800dd000400700080017800be00900076
:102e7c00f00f2000000261002140900060406000d3
:102e8c0004407000a04098004812de0031409000d1
:102e9c006040600004407000b0409800f00f2000cb
:102eac00008261004140900060406000044070006e
:102ebc00c04098004819de0051409000604060000e
:102ecc0002407000d04098002e009000a0c09300eb
:102edc00214798002e4090000080fb00400798008e
:102eec004e009000ee0f50001f003e00100020001e
:102efc00ce0090000100dd00600798000005240062
:102f0c00ee009000008060000000e0000e003a002f
:102f1c0000802100ee009000008060000000e000c6
:102f2c000d003a00ee009000628060000000e000ae
:102f3c0001003a000c003700be00900010c0b30036
:102f4c00a06098000c003700be00900020c0b300b9
:102f5c00a060980008003700be00900030c0b3009d
:102f6c00a06098000400370050c0b30004edb70017
:102f7c0050c0b300304798003e4090000080fb00ea
:102f8c00500798005e0090000080fa0000000600d8
:102f9c001a00fa00889fbe008a9fbe00300f98006e
:102fac000040eb00004f98000040eb0010479800e9
:102fbc000040eb00004f78003e0890009080fb0032
:102fcc00104090000080fb004800dd000100700004
:102fdc0080017800be089000214090000081fb0029
:102fec00314090000080fb004800dd0002007000c2
:102ffc0000027800414090000081fb00514090009d
:10300c000080fb004800dd000200700080027800a8
:10301c00030178000400be0087320700e14f500026
:10302c000300320080c0b300004f9800eb02370061
:10303c003e0890009080fb00104090000080fb0048
:10304c004800dd00010070003007980000003700d8
:10305c003e009000e0f8930050c5b30080cf5000c4
:10306c0005003a003e009000f0f89300a0cab300af
:10307c0080cf50000300320030c0b300004f9800e6
:10308c00210237003e0890009080fb001040900019
:10309c000080fb004800dd0001007000e100200012
:1030ac00a2180700100798003e0890009080fb00c3
:1030bc00104090000080fb004800dd000100700013
:1030cc00d100200090180700804078003e08900046
:1030dc0011609800be089000214090000082fb0017
:1030ec00314090000080fb004800dd0004007000bf
:1030fc0000017800414090000082fb00514090009c
:10310c000080fb004800dd000400700080017800a6
:10311c001e00900001002000020140008381480045
:10312c00be089000f00f200000026100614090008a
:10313c006040600004407000e04098004812de00df
:10314c00714090006040600004407000f0409800b6
:10315c00f00f200000826100014890006040600088
:10316c0004407000804898004819de001148900017
:10317c006040600002407000904898003e0890004b
:10318c009080fb00104090000080fb004800dd00a8
:10319c0001007000010120005b18070080407800de
:1031ac003e089000016098003e0890009080fb0063
:1031bc00104090000080fb004800dd000100700012
:1031cc0061012000591807006101b800be08900089
:1031dc00f00f200000026100415890006040600038
:1031ec0004407000c05898004812de0051589000fe
:1031fc006040600004407000d0589800f00f200030
:10320c0000826100615890006040600004407000d2
:10321c00e05898004819de0071589000604060003a
:10322c0002407000f0589800be0890004158900081
:10323c000082fb00515890000080fb004800dd002c
:10324c000400700000017800615890000082fb00bf
:10325c00715890000080fb004800dd0004007000f5
:10326c0080017800e00f5100e08f590020003a00f7
:10327c003e0890009080fb00104090000080fb0006
:10328c004800dd00010070004102200041180700d9
:10329c000001be00be089000f00f2000000261008b
:1032ac00415890006040600004407000c058980085
:1032bc004812de00515890006040600004407000dd
:1032cc00d0589800f00f20000082610061589000e7
:1032dc006040600004407000e05898004819de001f
:1032ec00715890006040600002407000f0589800e7
:1032fc00be089000614090000081fb00714090007e
:10330c000080fb004800dd00020070000005780022
:10331c00014890000081fb00114890000080fb00e8
:10332c004800dd0002007000800578003e08900027
:10333c00006090000084fb0009002000be08900093
:10334c00415890000081fb00515890000080fb0018
:10335c004800dd0002007000000378006158900006
:10336c000081fb00715890000080fb004800dd00dc
:10337c000200700080037800880078000600780056
:10338c00000ab80007c0b90005017800000141002f
:10339c0009b0b90000014100820278000a01420024
:1033ac008b814a00be089000f00f200000026100e3
:1033bc00214890006040600004407000a0489800d4
:1033cc004812de00314890006040600004407000fc
:1033dc00b0489800f00f2000008261004148900036
:1033ec006040600004407000c04898004819de003e
:1033fc00514890006040600002407000d048980036
:10340c003e0890009080fb00104090000080fb0074
:10341c004800dd000100700011012000c3170700f7
:10342c0080017800be089000f00f20000081610040
:10343c00215090006040600002407000a050980045
:10344c004819de003150900060406000024070006e
:10345c00b05098003e0890009080fb001040900007
:10346c000080fb004800dd000100700031012000ed
:10347c00ae1707000100200070079800010f98009c
:10348c007e0090008e089000e00f5000e08f5800f6
:10349c000a003a003e0890009080fb00104090001b
:1034ac000080fb004800dd000100700001022000dc
:1034bc00b817070070079800010f98003e0890009d
:1034cc009080fb00104090000080fb004800dd0065
:1034dc0001007000b100200094170700200798002d
:1034ec002e0090000000e000040032002e0090003e
:1034fc00610060000004e0000300320010c2b30061
:10350c00004f980000013700be0890002150900039
:10351c000081fb00315090000080fb004800dd0072
:10352c0002007000c500dd002e00900000804000fd
:10353c000000e9002e019000110009000280d80063
:10354c0001002000100f9800210f98001e00900021
:10355c006105b8003e089000006090000084fb00fc
:10356c0009002000be089000415890000081fb002b
:10357c00515890000080fb004800dd0002007000f4
:10358c0000037800615890000081fb007158900096
:10359c000080fb004800dd00020070008003780012
:1035ac008800780006007800000ab80007c0b9004f
:1035bc00050178000001410009b0b900000141008b
:1035cc00820278000a0142008b814a001e0890009a
:1035dc00ae08900002014000838148007e009000fc
:1035ec008e0890000200500083805800500798000d
:1035fc00610798003e089000106090000081fb006d
:10360c00030020005e009000ee00900019f407000b
:10361c000001be00be089000f00f20000002610007
:10362c00415090006040600004407000c050980011
:10363c004812de0051509000604060000440700061
:10364c00d0509800f00f2000008261006150900073
:10365c006040600004407000e05098004819de00a3
:10366c00715090006040600002407000f050980073
:10367c00be089000415090000082fb005150900019
:10368c000080fb004800dd000400700000017800a1
:10369c00615090000082fb00715090000080fb0094
:1036ac004800dd00040070008001780040ff20001d
:1036bc0001002000800f5100818f590004003e0052
:1036cc00be08900010c0b300a06098001b0037002b
:1036dc00be089000415090000082fb0051509000b9
:1036ec000080fb004800dd00040070000001780041
:1036fc00615090000082fb00715090000080fb0034
:10370c004800dd00040070008001780040ff2f00ad
:10371c0001002000800f5100818f590004003e00f1
:10372c00be08900020c0b300a060980003003700d2
:10373c00be08900030c0b300a06098003e08900016
:10374c0020609000e34f500035003a003e08900096
:10375c009080fb00104090000080fb004800dd00d2
:10376c0001007000c10220000a17070000688800e1
:10377c0011688800be089000214890000082fb0070
:10378c00314890000080fb004800dd000400700010
:10379c0000017800414890000082fb0051489000e5
:1037ac000080fb004800dd00040070008001780000
:1037bc001e089000ae089000020140008381480072
:1037cc00be089000f00f20000002610061489000dc
:1037dc006040600004407000e04898004812de0031
:1037ec00714890006040600004407000f048980000
:1037fc00f00f2000008261000150900060406000da
:10380c0004407000805098004819de001150900060
:10381c006040600002407000905098003400370007
:10382c006000b8000068880011688800be0890002d
:10383c00214890000082fb00314890000080fb0082
:10384c004800dd0004007000000178004148900041
:10385c000082fb00514890000080fb004800dd0016
:10386c000400700080017800be0890002150900088
:10387c000082fb00315090000080fb004800dd000e
:10388c00040070004400de00010020000201400032
:10389c0083814800be089000f00f200000026100f8
:1038ac00614890006040600004407000e04898005f
:1038bc004812de00714890006040600004407000c7
:1038cc00f0489800f00f2000008261000150900039
:1038dc006040600004407000805098004819de0081
:1038ec0011509000604060000240700090509800b1
:1038fc00ae00900000202000808f500002003600a7
:10390c0010c2b300004f98003e0890002060900059
:10391c00e34f50000d0032000e4890000004e00010
:10392c00ae0032003e009000a0c0900090c2b300e8
:10393c0080cf5000050032003e009000a0c09000e7
:10394c0080c2b30080cf5000a4003a00be009000ab
:10395c00315090000081fb00415090000080fb0032
:10396c004800dd00020070000000e0003a003a0060
:10397c003e009000407090000004e00036003a00d9
:10398c003e009000507090000004e00032003a00bd
:10399c003e009000607090000004e0002e003a00a1
:1039ac003e009000707090000004e0002a003a0085
:1039bc003e009000007890000004e00026003a00e1
:1039cc003e009000107890000004e00022003a00c5
:1039dc003e009000207890000004e0001e003a00a9
:1039ec003e009000307890000004e0001a003a008d
:1039fc003e009000407890000004e00016003a0071
:103a0c003e009000507890000004e00012003a0054
:103a1c003e009000607890000004e0000e003a0038
:103a2c003e009000707890000004e0000a003a001c
:103a3c003e009000a0c0900090c2b30080cf500018
:103a4c00070032003e009000a0c0900080c2b3007e
:103a5c0080cf50000200320030c0b300004f9800fd
:103a6c000e4890000004e000310032001e4090002f
:103a7c000004e0002e003a0010c0b300104798007c
:103a8c003e0890009080fb00104090000080fb00ee
:103a9c004800dd000100700080027800be08900034
:103aac00214090000082fb00314090000080fb0020
:103abc004800dd00040070000001780041409000d7
:103acc000082fb00514090000080fb004800dd00ac
:103adc000400700080017800be00900021709000fe
:103aec000082fb00317090000080fb004800dd007c
:103afc000400700001002000020040008380480098
:103b0c0005017800cc2f0700e14f50000500320072
:103b1c0080c0b30004edb70080002000400f980077
:103b2c00360037000040eb00004f980048fd37008e
:103b3c000e4890000004e000280032001e04e00053
:103b4c0026003a0010c0b300004f78003e089000e9
:103b5c009080fb00104090000080fb004800dd00ce
:103b6c000100700080027800be0890002140900097
:103b7c000082fb00314090000080fb004800dd001b
:103b8c000400700000017800414090000082fb00ae
:103b9c00514090000080fb004800dd0004007000e4
:103bac008001780066004100e08049000501780042
:103bbc00a12f0700e14f50000500320080c0b30078
:103bcc0004edb70080002000400f98000b00370078
:103bdc000040eb00004f98001dfd37000e48900090
:103bec000004e000020032000e48900004edb70023
:103bfc000e4890000080fb00400f98004e0890008b
:103c0c004f05be004f04be000080fa000000060005
:103c1c000600fa00200798006000b800008fbe0074
:103c2c002e0090002008900001002000008fbe00a4
:103c3c001e00be00c000dd0000002000008fbe0092
:103c4c002e00900050089000010020001e1f7000f4
:103c5c001e9770001e00be000080fa0000000600d7
:103c6c001400fa005007980061079800720798003a
:103c7c00030f98006000b8002007980031079800e7
:103c8c005e009000ee009000e00f5000e08f5800b6
:103c9c00070032007e0190008e0990001000200079
:103cac0001002000800f5100818f590003003e005d
:103cbc000080eb00100f98001b0137007e00900075
:103ccc008e08900061015000e08158005e00900069
:103cdc00ee009000800f5100818f590003003100dd
:103cec008080eb00110f98000f01370084cebf00cd
:103cfc000004e00006003200eb1707000004e000af
:103d0c00030032000081eb00120f9800060137000f
:103d1c0000852000022020008000eb008ff30700bc
:103d2c0000852000400798005e009000ee00900097
:103d3c00008fbe001e00be0012ec2300030020000a
:103d4c004cf207004e09dd00c200de00810071005c
:103d5c004e00dd0020079800310798001e00be00c1
:103d6c0012ec2300030020003ff20700008fbe007e
:103d7c001e00be00f2032000030020003df20700ed
:103d8c004609dd00ca01de00830171004601dd0039
:103d9c002e009000be009000020070008380700026
:103dac0020079800310798001e00be00f203200087
:103dbc00030020002cf20700008fbe001000200032
:103dcc00010020003e014000ae8148002e00900012
:103ddc00be009000020070008380700020079800e5
:103dec00310798002e009000be0090004008de00c5
:103dfc00010020000feab7002e009000be009000da
:103e0c004809dd004800de0000007100c808de0033
:103e1c0010eab7002e00900011eab7007e01900066
:103e2c008e0990005e009000ee00900000015100a1
:103e3c0081815900ce009000f00f2000000261003b
:103e4c0021c893006040600004407000a0c89b0033
:103e5c004812de0031c893006040600004407000de
:103e6c00b0c89b00f00f20000082610041c8930095
:103e7c006040600004407000c0c89b004819de0020
:103e8c0051c893006040600002407000d0c89b0095
:103e9c00ce00900021c893000082fb0031c8930033
:103eac000080fb004800dd00040070000001780079
:103ebc0041c893000082fb0051c893000080fb00b6
:103ecc004800dd00040070008001780080032100b0
:103edc0001002000800f5100818f590004003e002a
:103eec00ce00900010c0b300a0c09b001b00370098
:103efc00ce00900021c893000082fb0031c89300d3
:103f0c000080fb004800dd00040070000001780018
:103f1c0041c893000082fb0051c893000080fb0055
:103f2c004800dd000400700080017800f0d52f00ff
:103f3c00f1032000800f5100818f590004003e00d6
:103f4c00ce00900060c0b300a0c09b0003003700ff
:103f5c008081eb00130f980073003700ce009000a7
:103f6c005e019000f00f20000001610061c0930021
:103f7c006040600002407000e0c09b005e0090005a
:103f8c004801de0071c09300604060000240700088
:103f9c00f0c09b006e019000f00f2000000161004a
:103fac0001c89300604060000240700080c89b0014
:103fbc006e0090004801de0011c893006040600064
:103fcc000240700090c89b005e019000ee019000d2
:103fdc007e0090008e089000020040008380480014
:103fec000081eb008081eb00021f4000039748002a
:103ffc001e00be0012ec2300030020009df1070000
:10400c00ce09dd00c200de00818071004e00dd00b3
:10401c0020079800310798001e00be0012ec230008
:10402c000300200090f10700008fbe001e00be00b0
:10403c00f2032000030020008ef107004609dd008a
:10404c00ca01de00830171004601dd002e009000e4
:10405c00be00900002007000838070002007980062
:10406c00310798001e00be00f20320000300200060
:10407c007df10700008fbe00100020000100200021
:10408c003e014000ae8148002e009000be00900022
:10409c0002007000838070002007980031079800a0
:1040ac002e009000be0090004008de0001002000b1
:1040bc0013eab7002e009000be0090004809dd0006
:1040cc004800de0000007100c808de0014eab700ea
:1040dc002e00900015eab700ce0090000040eb00d7
:1040ec00e0789b00ce00900050c5b300e0f89b0038
:1040fc00ce009000a0cab300f0f89b0013c0b30030
:10410c00028520006000b800b9300700e14f500074
:10411c00030032008081eb00130f9800020037007f
:10412c000000eb00100f98001e0890000080fa00b1
:10413c00000006006c00fa00889fbe008a9fbe003b
:10414c0060c7980042279800532798006127980071
:10415c00200220000e004000000f98000040eb00f1
:10416c0004edb7000040eb0086eeb7000040eb001a
:10417c007ceeb7000080eb008080eb00c073880001
:10418c00d17388000080eb008080eb000074880005
:10419c00117488008e08900002852000f00f20001a
:1041ac000000610091417800e0c861009148700006
:1041bc004811de0011409000604060000240700029
:1041cc0090409800682d07002d310700000f7800f3
:1041dc001e007800104078000004e000050032005a
:1041ec0060c0b30004edb7000082eb00142f980000
:1041fc00f5083700028520006000b8000e2e07007d
:10420c000004e00005003a00b0c1b30004edb700b3
:10421c000080eb00102f9800eb0837000e08900080
:10422c009080fb00104090000080fb004800dd00f7
:10423c0001007000100f98001e089000e0f8930029
:10424c0050c5b30080cf50009a003a001e08900071
:10425c00f0f89300a0cab30080cf500095003a004c
:10426c000e0890009080fb00104090000080fb0036
:10427c004800dd00010070006103200022140700db
:10428c008040780060c4b30080cf500057003a00e3
:10429c000e0890009080fb00104090000080fb0006
:1042ac004800dd00010070007103200016140700a7
:1042bc008040780010c4b30080cf50004b003a000f
:1042cc000e0890009080fb00104090000080fb00d6
:1042dc004800dd0001007000810320000a14070073
:1042ec008040780040c5b30080cf50003f003a00ba
:1042fc000e0890009080fb00104090000080fb00a6
:10430c004800dd000100700091032000fe1307003f
:10431c008040780010c3b30080cf500033003a00c7
:10432c000e0890009080fb00104090000080fb0075
:10433c004800dd000100700061022000f21307004c
:10434c008040780090c2b30080cf500027003a0024
:10435c000000eb00001798006ec090000000fb00fe
:10436c00002f98008e2890000100e0000900320018
:10437c000e299000e10f510001003200430037007c
:10438c00f0c1b30004edb7008081eb00132f98004f
:10439c008d0837000e089000a0409000e0c060002f
:1043ac0021409800b0409000e0c06000314098007f
:1043bc00c0409000e0c0600041409800d0409000a8
:1043cc00e0c06000514098000e089000f0fa070021
:1043dc000004e0002d003200b0c1b30004edb700c2
:1043ec000082eb00142f980077083700008520001e
:1043fc00001798008e10900061c093000082fb00a3
:10440c0071c093000080fb004800dd0004007000c8
:10441c000001780001c893000082fb0011c89300d2
:10442c000080fb004800dd00040070008001780073
:10443c008e089000f00f20000002610021409000d7
:10444c006040600004407000a04098004812de00fc
:10445c00314090006040600004407000b040980013
:10446c00f00f20000082610041409000604060002d
:10447c0004407000c04098004819de005140900084
:10448c006040600002407000d04098006ec0900008
:10449c000000fb00702798007e2090000000e000d8
:1044ac002f053200fe209000e18f500006003200f4
:1044bc003405370040c0b30004edb7000081eb00b9
:1044cc00122f9800400837008e10900021c89300de
:1044dc000082fb0031c893000080fb004800dd0027
:1044ec00040070000001780041c893000082fb00ba
:1044fc0051c893000080fb004800dd0004007000f0
:10450c0080017800620f9800730f98006e0990007c
:10451c00fe0990008003210001002000800f510053
:10452c00818f590071003e008e08900010c0b300be
:10453c00a06098008e10900010c0b300a0c09b002b
:10454c0013c0b300028520006000b800a82f07003c
:10455c000004e00005003a0090c0b30004edb70081
:10456c008081eb00132f9800170837006e0990001c
:10457c00fe0990007002210001002000800f510004
:10458c00818f5900040036008e08900020c0b300c3
:10459c0090609800030037008e08900010c0b300a4
:1045ac009060980000852000022020008000eb0025
:1045bc006af1070020c3b3008ae8b7000e08900028
:1045cc00106090000080fb00000040006101b90009
:1045dc006e089000fe0890000201400083814800a4
:1045ec00f0fd2f00f1ff2f000200400083804800f7
:1045fc0050079800610798000e089000106090001a
:10460c008080fb00501520000088b9000080e80075
:10461c00cf80de0030079800410798003e019000e3
:10462c00ce0190005e009000ee0090000200400071
:10463c008380480061005000e08058003e019000eb
:10464c00ce0190000bf0070050079800610798000e
:10465c008e08900020c0b300806098008e089000f7
:10466c002150900060406000a050980031509000a4
:10467c00604060000014a000b05098008e089000bc
:10468c005e019000f00f2000000161004158900085
:10469c006040600002407000c05898005e009000be
:1046ac004801de00515890006040600002407000ec
:1046bc00d05898006e019000f00f200000016100ae
:1046cc00615890006040600002407000e058980013
:1046dc006e0090004801de00715890006040600050
:1046ec0002407000f0589800110137006e099000dc
:1046fc00fe099000f0d52f00f1032000800f51002f
:10470c00818f59008c003e008e08900020c0b300b1
:10471c00a06098008e10900060c0b300a0c09b00f9
:10472c0013c0b300028520006000b800302f0700d2
:10473c000004e00005003a0090c0b30004edb7009f
:10474c000082eb00142f98009f0737006e09900031
:10475c00fe09900080de2f00f1ff2f0002004000c8
:10476c0083804800400f9800510f98008e089000ed
:10477c0010c0b300906098000d0037000e08900038
:10478c00106090000080fb0000004000804078002a
:10479c000e089000116098004e089000de08900002
:1047ac008100d1000080d300400f9800510f980079
:1047bc004e099000de099000d0fe2f000100200071
:1047cc00800f5100818f5900ecff3e000e089000c5
:1047dc009060900000c8b30080cf500005003600f8
:1047ec0040c0b30004edb7000080eb00102f980020
:1047fc007507370000852000022020008000eb00a8
:10480c00d6f0070060c3b3008ae8b7000e0890002a
:10481c00106090000080fb00000040006101b900b6
:10482c006e089000fe089000020140008381480051
:10483c00f0fd2f00f1ff2f000200400083804800a4
:10484c0050079800610798000e08900010609000c7
:10485c000080fb004800dd000080e800cf80de0017
:10486c0030079800410798003e019000ce0190005f
:10487c005e009000ee009000020040008380480033
:10488c0061005000e08058003e019000ce01900085
:10489c0078ef070050079800610798008e08900089
:1048ac0020c0b300806098008e08900021509000ca
:1048bc0060406000a0509800315090006040600053
:1048cc000014a000b05098008e0890005e0190007b
:1048dc00f00f200000016100415890006040600022
:1048ec0002407000c05898005e0090004801de0045
:1048fc00515890006040600002407000d058980001
:10490c006e019000f00f20000001610061589000d2
:10491c006040600002407000e05898006e0090000b
:10492c004801de0071589000604060000240700049
:10493c00f05898007e0037008e08900030c0b3000d
:10494c00a06098008e109000b0c0b300a0c09b0077
:10495c0013c0b300028520006000b800a42e07002d
:10496c000004e00005003a0090c0b30004edb7006d
:10497c008080eb00112f9800130737006e09900010
:10498c00fe099000420f9800530f98008e0890007b
:10499c0010c0b300906098000d0037000e08900016
:1049ac00106090000080fb00000040008040780008
:1049bc000e089000116098004e089000de089000e0
:1049cc008100d1000080d300400f9800510f980057
:1049dc004e099000de099000e0ff2b00f10320004f
:1049ec00800f5100818f5900ecff3e000e089000a3
:1049fc009060900000c8b30080cf500005003600d6
:104a0c0040c0b30004edb7008081eb00132f980079
:104a1c00ed06370000852000022020008000eb000e
:104a2c004ef007006e099000fe09900000fe2f006a
:104a3c00f1ff2f00020040008380480050079800cf
:104a4c00610798000e089000106090000080fb0039
:104a5c004700dd000000e800cf80de003007980042
:104a6c00410798003e019000ce0190005e0090003e
:104a7c00ee0090000200400083804800610050006e
:104a8c00e08058003e019000ce019000f9ee070046
:104a9c0050079800610798008e08900020c0b30062
:104aac00806098008e08900021509000604060005b
:104abc00a050980031509000604060000014a0009d
:104acc00b05098008e0890005e019000f00f20000e
:104adc00000161004158900060406000024070008d
:104aec00c05898005e0090004801de0051589000bc
:104afc006040600002407000d05898006e01900039
:104b0c00f00f2000000161006158900060406000cf
:104b1c0002407000e05898006e0090004801de00e2
:104b2c00715890006040600002407000f05898008e
:104b3c00b0ceb30050e8b700c0c3b30051e8b70023
:104b4c0000c9b30052e8b700d0c4b30053e8b700b3
:104b5c0030c4b30054e8b70080c4b30055e8b700c4
:104b6c0000c5b30056e8b70000c2b30057e8b70061
:104b7c0060c4b30058e8b70010c4b30059e8b700dc
:104b8c0040c5b3005ae8b7000040eb005be8b70043
:104b9c0020c0b3005ce8b7000e08900010609000d5
:104bac005de8b7000e08900020609000e14f5000c7
:104bbc00040032000e08900020609000e24f50007c
:104bcc0063013a0080c0b3005ee8b7000040eb0020
:104bdc005fe8b7008e089000214090000082fb0037
:104bec00314090000080fb004800dd0004007000a4
:104bfc0000017800414090000082fb005140900081
:104c0c000080fb004800dd0004007000800178008b
:104c1c0068014100e08149008e089000f00f2000ef
:104c2c000002610061409000604060000440700030
:104c3c00e04098004812de00714090006040600037
:104c4c0004407000f0409800f00f200000826100da
:104c5c00014890006040600004407000804898005b
:104c6c004819de001148900060406000024070005e
:104c7c009048980020c0b30060e8b7000040eb00fb
:104c8c0061e8b70020c0b30062e8b7000040eb0059
:104c9c0063e8b7000040eb0064e8b70080cfb300d6
:104cac0065e8b7005e00900066e8b7005e00900013
:104cbc00ee009000480add004800de0000007200a3
:104ccc00c808de0067e8b700f0c3b30068e8b700b7
:104cdc000040eb0069e8b70000c0eb006ae8b700e1
:104cec000040eb006be8b7008e089000214090006c
:104cfc000082fb00314090000080fb004800dd008a
:104d0c000400700000017800414090000082fb001c
:104d1c00514090000080fb004800dd000400700052
:104d2c0080017800024078006ce8b7008e08900093
:104d3c00214090000082fb00314090000080fb007d
:104d4c004800dd0004007000000178004140900034
:104d5c000082fb00514090000080fb004800dd0009
:104d6c000400700080017800481add004810de0055
:104d7c0000007200c818de006de8b7008e089000c5
:104d8c00214090000082fb00314090000080fb002d
:104d9c004800dd00040070000001780041409000e4
:104dac000082fb00514090000080fb004800dd00b9
:104dbc0004007000800178004018de000100200023
:104dcc006ee8b7008e089000214090000082fb0036
:104ddc00314090000080fb004800dd0004007000b2
:104dec0000017800414090000082fb00514090008f
:104dfc000080fb004800dd0004007000800178009a
:104e0c004818de00010020006fe8b7006e08900023
:104e1c0070e8b7006e089000fe0890004809dd00ad
:104e2c004800de0000007100c808de0071e8b70021
:104e3c006e089000fe0890004008de000100200083
:104e4c0072e8b7006e089000fe0890004808de007b
:104e5c000100200073e8b7000040eb0074e8b700d5
:104e6c000040eb0075e8b70090c2b30076e8b700dd
:104e7c004e2090008040780000c0eb0000c0600025
:104e8c0077e8b7004e209000de209000202f98008d
:104e9c00312f98002e289000be289000e00f500073
:104eac00e08f580006003d002e299000be2990008e
:104ebc00f20fb0000380b000222f9800332f98001f
:104ecc002e299000be299000481add004810de0003
:104edc0000007200c898de008040780000c0eb0033
:104eec0000c0600078e8b7004e209000de209000f3
:104efc00402f9800512f98004e289000de289000eb
:104f0c00e00f5000e08f580008003d00f0ff2f002c
:104f1c00010020004e299000de2990000201400083
:104f2c0083814800422f9800532f98004e299000ff
:104f3c00de2990004098de00cf80de0080407800b3
:104f4c0000c0eb0000c0600079e8b7004e20900074
:104f5c00de209000602f9800712f98006e28900032
:104f6c00fe289000e00f5000e08f580008003d0034
:104f7c00f0ff2f00f10f20006e299000fe29900009
:104f8c000201400083814800622f9800732f980023
:104f9c006e299000fe2990004898de00cf80de003c
:104fac008040780000c0eb0000c060007ae8b700d9
:104fbc006e2090000000e0003d0032006000b80060
:104fcc001007980021079800140037001e0090006d
:104fdc00ae0090000001be00b202b0000380b00031
:104fec001e009000800078006e2090000080400031
:104ffc0010407800804078000085200000004100bf
:10500c00014878001e009000ae0090006100400046
:10501c00e080480010079800210798001e009000bf
:10502c00800078006e2090000080400010407800d6
:10503c000004e000160032001e019000ae0190004a
:10504c00a000200001002000800f5100818f59002a
:10505c00deff36000e0037001e009000ae00900000
:10506c00b002b0000180b000028520008200400038
:10507c0000c2b300804878001e009000ae00900083
:10508c0061004000e080480010079800210798005c
:10509c001e019000ae019000a00020000100200035
:1050ac00800f5100818f5900ebff3600190037003b
:1050bc006000b80010079800210798000e00370018
:1050cc001e009000ae009000b002b0000180b00055
:1050dc0002852000820040000040eb0080487800f0
:1050ec001e009000ae00900061004000e08048007f
:1050fc0010079800210798001e019000ae01900047
:10510c00a000200001002000800f5100818f590069
:10511c00ebff360060c4b30086e8b70010c4b300e0
:10512c0087e8b70040c5b30088e8b70010c3b300e8
:10513c0089e8b70000c2b3008be8b70000c2b30027
:10514c008ce8b70000c2b3008de8b700a2013700ad
:10515c0000c2b3005ee8b7000040eb005fe8b700a8
:10516c008e089000214090000082fb00314090009e
:10517c000080fb004800dd00040070000001780096
:10518c00414090000082fb00514090000080fb00e9
:10519c004800dd0004007000800178000202b000bd
:1051ac000380b0008e089000f00f20000002610018
:1051bc00614090006040600004407000e040980046
:1051cc004812de00714090006040600004407000a6
:1051dc00f0409800f00f2000008261000148900020
:1051ec006040600004407000804898004819de0060
:1051fc001148900060406000024070009048980098
:10520c0020c0b30060e8b7000040eb0061e8b700d5
:10521c000040eb0062e8b7000040eb0063e8b70029
:10522c000040eb0064e8b70080cfb30065e8b7003e
:10523c000040eb0066e8b7000040eb0067e8b70001
:10524c00f0c3b30068e8b7000040eb0069e8b700b2
:10525c0000c0eb006ae8b7000040eb006be8b70059
:10526c008e089000214090000082fb00314090009d
:10527c000080fb004800dd00040070000001780095
:10528c00414090000082fb00514090000080fb00e8
:10529c004800dd00040070008001780002407800b6
:1052ac006ce8b7008e089000214090000082fb0053
:1052bc00314090000080fb004800dd0004007000cd
:1052cc0000017800414090000082fb0051409000aa
:1052dc000080fb004800dd000400700080017800b5
:1052ec00481add004810de0000007200c818de000d
:1052fc006de8b7008e089000214090000082fb0002
:10530c00314090000080fb004800dd00040070007c
:10531c0000017800414090000082fb005140900059
:10532c000080fb004800dd00040070008001780064
:10533c004018de00010020006ee8b7008e089000d7
:10534c00214090000082fb00314090000080fb0067
:10535c004800dd000400700000017800414090001e
:10536c000082fb00514090000080fb004800dd00f3
:10537c0004007000800178004818de000100200055
:10538c006fe8b7006e08900070e8b7006e089000e8
:10539c00fe0890004809dd004800de0000007100a6
:1053ac00c808de0071e8b7006e089000fe08900097
:1053bc004008de000100200072e8b7006e08900083
:1053cc00fe0890004808de000100200073e8b700da
:1053dc005e00900074e8b7005e009000ee00900054
:1053ec00c809dd004800de0000807100c808de003e
:1053fc0075e8b7005e009000ee0090004008de00fb
:10540c000100200076e8b7005e009000ee009000ee
:10541c004808de000100200077e8b7000040eb00f0
:10542c0078e8b7000040eb0079e8b7000040eb00eb
:10543c007ae8b7000040eb007be8b70020c0b3006f
:10544c007ce8b7000040eb007de8b7000040eb00c3
:10545c007ee8b7000040eb007fe8b70010c0b30057
:10546c0080e8b7000040eb0081e8b7000040eb009b
:10547c0082e8b7000040eb0083e8b7000040eb0087
:10548c0084e8b7000040eb0085e8b7000040eb0073
:10549c0086e8b7000040eb0087e8b7000040eb005f
:1054ac0088e8b7000040eb0089e8b7000040eb004b
:1054bc008ae8b7000040eb008be8b7000040eb0037
:1054cc008ce8b7000040eb008de8b7000040eb0023
:1054dc008ee8b7000040eb008fe8b7000040eb000f
:1054ec0090e8b7000040eb0091e8b70090c2b30021
:1054fc0092e8b7004e2090008040780000c0eb008e
:10550c0000c0600093e8b7004e209000de209000b1
:10551c0000379800113798000e3090009e309000a4
:10552c00e00f5000e08f580006003d000e31900057
:10553c009e319000f20fb0000380b000023798004b
:10554c00133798000e3190009e319000481add0000
:10555c004810de0000007200c898de008040780021
:10556c0000c0eb0000c0600094e8b7004e20900033
:10557c00de20900020379800313798002e309000b4
:10558c00be309000e00f5000e08f580008003d0046
:10559c00f0ff2f00010020002e319000be31900052
:1055ac00020140008381480022379800333798006d
:1055bc002e319000be3190004098de00cf80de008e
:1055cc008040780000c0eb0000c0600095e8b70098
:1055dc004e209000de209000403798005137980004
:1055ec004e309000de309000e00f5000e08f5800fd
:1055fc0008003d00f0ff2f00f10f20004e3190000d
:10560c00de3190000201400083814800423798004f
:10561c00533798004e319000de3190004898de00f0
:10562c00cf80de008040780000c0eb0000c060003e
:10563c0096e8b7006e2090000000e0003d003200bc
:10564c006000b8001007980021079800140037007c
:10565c001e009000ae0090000001be007204b0006d
:10566c000380b0001e009000800078006e20900037
:10567c0000804000104078008040780000852000b9
:10568c0000004100014878001e009000ae00900020
:10569c0061004000e0804800100798002107980046
:1056ac001e009000800078006e209000008040006a
:1056bc00104078000004e000160032001e0190003b
:1056cc00ae019000a000200001002000800f5100ce
:1056dc00818f5900deff36000e0037001e0090004f
:1056ec00ae0090007004b0000180b0000285200074
:1056fc008200400000c2b300804878001e00900079
:10570c00ae00900061004000e08048001007980057
:10571c00210798001e019000ae019000a00020000f
:10572c0001002000800f5100818f5900ebff3600e3
:10573c00190037006000b800100798002107980086
:10574c000e0037001e009000ae0090007004b000f8
:10575c000180b00002852000820040000040eb0078
:10576c00804878001e009000ae0090006100400060
:10577c00e080480010079800210798001e01900057
:10578c00ae019000a000200001002000800f51000d
:10579c00818f5900ebff360060c4b300a2e8b7005c
:1057ac0010c4b300a3e8b70040c5b300a4e8b70029
:1057bc0030c3b300a5e8b70020c3b300a6e8b70018
:1057cc0000c2b300a7e8b70000c2b300a8e8b70056
:1057dc0000c2b300a9e8b70050c5b3004eeab70049
:1057ec00a0cab3004feab7008e0890006140900049
:1057fc000081fb00714090000080fb004800dd0040
:10580c000200700000057800014890000081fb0048
:10581c00114890000080fb004800dd000200700081
:10582c00800578000e089000006090000084fb005a
:10583c00090020008e089000415890000081fb0068
:10584c00515890000080fb004800dd000200700001
:10585c0000037800615890000081fb0071589000a3
:10586c000080fb004800dd0002007000800378001f
:10587c008800780006007800000ab80007c0b9005c
:10588c00050178000001410009b0b9000001410098
:10589c00820278000a0142008b814a008e08900037
:1058ac00f00f200000026100214890006040600071
:1058bc0004407000a04898004812de003148900067
:1058cc006040600004407000b0489800f00f200069
:1058dc00008261004148900060406000044070000c
:1058ec00c04898004819de005148900060406000a4
:1058fc0002407000d04898008e0890002140900023
:10590c000081fb00314090000080fb004800dd006e
:10591c000200700000027800414090000081fb0002
:10592c00514090000080fb004800dd000200700038
:10593c00800278008041eb00028520000400be004c
:10594c00ab2a07000004e00013003a0090c0b3003b
:10595c0004edb7008081eb00132f98001a03370079
:10596c000e0890008af507000004e0000a003200df
:10597c00b0c1b30004edb7000082eb00142f980007
:10598c0011033700f0c1b30004edb7000080eb0049
:10599c00102f98000c0337000085200002202000f7
:1059ac008000eb006dec07000e089000206090006a
:1059bc00e34f500075013a0080cfb30050e8b700b8
:1059cc0000c0eb0051e8b70000c0eb0052e8b70094
:1059dc0000c0eb0053e8b7000040eb0054e8b70000
:1059ec000040eb0055e8b7000040eb0056e8b7006c
:1059fc00c0c0b30057e8b70000c0eb0058e8b700d0
:105a0c0000c0eb0059e8b70000c0eb005ae8b70043
:105a1c0000c0eb005be8b7000e089000006090003f
:105a2c000080fb000000e90070079800360037008a
:105a3c008e089000614090000081fb007140900046
:105a4c000080fb004800dd000200700000057800bb
:105a5c00014890000081fb00114890000080fb0081
:105a6c004800dd0002007000800578007e00900088
:105a7c006104b8008e089000415890000081fb0032
:105a8c00515890000080fb004800dd0002007000bf
