:020000040000fa
:080000000002040000000000f2
:020000040000fa
:10040000cfa920000e7f22000e018800000000000e
:100410000c000700a02b2200010020001f00070095
:10042000000020000000e000020032000000020096
:10043000000000003a1d0200000000000040da0049
:100440000000fe004440a900602820000000e000f9
:100450000300320000002000a00188004440a800f2
:1004600000000600f03fb1000180b1000600350039
:10047000ee03090000000000403fb1000180b10020
:10048000fbff3d001000b000203fb000020035002f
:1004900000800900000000000000060091018800b3
:1004a000800078000000eb0015003700e28040007b
:1004b00032a0b4009101ba00e280400032a0b40042
:1004c0009102ba00e280400032a0b4000002eb00ca
:1004d000472bde00f507b200602ce10004003a0073
:1004e0000059eb008301e900fdff3e0004003700e6
:1004f0006128e100010032000082eb0004000700e7
:100500001101ba000200e000e8ff3a000000060016
:100510003159ba008301e9000c0032002159ba00b8
:100520008301e900080032000400e00003003a0003
:10053000e280400032a0b400f5ff370011d9ba00c4
:100540008301e900faff3a008100e800e180400001
:1005500032a0b400000006000040da000000fe00f7
:100560006900e100040035006d00e1000300340083
:100570000002b1000100320000000500100005007b
:100580000a00fa0080017800e20f500028003e00c7
:10059000d0548000e10f500008003200802320007a
:1005a0000000e00005003200042320002523200085
:1005b0004623200080017800040037000422200038
:1005c0002522200046222000832220001440900093
:1005d0000004e000040035008009eb0014409000a6
:1005e0000074a00010429800154090000028a3005d
:1005f00003003a00154090000024a00090429800ab
:100600008001eb0007003700154090000008a300b0
:10061000fdff320063c078000000fb00000b780093
:100620008301e800828f5100f7ff3a00080037008d
:1006300030002000b0bf9f00c3bf9f00d1bf9f000c
:10064000e2bf9f006a80570000c0da006fb99700d0
:10065000020078000080fa0000000600020ab900db
:10066000001bb9000200b800810042008100430075
:1006700000000600889fbe008a9fbe008c1f780085
:10068000500107005701330003866c006450e100fd
:100690002e0032006420e100330032006150e1009e
:1006a0002f0032006120e1003100320085855500c5
:1006b000eb07b00009002000080420000500370007
:1006c0000804440089844c000a00310006034300fa
:1006d00087834b000001530081815b00f8ff3300ea
:1006e0000203be000800a0000804440089844c00f6
:1006f000f6ff3900c639dd008301730001003200c6
:10070000130020008904d1000884d3000998a300b5
:10071000050032000800a7000300a0008904d100f2
:100720000884d3008b05e8008904d1000884d30035
:100730000001eb000281d2003a01070001f0a100a4
:100740000cf0a70001f0a0002f0137006420e100a9
:10075000310132000801be000200be00f7ff370081
:100760006120e1002c0132006000b800f3ff370087
:100770000000200001f82700f0ff37000001be0054
:100780004e0107000470a70003f0a1006509b10045
:10079000160032000d0035006828e1000600350023
:1007a000f0ff2f00f1ff27000300e00013003b00e3
:1007b0000100280000000500000040008180480082
:1007c0008502e900fcff3a0008003700f88f42007c
:1007d00002003c008000eb00000005008100d10019
:1007e0000080d3008502e800fcff3a000300e0002f
:1007f00002003b0060001000e080180000000600ce
:100800000001be002d0107000470a70003f0a10045
:1008100003f8a30013003a006509b100100032008c
:10082000090035006928e1000200350001002800b8
:100830000000050000004000818048008502e900ba
:10084000fcff3a0000000600f88f4200050035006a
:100850008100d1000080d3008502e800fcff3a004f
:10086000000006008000eb00000005006022b800d8
:10087000060220000000d0008180d2000482d20055
:100880008582d2000000a0000202520083825a003a
:10089000030031000202420083824a000000a100ee
:1008a0000603e900f3ff3a0000000600efff07002f
:1008b0000400be0000000600040020001401370000
:1008c000889fbe008a9fbe008c1f7800bd00070075
:1008d000c400330003866c006450e1002400320041
:1008e0006420e100270032006150e1002200320064
:1008f0006120e100210032008b854200eb07b1004e
:100900000134b800003ab8000804420089844a0063
:10091000013ab8000030b8008880400009014a0060
:1009200004003300000040008180480002014900bb
:100930008b05e900c909dd00830170000100320068
:1009400013002000c814de004814dd004709de0053
:100950001200b200c808de0008847000b100070071
:1009600001f0a1000cf0a70001f0a000a6003700e4
:100970006120e100a80032000801be000200be00b4
:10098000f7ff37006150e100fcff3a00a20037009a
:10099000140020002d013700f4ff2f002b01370039
:1009a000889fbe008a9fbe00010578000100e0001c
:1009b0000400350008003c000000e0002000320088
:1009c0000500370060001000e080180002003b00c6
:1009d00001f02c001a0037000004be006011b800be
:1009e0006b0920000982cf00020039000882cf0085
:1009f0000441b000694252000e00320008003b0082
:100a000082817100610164008904d1000884d300ef
:100a10008b05e8000442e800f9ff3a0005003700c2
:100a20000804440089844c008b05e9000442e90075
:100a3000fbff3a007b0007000af0a70001f0a000ce
:100a40004f05be004f04be000000060003f0a200e8
:100a5000889fbe008a9fbe008c1f78005900070047
:100a6000600033006450e1004f0032006420e10078
:100a70005200320003826c0007003b000905d000e1
:100a80000306d000820f54000c065d0002003900fe
:100a90000200320089017800030678008582550043
:100aa00004003d000003fd008103fd008502ea0013
:100ab0008b854200840f720002003b006000100032
:100ac000e08018006011b8000005eb007a28e10012
:100ad0000a00390006007800c75ddd00f707b200a4
:100ae000878075002d003700828171000a0178002f
:100af000610560008180d1000080d3008502e9009b
:100b0000f9ff3b00060440008784480002003b00d8
:100b100060041400e0841c000988a3000700320070
:100b20008a81710082817100610164008904d100b1
:100b30000884d3008b05e800170037000978a3006c
:100b400013003a000b00e000130034008b05e900ad
:100b50000804440089844c000a4474000978a30006
:100b60000d003a000b00e000070034008b05e9009f
:100b70000804440089844c0001003a000b00200066
:100b80000978a300f7ff32000001eb0002003700f4
:100b9000828171000a017800220007000cf0a70092
:100ba00001f0a000180037006420e10002003a00c4
:100bb000838f6c00180033000801be000200be00e5
:100bc000110037000004be003c0007000003be0017
:100bd0000405be000200be0038000700844f750007
:100be000000006000200be006450e100050036006f
:100bf0006420e100020036000968a30001003a0009
:100c00000800be000160a0004f0678004f05be003e
:100c10004f04be0000000600f0ff2f00f1ff270088
:100c2000f9ff370081002000618055000b003d0076
:100c30000b00200061fe2f000100e1001d003400c8
:100c400082817100610164008904d1000884d300ad
:100c50000000e800faff3a00710020006100640023
:100c600003007000020060000900320061044400cb
:100c7000e0844c000988a500050032008b05e800df
:100c80006808e10002003a008904d1000884d3001a
:100c9000f20f20000258e10005003d00c75ddd00b5
:100ca000f907b2008980750008007800000006008e
:100cb0000bf827008b00780000000500c70ade0053
:100cc000f107b200f50fb20008003200e1cf420098
:100cd000020032000170a00024000500810f7000a6
:100ce000010032000408050044000500810f700077
:100cf00002003a00140005008502e90000004000ef
:100d000081c04800fcff3b000170a00024000500ea
:100d1000889fbe008a9fbe008c1f78004f26dd0092
:100d2000a8ff0700afff33006120e100430032005d
:100d30006250e10041003e003e0039006420e100c5
:100d40003c003200058255000f003b000402e80021
:100d500038003a00800f5300818f5b00350034006b
:100d60000800be0003f0a10001f0a60003f0a000ff
:100d70000cf0a70036ff0700a3ff3700060343006f
:100d800087834b000c4646000005530081855b00bd
:100d9000020033000a03be000c00a0000402e900b8
:100da000f6ff3b00850578000602430087824b0072
:100db00004003a006000b80009f0a70001f0a000ac
:100dc00091ff37000002520081825a000704e000c0
:100dd000040033000603430087834b008b05e900c2
:100de000faff3700090578000604be000203be00c2
:100df0006011b8008bff0700e00f5200e08f5a002f
:100e00000700350002003c000c08a300040032007b
:100e10000601be0003f0a0000cf0a7000cff0700c5
:100e20000a85680001f0a1000af0a70001f0a00007
:100e300075ff37000800be0073ff37001002200066
:100e40000cf0a600104d880073ff3700889fbe008d
:100e50008a9fbe00841f78005aff07004f00780069
:100e600011003300f0ff2f00838f6c0006003b0061
:100e7000040565000a00a7000800370009f0a60075
:100e80001000200008003700820f5400838f5c00a0
:100e9000030039001000200001003e000000200087
:100ea00009f0a7000000ea004f05be004f04be0095
:100eb0000000e00000000600881f780000047800b1
:100ec0005001be004000be00040040008580480084
:100ed0000601490087814900009cbe000294be00c3
:100ee0000400e1000588e1000690e1000798e100b8
:100ef00002003100680044001008e8004f04780048
:100f000000000600f4874700889fbe008a9fbe004d
:100f10008c9fbe008e1f78000205be000004be003c
:100f2000d4b79f00e5b79f00f6b79f0087bf9f002b
:100f30000000eb00c0b79f00b0b79f00a0b79f00b4
:100f400090b79f0080b79f000d042000bfb09700ae
:100f50004fb09700000140000000e0000f003d008e
:100f60004f08de0000007100c0b79f009e00070020
:100f700001003d0012002000a100070001003d001b
:100f800012002000a6000700b1000700b60007000d
:100f90000f004000c8ff0700220037004f08de00a6
:100fa00000067100ccb79f008f00070001003d00d4
:100fb000120020009200070001003d0012002000f6
:100fc00097000700a20007000fb297009fb297009a
:100fd0002fb39700bfb39700a9000700000052008d
:100fe00081805a0002015b0083815b0080b79f0013
:100ff00091b79f00a2b79f00b3b79f000007eb0017
:101000009f0007000020e10001a8e10002b0e1001c
:1010100003b8e100010031001e0020000e00560060
:10102000c0b79f004fb297000400e00007003500f2
:1010300010002000010020006011b80008047000ba
:10104000898470000a0571008b8571008d06e900a6
:10105000beff3a000400e00003003d0082000700ec
:101060000f00400094ff07004fa897000000e00029
:1010700004003a000fb497009fb497002fb5970073
:10108000bfb59700940007004f0778004f06be00d9
:101090004f05be004f04be004f01b1000000060026
:1010a000881f780018002000881f780095ff07002f
:1010b0008f87e9004f04780000000600801feb00d6
:1010c00090ff07008f87e90000000600889fbe00a0
:1010d0008a9fbe008c1f78006e00070007003d004d
:1010e00073000700e00f5b00e08f5b0007003d002e
:1010f000320007000006eb00040037003400070050
:1011000002003d002a0007001c00200072000700ba
:10111000e3ff07000203be000002be000c00e00077
:1011200001003200220007000400be000601be00dc
:101130004f0678004f05be004f04be0000000600b9
:10114000889fbe008a9fbe008c1f78005100070058
:1011500005003d0056000700e00f5b00e08f5b00dc
:1011600006003d00040037001900070003003d00a1
:101170006000b8006011b8001000070056000700ba
:10118000ceff07000203be000002be000c00e0001c
:1011900001003200060007000400be000601be0088
:1011a0004f0678004f05be004f04be000000060049
:1011b0006000b8006011b800000037000402500061
:1011c00085825800060359008783590000000600f5
:1011d0000006eb00e00f5200e08f5a00e00f5b00ca
:1011e000e08f5b00000006000180400090b79f0088
:1011f0000001eb008fb097000100e0000000060046
:101200000200700090b79f000180400080b79f00ef
:101210000001eb00ffa897000100e00000000600bd
:101220000200700080b79f00018040006faa970005
:10123000cf20de0001007000f0af9f0004024200ea
:10124000250007004f18de000002720000000600b3
:10125000e4af9f000804440089844c000a054d0057
:101260008b854d00000006003fb29700cfb297007b
:101270005fb39700efb3970000fe2f000000060059
:101280003fb09700cfb097005fb19700efb19700e4
:10129000000006000205be000004be00e00f500082
:1012a000e08f5800e00f5900e08f59000000060061
:1012b0006000b8006011b80008045000898458002c
:1012c0000a0559008b8559001c002000e00f5200d0
:1012d000e08f5a00000006000800be000a01be00b0
:1012e000000006000c00fa00889fbe000004780091
:1012f000cfb09700f0ff2700d0bf9f008004eb0025
:1013000099bf9f0088bf9f00a8bf9f00200c2000ae
:10131000b0bf9f0078815700708057008f01070091
:101320000fb89700094878000fb8970008045000dc
:10133000080078004f04be000080fa00000006009c
:10134000800078003004e000feff3a000100500009
:101350000000e90000000600889fbe000004be00f7
:101360000d00370009007800f5ff07000001780044
:101370000800be002e0407000000e00002003a0052
:1013800008007800090037009900fb000800e80019
:1013900008000700000478000800e00002003200a6
:1013a0001804e000efff3a000000eb004f04be001d
:1013b0000000060010417800814f51000400320007
:1013c0000000e8000204e000faff3a000000eb0031
:1013d00000000600e6874700889fbe008a9fbe0087
:1013e0008c9fbe008e1f7800000478008106780074
:1013f0000100e00003003200800e78000100370099
:101400000804e800984478000900fb0054fc070039
:10141000800078000000e000f9ff3a00d0c2b3007d
:1014200080cf540003003a000804e8001bc0b3005a
:1014300005003700b0c2b30080cf540001003a006d
:101440000804e800814578000005eb000a077800f1
:101450006000b800f0b79f0081bf9f000b48a30059
:1014600005003a00e0c2b300984f100002003a00b5
:101470000b44a0001e003700984478000900fb00d0
:101480000cfd2f000c004000e90f50001a003e0038
:101490000b14a0000b00fb00e90f550011003200f7
:1014a0000048a300010032000e07e9000a05e80029
:1014b000a2002000030020007fb097008fb89700a3
:1014c00066fc07000cc144000281fb000300200001
:1014d0000000410081804900f0b79f0081bf9f005c
:1014e000030037000048a30001003a000e07e8009f
:1014f0000804e800d9ff370050c6b30080cf54007d
:10150000040032000002eb0050c4b30080cf54004e
:1015100032003a008801e80093407800d0c2b3005e
:1015200080cf500002003a000b34a00003003700c7
:10153000b0c2b30080cf500003003a008881e800b9
:10154000010037008301e8009340780006c3b30030
:1015500086cf5000fbff32000100fb0005fd2f008d
:1015600005004000e90f5000030036000304780036
:101570000002eb001600370006c050000082fb009e
:101580000304e800184178000200fb000500400059
:10159000e90f50000e003e006a20b90006415100dc
:1015a0000281fb00000241000384e80098407800bb
:1015b0000100fb0005004000e90f500004003e0060
:1015c0006a21b90006c050000080fb000202400002
:1015d0000b38a300010032000402ea0004054700b2
:1015e0000d00e000030032000b18a30001003200e0
:1015f000880e78007fb097008fb89700e8fc07004e
:101600000004be000006be006011b800e0fc070048
:101610006011b8000000e0005900320030f82f00df
:10162000800f550003003d0020022000104d88006f
:101630005300370000082000800f55000a003400d6
:1016400020022000104d88000b08a3000300320088
:101650000200200003f82f0049003700020020009c
:1016600003f82700460037000a00e0001c003d0098
:101670000a05ea0006003700922f200053012500da
:101680000800be00fbfb07000004be006a05550011
:10169000e90f5500f8ff3c000006eb00060037009c
:1016a00002002000031224000800be00f1fb070026
:1016b0000004be000c06e8008a0f5600f8ff3a004e
:1016c0000806be0002002000030820000800be003b
:1016d000affc07000000e00025003d001c003700c3
:1016e0000a00e00007003c0021003700922f200094
:1016f000530125000800be0071fc07000004be0075
:101700006a055500e94f5500f8ff3e000006eb0062
:101710000600370002002000031224000800be006b
:1017200067fc07000004be000c06e8008a0f5600a4
:10173000f8ff3a000806be00f2ff2f00f3f727007b
:101740000800be0094fc07000000e0000800340020
:101750000b08a30003003200020020000308280049
:1017600007003700020020000308200004003700b3
:101770000b08a300010032000df0a2000c01be0016
:101780000200be004f0778004f06be004f05be00a6
:101790004f04be006f00b100000006008000eb00a7
:1017a0000cff37000001780000c2b30001003700d1
:1017b0000201e8009240780080cf5000fcff320028
:1017c000e9cf5000faff3200d0c2b30080cf500002
:1017d00003003a000201e80014c0b300050037001e
:1017e0000042eb00b0c2b30080cf500001003a00cd
:1017f0000201e8008000eb0005fd2f000400370027
:101800006a08b90000804100850040000201e8003c
:101810009201fb0005804100e90f5000f8ff3600ff
:101820000404e000010032008100ea0001007800b9
:1018300000000600000378008002780002027800b1
:101840008001eb00080037000402e90063c0780063
:10185000805a78008301e8000004e00002003a00aa
:101860008000eb0006003700828f5100f6ff3a003f
:10187000fbff37000040eb0080f07a008100e800b9
:10188000848f5000fbff3a0006007800000006003d
:101890000002780081017800010078001100090041
:1018a0000280d8008400e8000000e000020032005e
:1018b00001027800f9ff37008048eb0011000900b1
:1018c0008281d8008000fd0081017800e94f50003e
:1018d000010034006740400005c3b30005524000da
:1018e0000100e000f5ff3a00040078000000060067
:1018f000881f7800000478000100e0000200350035
:10190000800178000400370080017800d0c2b30065
:10191000805978008100ea0003007800dcff0700ae
:10192000080078004f04780000000600800178006d
:1019300000017800010037000201e8001204e00015
:10194000fdff3a0031407800005978000004e000c3
:10195000fcff3a000300780000000600fe87470005
:10196000889fbe008a9fbe008c9fbe008e1f78009d
:10197000f0b79f000107780082bf9f000000eb00d6
:10198000a0b79f009f0237008006eb0050c2b30053
:1019900080cf5000090032000100fb00ffb097002b
:1019a000b4020700e10f400096023200afb097008a
:1019b0008100e800a1b79f00920237009e407800a6
:1019c000d0c2b30080cf50000c00320007003c00b2
:1019d0006d40500080cf50000a0032006b40400044
:1019e00080cf50000e003a000800370000c3b3005b
:1019f00080cf50000a003a00060037000d30a000ea
:101a0000050037000d00a000030037000d10a000f6
:101a1000010037000d20a0000e07e800e7ff3700a7
:101a20000d18a300010032000d00a1000d38a30025
:101a3000010032000d20a1000100fb0002fd2f007b
:101a400002004000e90f50000e003e000002eb00d3
:101a5000c4b79f0082017800cfb297006a28b9000e
:101a60001e01fb000001410003014100c2b79f00bd
:101a70005e00fb0003004000e90f50000b003e0039
:101a8000f5ff37000006eb00ccb79f00a0c2b30003
:101a900080cf500005003a000fb89700c0007800d2
:101aa00080bf9f00c1b79f000e07e8000001eb0058
:101ab000b2b79f00e0c2b3009e4f100018003a007a
:101ac0000de0a0008e00e80064405000914f10002f
:101ad00002003200010778000c0037000fba9700af
:101ae000c402780084bf9f00b5b79f000e87e8004e
:101af0000b0037003fb697006a60b9000000410054
:101b000003004000b0b79f000e07e8001e01fb0075
:101b100003fd2f0003004100e90f5000f5ff3600e0
:101b2000be407800e1d79f00c0c6b30080cf500010
:101b3000220032000f003c006940500080cf50006e
:101b40007700320004003c000104e0003102320062
:101b50006b4050000f00370040c6b30080cf5000ec
:101b6000930032006540400080cf50008b003a0067
:101b70008f00370030c7b30080cf50001a0032000a
:101b800007003c006440500080cf5000110032003c
:101b90000040e80080cf500080003a000f0037007e
:101ba00050c7b30080cf5000800032006340400037
:101bb00080cf500079003a0009003700000028006b
:101bc0000d48a30001003a00000120008086760045
:101bd000d3ff37000d60a000750037000d50a00046
:101be0000d70a000720037008fb897004100780098
:101bf00081bf9f00000478000000e00001003a006f
:101c000048a420008004eb00010037008104e800b4
:101c100089007800088044001004e000fbff3a00cf
:101c20003fb197000200e00003003200890f51002d
:101c300001003100820478000002eb00e4af9f0055
:101c4000cfb29700898f52000200360009805200ff
:101c5000e0af9f004368de00e10660001b003a0031
:101c60000d06780009003700ffb097000002200041
:101c700000020700e10f4000030032002fb0970080
:101c80000000e800a0b79f000c06e800efa897004e
:101c9000810f5600f4ff3a000081eb00e2af9f0095
:101ca0000a003700880078003100fb00010478004a
:101cb000ffb09700ef010700e10f40000300320082
:101cc0002fb297000402e800a4b79f000900e900c2
:101cd00080047800e10f4000f2ff3a000006eb00bc
:101ce0000d00e0000a003a00c6013700ffb097007f
:101cf00000022000df010700e10f40000300320076
:101d0000afb297008502e800a5b79f000c06e80077
:101d10006fa89700800f5600f4ff3a00b901370012
:101d20008fb897004100780081bf9f00cf80de0010
:101d300001017800820178000205be000004be00a7
:101d40000203be000002be004822de00482edd0075
:101d500004027600e4d79f000d48a3000a00320079
:101d60000404e00008003200e14f420006003200a7
:101d700071fd2f000180470004487800184098004a
:101d80002900200002003700f0d79f001900200032
:101d900072fd2f0002844700a1ff370064fd2f0071
:101da00004844700190020009dff37000d0cb3008c
:101db0000d007800000cb20028003a000d00e00091
:101dc00005003d008fba97004505be004504be00e2
:101dd00085bf9f00140037000d48a3000b003200a0
:101de0000fbe97004c00be008cbf9f004f89de00e5
:101df000cf91de000002be0002037800820378006b
:101e00000605be000404be00070037008fb8970027
:101e10004100780081bf9f0000047800cfc4de003d
:101e2000090578008a057800e00f5400e08f5c0017
:101e3000e00f5d00e08f5d001f003d003d00b3003e
:101e40006000b8006011b800080450008984580090
:101e50000a0559008b855900170037000d00e00076
:101e600005003d000fb997004205be004204be00c8
:101e700082bf9f00100037000d48a300070032000a
:101e80000fba97004400be0084bf9f006011b800e5
:101e90000205be000004be00070037008fba97009d
:101ea0004500780085bf9f000004780009002000ed
:101eb0000a0020000b0020003fb697000c00e00055
:101ec00007003a00e00f5400e08f5c00e00f5d0077
:101ed000e08f5d0002003a0010002000b0b79f00c4
:101ee0008d007800010cb200e1b79f0000042000d3
:101ef000808f50003000320003003c000100e00001
:101f00000800320040003700000820006fb1970041
:101f1000800f510014003200000c2000800f51008f
:101f200039003a0014c0b300459a20000b00370076
:101f30000400fb004300dd00050040005001be002e
:101f40004000be000040e10001c8e10002d0e10015
:101f500003d8e1002b0039000442e800f44f52009e
:101f6000f3ff3a00270037000001200001002000a5
:101f70006011b80014c0b3000040e10001c8e100e6
:101f800002d0e10003d8e1001e0039004500200026
:101f90000000d0008180d2000281d2008381d20073
:101fa0008502e900faff3a000442e800f04f5200cf
:101fb000f1ff3a00130037008000200001002000ec
:101fc0006011b80014c0b3000040e10001c8e10096
:101fd00002d0e10003d8e1000a0039003c002000f3
:101fe0000000d0008180d2000281d2008381d20023
:101ff0000c06e900faff3a000442e800f54f5200ef
:10200000f1ff3a00e4d79f00efd097000100fb00fa
:102010003fb19700820f500002003d00e2d79f00c1
:10202000040037003fb29700800f520001003d00ce
:10203000b0b79f00cfb297000500e0000400320067
:1020400063806600020032008502e900c5b79f0088
:102050000de8a3000b0032004fb697003fb0970089
:10206000800f560003003c008000eb00c1b79f00ca
:10207000040037004fb197003fb2970004015100b0
:10208000c2b79f00efd297000500fb000006eb00ef
:10209000dcaf9f00cfb09700808f5000020034006b
:1020a00000805000d0af9f000d28a3003700320001
:1020b000e18066000d18a3000c003200d002200061
:1020c0000100e00001003a000080e900ffb0970045
:1020d000e8000700e10f40000e0032002fb197002a
:1020e0000201e800a2b79f000a0037000100e000eb
:1020f00008003200ffb0970000022000dd0007005a
:10210000e10f4000030032002fb297000402e80004
:10211000a4b79f00dfaa97000500e0000f0032007f
:102120000006eb00ffb0970000032000d10007007d
:10213000e10f4000030032002fb097000000e800dc
:10214000a0b79f000c06e800dfa89700810f56009b
:10215000f4ff3a000001eb00d2af9f003fb29700be
:10216000c320dd00c09920008080400091b79f000f
:102170004220dd006400500080b79f006320b9005a
:10218000f0af9f006306500084003700dfaa97007d
:102190000500e00011003200688066000f003a0080
:1021a00000067800ffb0970000022000b100070091
:1021b000e10f4000030032002fb097000000e8005c
:1021c000a0b79f000c06e800dfa89700810f56001b
:1021d000f4ff3a000001eb00d2af9f00e1806600ff
:1021e0000d18a3000c003200d00220000100e00016
:1021f00001003a000080e900ffb097009d00070051
:10220000e10f4000d5ff32002fb297000402e80032
:10221000a4b79f00d1ff37000100e000cfff3200dc
:10222000ffb097000002200092000700e10f40007d
:10223000caff3200afb297008502e800a5b79f0041
:10224000c6ff370000042000efb09700808f5000d9
:102250003100320003003c000100e00008003200c1
:102260003e003700000820006fb19700800f51003a
:1022700011003200000c2000800f510037003a009e
:102280001fb097003002be002003be000800be0051
:102290000a01be0082fb0700a40020000500200008
:1022a0006033b80085fb070004c3b300044240005c
:1022b000e4d79f0029003700b5a42000d5b79f00c0
:1022c0000d58a30002003a00c0a52000d0b79f001f
:1022d00014002000050020006033b8008fb0970084
:1022e0008100e900050033000402d0008582d2009d
:1022f0000683d2008783d200f9ff37000800be00b2
:102300000a01be0066fb07006f0060005fb1970026
:102310006240780010003700140020000500200003
:102320006033b8000c0078000000e90005003300bd
:102330000402d0008582d2000683d2008783d200b7
:10234000f9ff37000800be000a01be0054fb070079
:10235000674060000043b000e0d79f00efd09700d7
:102360000100fb00ffb0970042000700e10f4000b2
:10237000030032002fb197000201e800a2b79f00ce
:102380001fb297006802520094b79f008fb2970067
:10239000e482520085b79f0063065600d0ff2f00ed
:1023a0003fb197000090b9007faa9700000042005b
:1023b00063005000800f5600a2ff3a000d38a300c2
:1023c00010003200dfaa97000500e0000d00340085
:1023d0000006eb00ffb09700000220002500070078
:1023e000e10f4000030032002fb097000000e8002a
:1023f000a0b79f000c06e800dfa89700810f5600e9
:10240000f4ff3a00be407800e1d79f000104e000ed
:102410005dfd3a002fb097004f0778004f06be00d1
:102420004f05be004f04be00ef01b10000000600e2
:10243000810178000002eb000b003700e4407800d7
:102440000104e000030032000402e80093cf5000d2
:10245000040032008180fb001380fb0000805000ec
:10246000000006008301e800820f5200f3ff3a00eb
:1024700000000500889fbe0000017800010478007c
:10248000b10090000118a3003d0032000198a300a4
:1024900003003a00180090000000e00038003a0005
:1024a0000190a0003104980082047800f90fb20076
:1024b000180090000000e00002003a0028009000a0
:1024c000000c7800ea8f540006003a0038009000b3
:1024d0000078a30003003a0088007800d0002000b4
:1024e000e4ff07009800900058009000808f500093
:1024f0000b0032000100e80010049800180078007a
:1025000009587800000c780011c0b30080a92000a1
:1025100001487800ea8f54000600320019003700a5
:1025200088007800094078001900070080047800ce
:1025300014003700380090000088a300110032001a
:1025400018019000a8009000480090000cf80700c7
:1025500098009000810f5000040032003800900075
:102560000003b300300498008084eb000000eb000f
:102570001004980028009000000c7800010037003b
:102580008084eb00090078004f04be0000000600c4
:102590000200fa00889fbe00a0ff9f00010478009f
:1025a000b1009000810478000904b20002003200fa
:1025b0000000fb00360037000118a30005003a00b8
:1025c0000103b30031049800190498000080eb0067
:1025d0002f003700580090000000e00006003a008d
:1025e0004800900012002000e6805700e4f7070042
:1025f0001904980024003700280090000000e00033
:1026000008003a0040a9200020049800000c78003f
:102610002000200050049800100498000130a00011
:102620003104980018019000a80090004800900024
:10263000d3f7070028009000000c78000080eb0022
:102640001004980018007800aff89700015878003f
:10265000000c78002ff89700ea4f50000a003a006b
:10266000380090000088a300070032001801900095
:10267000a800900048009000c1f7070019049800d6
:10268000a8009000010c7800aff897000100fb0053
:0c2690004f04be000080fa0000000600ad
:020000040000fa
:020000040001f9
:0457f800dff90000d5
:020000040000fa
:020000040001f9
:0457fc007f3f0000eb
:020000040000fa
:10000800ac020000ac020000ac020000ac02000030
:10001800ac020000ac020000ac020000ac02000020
:10002800ac020000ac020000ac020000ac02000010
:10003800ac020000ac020000ac020000ac02000000
:10004800ac020000ac020000ac020000ac020000f0
:10005800ac020000ac020000ac020000ac020000e0
:10006800ac020000ac020000ac020000ac020000d0
:10007800561c0000ac020000ac020000ac020000fc
:10008800ac020000ac020000ac020000d21c000070
:10009800ac020000ac020000a61c0000ac0200008c
:1000a800ac020000ac020000ac020000ac02000090
:1000b800ac020000ac020000ac020000ac02000080
:1000c800ac020000ac020000ac020000ac02000070
:1000d800ac020000ac020000ac020000ac02000060
:1000e800ac020000ac020000ac020000ac02000050
:1000f800ac020000ac020000ac020000ac02000040
:10010800ac020000ac020000ac020000ac0200002f
:10011800ac020000ac020000ac020000ac0200001f
:10012800ac020000ac020000ac020000ac0200000f
:10013800ac020000ac020000ac020000ac020000ff
:10014800ac020000ac020000ac020000ac020000ef
:10015800ac020000ac020000ac020000ac020000df
:10016800ac020000ac020000ac020000ac020000cf
:10017800ac020000ac020000ac020000ac020000bf
:10018800ac020000ac020000ac020000ac020000af
:10019800ac020000ac020000ac020000ac0200009f
:1001a800ac020000ac020000ac020000ac0200008f
:1001b800ac020000ac020000ac020000ac0200007f
:1001c800ac020000ac020000ac020000ac0200006f
:1001d800ac020000ac020000ac020000ac0200005f
:1001e800ac020000ac020000ac020000ac0200004f
:0801f800ac020000ac020000a3
:020000040000fa
:10020800ac020000ac020000ac020000ac0200002e
:10021800ac020000ac020000ac020000ac0200001e
:10022800ac020000ac020000ac020000ac0200000e
:10023800ac020000ac020000ac020000ac020000fe
:10024800ac020000ac020000ac020000ac020000ee
:10025800ac020000ac020000ac020000ac020000de
:10026800ac020000ac020000ac020000ac020000ce
:10027800561c0000ac020000ac020000ac020000fa
:10028800ac020000ac020000ac020000d21c00006e
:10029800ac020000ac020000a61c0000ac0200008a
:1002a800ac020000ac020000ac020000ac0200008e
:1002b800ac020000ac020000ac020000ac0200007e
:1002c800ac020000ac020000ac020000ac0200006e
:1002d800ac020000ac020000ac020000ac0200005e
:1002e800ac020000ac020000ac020000ac0200004e
:1002f800ac020000ac020000ac020000ac0200003e
:10030800ac020000ac020000ac020000ac0200002d
:10031800ac020000ac020000ac020000ac0200001d
:10032800ac020000ac020000ac020000ac0200000d
:10033800ac020000ac020000ac020000ac020000fd
:10034800ac020000ac020000ac020000ac020000ed
:10035800ac020000ac020000ac020000ac020000dd
:10036800ac020000ac020000ac020000ac020000cd
:10037800ac020000ac020000ac020000ac020000bd
:10038800ac020000ac020000ac020000ac020000ad
:10039800ac020000ac020000ac020000ac0200009d
:1003a800ac020000ac020000ac020000ac0200008d
:1003b800ac020000ac020000ac020000ac0200007d
:1003c800ac020000ac020000ac020000ac0200006d
:1003d800ac020000ac020000ac020000ac0200005d
:1003e800ac020000ac020000ac020000ac0200004d
:0803f800ac020000ac020000a1
:020000040000fa
:10269c00000000000000000000000000005f0000cf
:1026ac0000000000000700000007000000140000fc
:1026bc007f1400007f140000242a00007f2a0000f1
:1026cc001223000013080000646200003649000069
:1026dc00552200005000000005030000000000001f
:1026ec00001c0000224100000000000041220000fc
:1026fc001c000000140800003e0800001408000034
:10270c00083e0000080800000050000030000000e7
:10271c000008000008080000080800000060000025
:10272c0060000000002000001008000004020000ff
:10273c003e510000494500003e000000427f000071
:10274c004000000042610000514900004621000099
:10275c00414500004b31000018140000127f0000ae
:10276c001027000045450000453900003c4a000098
:10277c004949000030010000710900000503000008
:10278c00364900004949000036060000494900005e
:10279c00291e00000036000036000000000000007a
:1027ac005636000000000000081400002241000012
:1027bc000014000014140000141400000041000068
:1027cc00221400000802000001510000090600005c
:1027dc0032490000794100003e7e000011110000da
:1027ec00117e00007f49000049490000363e000080
:1027fc0041410000412200007f41000041220000c5
:10280c001c7f000049490000494100007f0900007d
:10281c0009090000013e000041490000497a00000e
:10282c007f080000080800007f000000417f0000c6
:10283c004100000020400000413f0000017f0000eb
:10284c0008140000224100007f40000040400000be
:10285c00407f0000020c0000027f00007f0400009b
:10286c00081000007f3e000041410000413e000086
:10287c007f09000009090000063e000041510000dc
:10288c00215e00007f090000192900004646000067
:10289c004949000049310000010100007f0100009e
:1028ac00013f000040400000403f00001f2000009e
:1028bc00402000001f3f000040380000403f000057
:1028cc006314000008140000630700000870000087
:1028dc00080700006151000049450000430000005a
:1028ec007f410000410000000204000008100000bd
:1028fc0020000000414100007f00000004020000a5
:10290c000102000004400000404000004040000074
:10291c0000010000020400000020000054540000dc
:10292c00547800007f480000444400003838000010
:10293c004444000044200000384400004448000097
:10294c007f3800005454000054180000087e00002a
:10295c0009010000020c000052520000523e00001f
:10296c007f0800000404000078000000447d000093
:10297c004000000020400000443d0000007f0000ab
:10298c001028000044000000004100007f400000bf
:10299c00007c000004180000047800007c08000093
:1029ac00040400007838000044440000443800005f
:1029bc007c1400001414000008080000141400001b
:1029cc00187c00007c08000004040000084800008b
:1029dc005454000054200000043f00004440000008
:1029ec00203c000040400000207c00001c20000027
:1029fc00402000001c3c000040300000403c000027
:102a0c004428000010280000440c00005050000026
:102a1c00503c000044640000544c00004400000092
:102a2c000836000041000000000000007f0000009c
:102a3c0000000000413600000800000010080000f3
:102a4c00081000000878000046410000467800009d
:102a5c00416300007175000069720000696e00002e
:102a6c006720000020470000505300000046000083
:102a7c00697800003a200000253500006420000031
:102a8c0073610000740000004c6f00006e3a00008f
:102a9c002025000039730000004c00006174000018
:102aac003a2000002539000073000000416c000042
:102abc00743a00002025000035640000202000003e
:102acc00206d000000530000706400003a200000ec
:102adc002535000064200000206b0000740000000d
:102aec00486400006e3a00002025000035640000a8
:102afc00206400006567000000200000202000001a
:102b0c0025320000642f000025320000642f0000e5
:102b1c00253200006420000020200000002000006e
:102b2c002020000025320000643a0000253200000d
:102b3c00643a0000253200006420000020200000d0
:102b4c000020000020200000202000002020000099
:102b5c002020000020200000202000002000000089
:102b6c004f76000065720000726100006e67000015
:102b7c00650d00000a00000030300000300000003d
:102b8c00244700005047000047410000002400008b
:0c2b9c0047500000524d000043000000b4
:020000040000fa
:102ba8000400fa00004f780090c3b3009e4f100055
:102bb80005003c0000cdb3001e4040000080fb0033
:102bc800100798000a00370060c4b3009e4f100039
:102bd80005003c0090ccb3001e4040000080fb0084
:102be80010079800020037000000eb00100798005b
:102bf8001e0090000080fa00000006002000fa0085
:102c0800881f7800600f98006e089000caf90700c6
:102c1800800078006e08900000804000640050003a
:102c280090407800a0c2b30080cf50002e003a0038
:102c38006e089000c0f90700800078006e089000c8
:102c4800008040006300500010407800d4ff070067
:102c58000080fb004400dd00500f98006e089000d3
:102c6800b5f90700800078006e08900000804000e9
:102c78000080e90010407800c9ff07008080fb0051
:102c88005e08900001004000500f980010c0b3008b
:102c9800005f98000d0037000e5890000080fb0080
:102ca800800078006e089000008040001040780096
:102cb8008000fb005e08900001006800500f98003b
:102cc8000e5890000040e800005f98000e589000f1
:102cd8000084fb006e08900097f90700640050001c
:102ce800800f5400ecff3900615c29006e089000e9
:102cf80097f907000000e000b40032006e08900069
:102d0800300f9800c10220003e089000a7f9070084
:102d18000000e800300f98003e0890009dfa070078
:102d2800100f9800210f98001e089000ae08900020
:102d3800b1f6070070079800010f98007e00900018
:102d48008e0890000271220003002000c5f60700db
:102d580050e8b7007e0090008e08900002712200b3
:102d680003002000cff607004206200003002000e1
:102d7800bcf6070051e8b7007e0090008e0890006e
:102d88004206200003002000c6f6070052e8b700fc
:102d98000200200003f823001e089000ae089000ef
:102da800c3f6070002002000a3472400c2f607006c
:102db80091f60700b0428800c10220003e0890004a
:102dc8007af907000000e800300f98003e089000ec
:102dd80070fa0700c0428800d1428800c102200072
:102de8003e08900071f907000000e800300f9800d5
:102df8003e08900090407800e0c4b30080cf5000b7
:102e080003003a00e0c4b30078e8b70013003700c5
:102e18003e0890009040780030c5b30080cf500045
:102e280003003a0030c5b30078e8b7000b0037005c
:102e38003e08900090407800c0c2b30080cf500098
:102e480003003a000040eb0078e8b70003003700c1
:102e58000000eb00700f98002c013700c102200021
:102e68003e08900051f907000000e800300f980074
:102e78003e08900047fa0700e0428800f1428800c7
:102e8800c10220003e08900048f907000000e80051
:102e9800300f98003e0890009040780070c5b3004d
:102ea80080cf500003003a0070c5b30079e8b7003e
:102eb800130037003e0890009040780050c4b300db
:102ec80080cf500003003a0050c4b30079e8b7003f
:102ed8000b0037003e08900090407800c0c2b30055
:102ee80080cf500003003a000040eb0079e8b700bb
:102ef800030037000000eb00700f98000301370053
:102f0800c10220003e08900028f907000000e800f0
:102f1800300f98003e08900020fa07007ce8b700c0
:102f2800c10220003e08900020f907000000e800d8
:102f3800300f98003e08900018fa07007de8b700a7
:102f4800c10220003e08900018f907000000e800c0
:102f5800300f98003e0890000efa0700a043880042
:102f6800b1438800c10220003e0890000ff9070015
:102f78000000e800300f98003e08900005fa0700ae
:102f88002043880031438800c10220003e08900099
:102f980006f907000000e800300f9800c102200081
:102fa8003e08900001f907000000e800300f980083
:102fb8003e089000f7f90700004388001143880095
:102fc80010002000700f9800d0003700d15c290055
:102fd8006e089000def807000000e000c90032002b
:102fe8006e08900060079800c10220006e009000f3
:102ff800eef807000000e800600798006e009000f7
:10300800e4f9070040079800510798004e00900027
:10301800de009000f8f507002007980031079800b7
:103028002e009000be0090000271220003002000d4
:103038000cf6070050e8b7002e009000be00900084
:10304800027122000300200016f607004206200045
:103058000300200003f6070051e8b7002e00900097
:10306800be00900042062000030020000df6070075
:1030780052e8b7000200200003f823004e00900039
:10308800de0090000af6070002002000a347240093
:1030980009f60700d8f50700b0428800c1022000f1
:1030a8006e009000c1f807000000e8006007980073
:1030b8006e0090009040780010c4b30080cf50009c
:1030c80003003a0010c0b3007be8b7000b003700dc
:1030d8006e0090009040780060c5b30080cf50002b
:1030e80003003a000040eb007be8b700030037001c
:1030f8000000eb00700f980084003700c102200028
:103108006e009000a9f807000000e800600798002a
:103118006e0090009ff90700c0428800d1428800e5
:10312800c10220006e009000a0f807000000e8002f
:10313800600798006e00900090407800e0c4b300eb
:1031480080cf500003003a00e0c4b30078e8b7002d
:10315800130037006e0090009040780030c5b3002f
:1031680080cf500003003a0030c5b30078e8b700bc
:103178000b0037006e00900090407800c0c2b3008a
:1031880080cf500003003a000040eb0078e8b70019
:10319800030037000000eb00700f98005b00370059
:1031a800c10220006e00900080f807000000e800cf
:1031b800600798006e00900076f90700e0428800ea
:1031c800f1428800c10220006e00900077f80700e5
:1031d8000000e800600798006e00900090407800ba
:1031e80070c5b30080cf500003003a0070c5b3002b
:1031f80079e8b700130037006e009000904078001f
:1032080050c4b30080cf500003003a0050c4b3004c
:1032180079e8b7000b0037006e0090009040780006
:10322800c0c2b30080cf500003003a000040eb005a
:1032380079e8b700030037000000eb00700f980032
:1032480032003700c10220006e00900057f80700d6
:103258000000e800600798006e0090004df9070034
:103268004043880051438800c10220006e0090004e
:103278004ef807000000e800600798006e00900014
:1032880044f907006043880071438800c1022000a8
:103298006e00900045f807000000e80060079800fd
:1032a8006e0090003bf9070053f50700008fbe0041
:1032b8001e00be00027122000300200069f507000d
:1032c80055e8b7001e00be0002712200030020006e
:1032d80074f50700420620000300200061f507008e
:1032e80054e8b7001e00be0042062000030020007c
:1032f8006cf5070053e8b70010002000700f980025
:10330800020037000000eb00700f98007e08900064
:103318004f0478000080fa00000006000400fa005c
:103328000040eb00004f78007ec8bf000004e000ba
:10333800030032001e00fb0010079800420037000f
:1033480032c2bf00614060000004e00003003a00a0
:103358001e00fb00100798003b003700b0118000ea
:10336800004f780040c2b3009e4f100009003a0099
:10337800a0c9bf000080fb0080007800804b80005f
:10338800808040000040eb00804878000040eb005f
:10339800a0e9b700a0c0b3009e4f100018003a0083
:1033a800a0c9bf000080fb0080007800804b80002f
:1033b800808040000040eb0080487800814b80000e
:1033c800f0872000808f500005003a00708f2000a1
:1033d800804b8800f0872000904b8800040037005d
:1033e800f0872000804b8800708f2000904b880069
:1033f8000040eb00a0e9b70010c0b30074e9b700c3
:10340800029a2000124178000280fb0080007800b8
:10341800804b8000008040001e4878000240e80091
:10342800a0e9b700019a20009140780070c7b30066
:1034380080cf50000200360070c7b300a0e9b70083
:103448001e00fb00100798001e0090000080fa0084
:10345800000006000000fa000040eb0074e9b70025
:103468000040eb007ee8b7000040eb00a0e9b700a1
:10347800f0872000804b8800708f2000904b8800d8
:103488000040eb007de8b7007dc8bf007ce8b700ce
:103498007cc8bf0055e8b70055c8bf0054e8b7005e
:1034a80054c8bf0053e8b70053c8bf0052e8b7007c
:1034b80052c8bf0051e8b70051c8bf0050e8b70074
:1034c8000040eb007ae8b7007ac8bf0079e8b70097
:1034d80079c8bf0078e8b7000040eb007be8b70088
:1034e8000000eb00b04288006000b800a0438800ec
:1034f800b1438800a0438000b14380008043880026
:103508009143880080438000914380006043880095
:103518007143880060438000714380004043880005
:103528005143880040438000514380002043880075
:1035380031438800204380003143800000438800e5
:10354800114388000043800011438000e042880056
:10355800f1428800e0428000f1428000c0428800c9
:10356800d14288000080fa00000006000000fa003e
:1035780074c9bf000080fb000080fa00000006004c
:103588000200fa00004f78001e4078007ee8b7007d
:103598000080fa00000006000000fa007ec8bf00a4
:1035a8000080fb000080fa00000006000000fa001e
:1035b8000040eb0074e9b700904b80000080fa00ef
:1035c800000006001e00fa00400f9800215f9800d6
:1035d8000040eb002047980017003700e3ff070082
:1035e8000004e00014003200f0ff0700000f78002c
:1035f80063004700420120009e0078008bf8070016
:10360800e30047000040eb00b05098002e409000c7
:103618000040e8002047980063004700ce0890006b
:103628004bf707000000e000030032001000200004
:10363800600f980006003700ae4090002e589000aa
:1036480080cf5000e5ff39000000eb00600f9800c4
:103658006e0890000080fa00000006000800fa00da
:103668008000780050c8bf00004f780051c8bf00e4
:103678001047980052c8bf002047980053c8bf00a1
:103688003047980054c8bf004047980055c8bf004d
:1036980050479800b0428000300798003e02be00b4
:1036a8002e03be008498be008690be0001007800fc
:1036b8000080fa00000006000400fa00000178000b
:1036c8007bc8bf00004f78007cc8bf001047980037
:1036d8007dc8bf00204798008e007800020078005f
:1036e800114878000000e8008100e80011487800df
:1036f8000000e8008100e800114878000200780026
:103708000080fa00000006002000fa00000178009e
:10371800c0428000d1428000008fbe00e04280009d
:10372800f14280002007980031079800004380008c
:1037380011438000400798005107980020438000fb
:10374800314380006007980071079800404380006b
:1037580051438000000f9800110f980060438000cb
:1037680071438000200f9800310f9800804380003b
:1037780091438000400f9800510f9800a0438000ab
:10378800b1438000600f9800710f98000f00090086
:103798003e1978000202b1000e02b1000200780062
:1037a8000080fa00000006000000fa004507a900a2
:1037b8000080eb00601988000000eb00701688009c
:1037c800401d2000401688000001200000168800d7
:1037d8000000eb0030168800116820009140780046
:1037e80000ceb30000c060006040b30081e6b700bf
:1037f8008220a9008680a900e10a20009140780073
:1038080080cfb30000c060006040b300aee0b700f6
:103818009680a8000080fa00000006000000fa0068
:10382800b300a800b320a800b340a80097c0a80020
:1038380087c0a900416a20009140780000ceb300fb
:1038480000c060000024a000a4e6b700316c20008e
:103858009140780000ceb30000c060003040b30053
:10386800c3e6b7000f020700616a200091407800a4
:1038780000ceb30000c060000014a000a6e6b700a8
:10388800516c20009140780000ceb30000c0600069
:103898005040b300c5e6b700520207000080fa00a6
:1038a80000000600809fbe00829fbe003400f80022
:1038b80000002000a00188000000fa008680a9000e
:1038c800b24c8000c34c8000e04c8000f14c80007a
:1038d8000001510081815900f00f200001002000f3
:1038e800800f5100818f590005003e00b04c8000c8
:1038f800c14c8000e04c8800f14c88000c00370077
:10390800b04c8000c14c8000e04c8800f14c88002d
:103918009ac9bf000004e00003003a0010c0b300d9
:103928009ae9b700020037000040eb009ae9b700b7
:103938000080fa003400f9004f01be004f00be00bd
:103948000040060000a0fe003600f800849fbe007c
:10395800869fbe000200fa0032c2bf0062406000cb
:103968000004e000020032003222a90004003700ff
:103978006afe0700004f78001e407800ec0107003f
:1039880087c0a9000080fa004f03be004f02be00a6
:103998003600f9000080fe0000400600809fbe004f
:1039a800829fbe003400f80000002000a0018800bb
:1039b8000000fa00b04c8000c14c8000610040005b
:1039c800e0804800b04c8800c14c8800b24c8000b0
:1039d800c34c80000000200001002800800f510027
:1039e800818f5900030036006000b800b04c880091
:1039f800c14c88008760a9000080fa003400f900f3
:103a08004f01be004f00be00004006000000fa0053
:103a18001fe1a9001e21a9001ec1a900e111200073
:103a280091407800f0ccb30000c060001ee1b70000
:103a38000000eb00a008880040422f00d008880052
:103a4800110b200091407800f0c8b30000c060005e
:103a58000044a000b1e0b7008760a9009760a80003
:103a68001fe1a8000080fa00000006007400fa00b8
:103a7800881f78004cff070068ff0700e3ff070076
:103a88001701070003010700ef000700c482a80020
:103a980000402200410f200070f20700c482a900f4
:103aa8003222a9006bfe070051c0b300e052290082
:103ab8006701070000003700acfe07000004e000c3
:103ac800fdff3200b9fe0700100798001e009000a5
:103ad8004afc0700004f78001e04e000f6ff3200a1
:103ae8007d044700800420000e004000f2fe07001d
:103af800800420000e004000800078000800780054
:103b0800114878000000e8008100e80011487800ba
:103b18000000e8008100e800114878007d004700b7
:103b2800204090000080fb00e4004700801f7800e0
:103b3800d0532900801f780001007800e7f50700be
:103b4800e48757006400470051c0b30040010700f4
:103b58007d004700104078000004e000d6ff3200e6
:103b68009ac9bf000004e0005c003a008802200007
:103b78000e044400c00420000e004000e2fe0700ce
:103b8800c00420000e0040000f000900301c78001f
:103b98000802b1000002b100800220000e004000bf
:103ba800b00090002000900002002000832c240028
:103bb800aef20700db010700e4004700801f780031
:103bc800a0542900801f780001007800c3f5070081
:103bd800e4875700640047008040eb001c010700a1
:103be800800220000e0040001000be0002002000ed
:103bf800832c24009df20700ca010700e400470057
:103c0800801f780030552900801f78000100780057
:103c1800b2f50700e48757006400470011c0b300fd
:103c28000b010700800220000e004000f000900009
:103c380060009000cff20700e4004700801f780082
:103c4800c0552900801f780001007800a3f50700ff
:103c5800e48757006400470021c0b300fc00070058
:103c6800800220000e00400090089000000890009c
:103c7800c0f20700e4004700801f78009056290032
:103c8800801f78000100780094f50700e48757004a
:103c98006400470031c0b300ed0007008002200037
:103ca8000e004000b008900020089000b1f2070014
:103cb800e4004700801f780060572900801f7800c3
:103cc8000100780085f50700e48757006400470085
:103cd80041c0b300de00070077ff3700c0062000b0
:103ce8000e0040005dfe07006e309000fe30900030
:103cf8000e3990009e39900000179800111798000f
:103d080022179800331798003e6090000081fb004e
:103d18004e6090008080fb005e6090000080fb0099
:103d2800e4014700821f7800811f7800801f780017
:103d380030582900801f78000300780067f50700d5
:103d4800e8875700640047008040eb00c000070088
:103d58002e6090000081fb001e6090008080fb00b8
:103d68000e6090000080fb00e4014700821f78008d
:103d7800811f7800801f780050592900801f780023
:103d88000300780055f50700e887570064004700ee
:103d980011c0b300ae00070021c0b300705a29005b
:103da800ab00070031c0b300705a2900a800070013
:103db80041c0b300705a2900a50007003eff370034
:103dc8000400fa0020479800314798003e409000d0
:103dd800614060006140600000414000412c2000cb
:103de80091407800d0cfb30000c06000024070005e
:103df800c4e2b700c442a9000040eb00004f7800bd
:103e08000b003700cde2a900cdc2a9002e409000da
:103e18000004e00001003d00cdc2a800cde2a800ea
:103e28002e40900000404000204798001e4fe800b8
:103e380070c0b3009e4f1000f2ff3400c442a800c7
:103e48000080fa00000006000200fa008040eb0043
:103e580000c4b300daff07008040eb0000c8b300dd
:103e6800d7ff07000000eb00000f780004003700c0
:103e780011c0b3000040eb00d1ff07001e0fe8009f
:103e8800305020009e0f1000f9ff36000080fa0025
:103e9800000006000200fa008040eb0000c4b300f6
:103ea800c7ff07008040eb0000c8b300c4ff07004d
:103eb8000000eb00000f78000400370011c0b300c9
:103ec80000c0eb00beff07001e0fe80030502000c6
:103ed8009e0f1000f9ff36000080fa00000006006f
:103ee8000200fa000000eb00000f78000100370024
:103ef8001e0fe800100320009e0f1000fcff340086
:103f0800c462a9000000eb00000f78000100370030
:103f18001e0fe800100320009e0f1000fcff340065
:103f2800c462a8008040eb0010c2b300a4ff0700e1
:103f38008040eb0000ccb300a1ff07008040eb00fd
:103f480060c0b3009eff07008040eb0030c1b300a3
:103f58009bff07008040eb0000c2b30098ff0700fa
:103f68008040eb00c0c0b30095ff0700b6ff070014
:103f78000080fa00000006000400fa0020479800bc
:103f8800ae40900010c5b30080cf500016003e0030
:103f9800ae40900000ceb30000c04000204798001b
:103fa8000040eb00004f78000b0037002e409000d7
:103fb8000080fb006500b900800078001e80fb00cf
:103fc80080804000e03429006140780011c0b300cf
:103fd8007bff07001e4fe80040c0b3009e4f100053
:103fe800f2ff360015003700ae409000e0cab3007b
:103ff80000c04000204798000040eb00004f7800c8
:104008000b0037002e4090000080fb006500b900cf
:10401800800078001e80fb008080400080442900da
:104028006140780011c0b30065ff07001e4fe8002b
:1040380040c0b3009e4f1000f2ff360011c0b3001d
:104048000040eb005eff07000080fa000000060059
:104058000400fa00000f7800214798002e409000d5
:104068000044b0008040eb0055ff07008040eb00a3
:1040780000c8b30052ff0700040037001e00780094
:10408800104078001e0fe800bbff07001e007800f4
:10409800104078000004e000f8ff3a000080fa00c1
:1040a800000006000000fa0021e2a90021a2a900f0
:1040b8002182a9002162a9002102a9002122a900c8
:1040c80020e2a90020c2a90020a2a9002062a9001c
:1040d8002042a9002022a9002002a90000012000f6
:1040e8004011880023e2a90023c2a90023a2a90045
:1040f8002362a9002342a9002322a9002302a900c0
:1041080022c2a90022e2a90022a2a9002282a900b3
:104118002262a9002242a9002222a9002202a900a3
:1041280021e2a8002342a8000080fa00000006004f
:104138000200fa00004f780023c2bf00624060000e
:104148000004e000fcff3a001e00fb00201188007c
:104158000080fa00000006000200fa00000f780054
:1041680022c2bf00614060000004e000fcff320092
:1041780030118000804078001e00780001487800e7
:104188000080fa00000006000400fa0010079800fa
:104198000000eb00000f7800060037009e00780052
:1041a8001e0090000080400010407800e0ff0700eb
:1041b8001e0fe8009e0078001e009000008040005e
:1041c800104078000004e000f4ff3a00d0c0b300cb
:1041d800d7ff0700a0c0b300d5ff07000080fa0092
:1041e800000006000000fa0031e2a90031a2a9008f
:1041f8003182a9003162a9003102a9003122a90047
:1042080030e2a90030c2a90030a2a9003062a9009a
:104218003042a9003022a9003002a900700620000f
:10422800c011880033e2a90033c2a90033a2a90053
:104238003362a9003342a9003322a9003302a9003e
:1042480032c2a90032e2a90032a2a9003282a90032
:104258003262a9003242a9003222a9003202a90022
:1042680031e2a8003342a8000080fa0000000600ee
:104278000200fa00004f780033c2bf0062406000bd
:104288000004e000fcff3a001e00fb00a0118800bb
:104298000080fa00000006000200fa00000f780013
:1042a80032c2bf00614060000004e000fcff320041
:1042b800b0118000804078001e0078000148780026
:1042c8000080fa00000006000400fa0010079800b9
:1042d8000000eb00000f7800060037009e00780011
:1042e8001e0090000080400010407800e0ff0700aa
:1042f8001e0fe8009e0078001e009000008040001d
:10430800104078000004e000f4ff3a00d0c0b30089
:10431800d7ff0700a0c0b300d5ff07000080fa0050
:10432800000006000e00fa002007980031079800e8
:104338000000eb00100798006011b8002e009000f4
:10434800be00900090f107000000e0000100350079
:104358000d0037009e00900060972000808040008c
:10436800d0c2b300804878001e0090000000e8002a
:10437800100798002e009000be00900001f0a200e7
:1043880020079800310798009e0090006097200051
:10439800808040000040eb008048780002f02f0049
:1043a800f37724002e009000be00900078f10700fb
:1043b8000000e00001003c00070037006097200083
:1043c800615b29000b0009003158780060972000d4
:1043d80060079800620037002e009000be00900031
:1043e80005f10700000f78009e007800a200200069
:1043f800b09820003cf50700b19820006097200095
:1044080048f5070060972000cbf3070010079800d5
:104418009e0090006097200080804000e0c2b300ba
:10442800804878001e0090000000e80010079800ff
:104438009e00900060972000808040000040eb00c4
:10444800804878001e007800cf80de0052f1070017
:1044580040079800510798001e00e00007003d0043
:1044680002002000037824004e009000de00900037
:1044780075f1070040079800510798004e01900019
:10448800de0190002e009000be0090006df1070044
:10449800200798003107980002002400c361240017
:1044a8002e009000be00900003f10700d2f0070034
:1044b800000f7800810020009e8f100005003e004c
:1044c800b0982000215c29000300090031587800c9
:1044d80017003700200620009e0f10000a003e003b
:1044e800b098200001c3b300014878000000e8003c
:1044f80001c3b300014878000000e8008040eb00e9
:10450800014878000a003700603e20009e0f100026
:1045180005003e0000c3b3008be9b7000040eb0084
:104528008ce9b700020037000040eb008be9b700c8
:10453800b198200060972000faf407009e007800e8
:10454800a2002000b0982000e7f40700b1982000ee
:1045580060972000f3f40700609720006007980038
:0c4568006e0090000080fa0000000600c9
:020000040000fa
:10457400960900000a00000002000000000000008c
:10458400000000000000000000000000a00900007e
:1045940002000000020000000000000050080000bb
:1045a4002601000000000000760900002000000041
:1045b40000000000a209000002000000000000004a
:1045c400a4090000a0000000020000000100000097
:1045d4000000000000000a000000000000000000cd
:1045e400006400000000000000000000e803000078
:1045f4000000000000001000270000000000000080
:1046040000a08600010000000000000040420f00ee
:1046140000000000000080009698000000000000e8
:104624000000e100f50500000000000000ca9a0047
:104634003b00000000000000e40b540002000000f6
:104644000000e80076481700000000000010a500f4
:10465400d4e8000000000000a0724e001809000019
:10466400000040007a10f3005a0000000080c600e9
:10467400a47e8d000300000000c16f00f2862300b9
:10468400000000008a5d78004563010000006400ba
:10469400a7b3b600e00d000000e889000423c700ba
:1046a4008a000000440a00002a0000000200000002
:1046b400286e75006c6c29000030310032333400f0
:1046c400353637003839410042434400454600003e
:1046d4003031320033343500363738003961620006
:1046e40063646500660000006e0a00002600000096
:1046f40002000000700a96000a000000960a0900f1
:1047040000000000020094000a000000940a060061
:10471400020100000000000000000000000006008c
:104724000202000000000000940a000006000000dd
:10473400000000009a0a00000200000002000000cd
:0847440001000000000000006c
:00000001FF
