:020000040000fa
:080000000002040000000000f2
:020000040000fa
:0400080034080000b8
:020000040000fa
:04000c0034080000b4
:020000040000fa
:0400100034080000b0
:020000040000fa
:0400140034080000ac
:020000040000fa
:0400180034080000a8
:020000040000fa
:04001c0034080000a4
:020000040000fa
:0400200034080000a0
:020000040000fa
:04002400340800009c
:020000040000fa
:040028003408000098
:020000040000fa
:04002c003408000094
:020000040000fa
:040030003408000090
:020000040000fa
:04003400740500004f
:020000040000fa
:040038003408000088
:020000040000fa
:04003c003408000084
:020000040000fa
:040040003408000080
:020000040000fa
:04004400340800007c
:020000040000fa
:040048003408000078
:020000040000fa
:04004c003408000074
:020000040000fa
:040050003408000070
:020000040000fa
:04005400340800006c
:020000040000fa
:040058003408000068
:020000040000fa
:04005c003408000064
:020000040000fa
:040060003408000060
:020000040000fa
:04006400340800005c
:020000040000fa
:040068003408000058
:020000040000fa
:04006c003408000054
:020000040000fa
:040070003408000050
:020000040000fa
:04007400340800004c
:020000040000fa
:04007800620500001d
:020000040000fa
:04007c003408000044
:020000040000fa
:040080003408000040
:020000040000fa
:04008400340800003c
:020000040000fa
:040088003408000038
:020000040000fa
:04008c003408000034
:020000040000fa
:040090003408000030
:020000040000fa
:04009400f40500006f
:020000040000fa
:040098003408000028
:020000040000fa
:04009c000e0300004f
:020000040000fa
:0400a0003408000020
:020000040000fa
:0400a400340800001c
:020000040000fa
:0400a8003408000018
:020000040000fa
:0400ac003408000014
:020000040000fa
:0400b0003408000010
:020000040000fa
:0400b400340800000c
:020000040000fa
:0400b8003408000008
:020000040000fa
:0400bc003408000004
:020000040000fa
:0400c0003408000000
:020000040000fa
:0400c40034080000fc
:020000040000fa
:0400c80034080000f8
:020000040000fa
:0400cc0034080000f4
:020000040000fa
:0400d00034080000f0
:020000040000fa
:0400d40034080000ec
:020000040000fa
:0400d80034080000e8
:020000040000fa
:0400dc0034080000e4
:020000040000fa
:0400e00034080000e0
:020000040000fa
:0400e40034080000dc
:020000040000fa
:0400e80034080000d8
:020000040000fa
:0400ec0034080000d4
:020000040000fa
:0400f00034080000d0
:020000040000fa
:0400f40034080000cc
:020000040000fa
:0400f80034080000c8
:020000040000fa
:0400fc0034080000c4
:020000040000fa
:0401000034080000bf
:020000040000fa
:0401040034080000bb
:020000040000fa
:0401080034080000b7
:020000040000fa
:04010c0034080000b3
:020000040000fa
:0401100034080000af
:020000040000fa
:0401140034080000ab
:020000040000fa
:0401180034080000a7
:020000040000fa
:04011c0034080000a3
:020000040000fa
:04012000340800009f
:020000040000fa
:04012400340800009b
:020000040000fa
:040128003408000097
:020000040000fa
:04012c003408000093
:020000040000fa
:04013000340800008f
:020000040000fa
:04013400340800008b
:020000040000fa
:040138003408000087
:020000040000fa
:04013c003408000083
:020000040000fa
:04014000340800007f
:020000040000fa
:04014400340800007b
:020000040000fa
:040148003408000077
:020000040000fa
:04014c003408000073
:020000040000fa
:04015000340800006f
:020000040000fa
:04015400340800006b
:020000040000fa
:040158003408000067
:020000040000fa
:04015c003408000063
:020000040000fa
:04016000340800005f
:020000040000fa
:04016400340800005b
:020000040000fa
:040168003408000057
:020000040000fa
:04016c003408000053
:020000040000fa
:04017000340800004f
:020000040000fa
:04017400340800004b
:020000040000fa
:040178003408000047
:020000040000fa
:04017c003408000043
:020000040000fa
:04018000340800003f
:020000040000fa
:04018400340800003b
:020000040000fa
:040188003408000037
:020000040000fa
:04018c003408000033
:020000040000fa
:04019000340800002f
:020000040000fa
:04019400340800002b
:020000040000fa
:040198003408000027
:020000040000fa
:04019c003408000023
:020000040000fa
:0401a000340800001f
:020000040000fa
:0401a400340800001b
:020000040000fa
:0401a8003408000017
:020000040000fa
:0401ac003408000013
:020000040000fa
:0401b000340800000f
:020000040000fa
:0401b400340800000b
:020000040000fa
:0401b8003408000007
:020000040000fa
:0401bc003408000003
:020000040000fa
:0401c00034080000ff
:020000040000fa
:0401c40034080000fb
:020000040000fa
:0401c80034080000f7
:020000040000fa
:0401cc0034080000f3
:020000040000fa
:0401d00034080000ef
:020000040000fa
:0401d40034080000eb
:020000040000fa
:0401d80034080000e7
:020000040000fa
:0401dc0034080000e3
:020000040000fa
:0401e00034080000df
:020000040000fa
:0401e40034080000db
:020000040000fa
:0401e80034080000d7
:020000040000fa
:0401ec0034080000d3
:020000040000fa
:0401f00034080000cf
:020000040000fa
:0401f40034080000cb
:020000040000fa
:0401f80034080000c7
:020000040000fa
:0401fc0034080000c3
:020000040000fa
:0402000034080000be
:020000040000fa
:0402040034080000ba
:020000040000fa
:0402080034080000b6
:020000040000fa
:04020c0034080000b2
:020000040000fa
:0402100034080000ae
:020000040000fa
:0402140034080000aa
:020000040000fa
:0402180034080000a6
:020000040000fa
:04021c0034080000a2
:020000040000fa
:04022000340800009e
:020000040000fa
:04022400340800009a
:020000040000fa
:040228003408000096
:020000040000fa
:04022c003408000092
:020000040000fa
:04023000340800008e
:020000040000fa
:04023400340800008a
:020000040000fa
:040238003408000086
:020000040000fa
:04023c003408000082
:020000040000fa
:04024000340800007e
:020000040000fa
:04024400340800007a
:020000040000fa
:040248003408000076
:020000040000fa
:04024c003408000072
:020000040000fa
:04025000340800006e
:020000040000fa
:04025400340800006a
:020000040000fa
:040258003408000066
:020000040000fa
:04025c003408000062
:020000040000fa
:04026000340800005e
:020000040000fa
:04026400340800005a
:020000040000fa
:040268003408000056
:020000040000fa
:04026c003408000052
:020000040000fa
:04027000340800004e
:020000040000fa
:04027400340800004a
:020000040000fa
:040278003408000046
:020000040000fa
:04027c003408000042
:020000040000fa
:04028000340800003e
:020000040000fa
:100400006f6327000eff27000e0188000000000028
:10041000000020000000e000020032000001200087
:1004200020028800140007005b0307000000e000c2
:1004300003003a00c0dc2300410020000200370026
:100440000000200001002000810f70000100320038
:100450000f000700000020000000e0000200320052
:100460000000020000000000f0fc0200000000009c
:100470000040da000000fe00403e22000000e000e4
:1004800002003200002020009001880000000600d9
:10049000a1028800800478000000eb001f003700f4
:1004a000e284440054a0b4009905ba00e2844400f8
:1004b00054a0b4009906ba00e284440054a0b400e9
:1004c0000006eb00476fde00fd07b200ae018800ba
:1004d000636ce10003003a000ad801000000eb0061
:1004e0000e003700606ce10008003a00004deb00a0
:1004f0000a05e800020039003420ec000af0a000f0
:100500008b05e900f9ff3e00040037006168e10057
:10051000010032000086eb000b00070019c7ba008b
:100520000e04e0001905ba0003003a000a00e000da
:10053000dbff3a0000000600fe07b200ae028800b2
:100540008a047800f5ff37000cd0a300e20f4d00bd
:100550001c00390089027800354dba000a05e80010
:10056000020039003420ec000af0a0008b05e900fd
:100570000f003200254dba000a05e80002003900dc
:100580003420ec000af0a0008b05e90008003200de
:100590000c00e0000600320015cdba000a05e800a4
:1005a000020039003420ec000af0a0008b05e900bd
:1005b0008984e80054a0b4000b00e000e2ff3a0098
:1005c000000006009902ba00055d78008b05e9007d
:1005d000f7ff3200c82ade00055d78008b05e900d0
:1005e000f3ff32000c00e000f1ff320019ddba0029
:1005f000eeff3700c23004000400000032af0400f8
:10060000030000002278040000000000d2760400fd
:10061000000000004a760400000000003600f800e8
:10062000809fbe00829fbe00849fbe00869fbe004a
:10063000889fbe008a9fbe008c9fbe000a00fa0001
:1006400003a8a900209c260011c0b300014878002f
:1006500000c0eb00004f780091708000000028007f
:10066000008060000000e00002003200c248a800e4
:1006700001003700c248a9009170800000002800e6
:10068000008060000000e00007003a0040048300a2
:100690000000e00004003a000a21ef0010002000f2
:1006a00040048b008a003700917080000000280011
:1006b000008060000000e0000c0032004004830075
:1006c000e10f500009003a0006740200000000002b
:1006d00001052000810f50007d0036000a21ef0047
:1006e0002000200040048b007900370091708000ca
:1006f00000002800008060000000e0000e003a00ca
:1007000040048300e20f50000b003a000674020020
:1007100000000000fe0f50006d0036000a21ef00bf
:100720003000200040048b00200826008040eb00b1
:10073000014878006600370040048300e20f500053
:100740005d0036009170800000002800008060008d
:100750000000e00058003a000674020000000000ab
:100760008000780010c0b300ec8f500001003e0004
:100770000040eb002047980040048300e30f500046
:100780000d003a002e4090008080fb0020082600db
:10079000104078000080fb000008dd0080407800f9
:1007a000300826001040780080c040003008260045
:1007b000014878002f00370040048300e40f500008
:1007c0000d003a002e4090008080fb00200826009b
:1007d000104078000080fb000008dd0080407800b9
:1007e000400826001040780080c0400040082600e5
:1007f000014878001f00370040048300e50f5000d7
:100800000d003a002e4090008080fb00200826005a
:10081000104078000080fb000008dd008040780078
:10082000500826001040780080c040005008260084
:10083000014878000f00370040048300e60f5000a5
:100840000c003a002e4090008080fb00200826001b
:10085000104078000080fb000008dd008040780038
:10086000600826001040780080c040006008260024
:10087000014878000a21ef00200826001040780087
:100880008040e80020082600014878002008260063
:1008900010407800e74f50000c003600200826007a
:1008a0008040eb0001487800400483000000e8002d
:1008b00040048b000600370040048300e70f50001f
:1008c00003003a000a21ef00010037000000000099
:1008d00040048300e70f500011003a003008260062
:1008e00010407800e14f50000d003a00400826000b
:1008f00010407800e24f400009003a0060082600ee
:100900001040780080c0ea005008260010407800af
:1009100080cf500002003a0050082600104f7800a7
:100920001e407800e14f40005a0032000040eb00ca
:1009300010479800f00f200050af8b000040eb00f4
:1009400010479800370037001e4090000080fb00e1
:1009500000004000000478004f80de008004780032
:100960004a7c25004b1020000a00be000000440015
:1009700081804c009201800000f0a4008180d200b0
:100980009101880000000000104078003047980076
:1009900092018800000000001e4090000080fb00d3
:1009a000000040000000e800000678004f80de00f4
:1009b00080067800417c2500310798004110200016
:1009c000410798003e009000ce00900000004600d5
:1009d00081804e009201800000f0a4008180d2004e
:1009e000910188000000000010407800920188000a
:1009f000000000000080fb00200798003e409000af
:100a00009e40780080cf500003003a00ae00900076
:100a100051af8b00060037001e4090000040e800f8
:100a2000104798001e409000fe4f5000c6ff360051
:100a300051af8300f0042000808f500008003a007e
:100a4000d09b260011c0b30001487800509e2600bc
:100a50008040eb0001487800f00f200050af8b0081
:100a600051af830000052000808f50000b003a003a
:100a7000409e260011c0b30001487800509e260019
:100a800011c0b30001487800f00f200050af8b0078
:100a900002003700f00f200050af8b000080fa00fa
:100aa0004f06be004f05be004f04be004f03be0000
:100ab0004f02be004f01be004f00be003600f900dd
:100ac00000400600809fbe000000fa000288a900d6
:100ad000d09b260011c0b300014878000080fa00c6
:100ae0004f00be00004006003600f800809fbe00a8
:100af000829fbe00849fbe00869fbe000000fa0059
:100b00000068a9006671020000000000e04e83004a
:100b1000f14e830061004000e0804800e04e8b0011
:100b2000f14e8b00e04e8300f14e8300c2032000a3
:100b300003002000c20c020000000000e00f500083
:100b4000e08f580003003a00009e260011c0b30059
:100b500001487800d09f2600104078000004e00093
:100b600013003200209d260090407800b09f2600a0
:100b70001040780080cf50000d003a00109d2600f4
:100b800090407800c09f26001040780080cf500031
:100b900007003a00009d2600104078000004e000a5
:100ba00003003a00e09f260011c0b300014878001e
:100bb000709e2600104078000004e0000300320020
:100bc000d04e83000000e800d04e8b000080fa0079
:100bd0004f03be004f02be004f01be004f00be00db
:100be0003600f900004006003600f800809fbe0085
:100bf000829fbe00849fbe00869fbe000800fa0050
:100c00000368a900504d83000000e0005700320047
:100c1000514e8300504d8300808f500053003600aa
:100c20000000eb00504e8b00d04e83000000e80027
:100c3000d04e8b00109e260010407800e34f5000ed
:100c40002f003200e09e2600104078000004e000f3
:100c500007003200f09e2600104078000004e000fb
:100c600003003a000000eb00104f8b002400370017
:100c7000104f83000000e800104f8b00104f8300de
:100c8000fe0f50000700360002560200040000006c
:100c90000004e000030032000040eb005e7b020035
:100ca0000000000070af83000000e000140032007c
:100cb000114f830070af8300808f5000100036000a
:100cc00071af8300104f8300811f7800801f780070
:100cd000e0e52b00801f7800a0082600840f0200aa
:100ce00000000000e6875700a0082600f466020016
:100cf00000000000409e260011c0b30001487800ab
:100d0000809e260010407800e44f5000170032000b
:100d100080af83000000e00014003200d14e830059
:100d200080af8300808f50001000360081af8300b9
:100d3000d04e8300811f7800801f780090e62b0042
:100d4000801f7800a0082600840f02000000000029
:100d5000e6875700a0082600f466020000000000a5
:100d6000409e260011c0b30001487800504e830019
:100d70000000e800504e8b00400d26001040780027
:100d80000004e000b0003a00308d260010407800ea
:100d90000080fb000000ea004f00de0010479800d2
:100da0001e4090000004e000200032000040eb00f4
:100db0006e7d0200000000006101b900c0468300a2
:100dc000d14683000200400083804800c0468b006b
:100dd000d1468b00c08d2600104078008040e8008e
:100de000c08d260001487800c08d26001040780094
:100df000e44f50000d003a00c0468300d146830006
:100e00000000400081804800000078001a3a02008b
:100e100004000000c08d26008040eb0001487800ef
:100e20006000b800c0468b00d1468b00e09c2600d5
:100e3000623b020004000000204798000040eb00e5
:100e4000004f78001e4090000004e00005003200d2
:100e500010c0b300004f7800704e8300604e8b00ce
:100e600004003700c09c2600723a02000400000013
:100e7000004f78001e4078000004e00003003a00b4
:100e80002e4090000004e00035003200605e270034
:100e9000104078000004e00031003200304e830042
:100ea000414e830061004000e0804800304e8b00de
:100eb000414e8b00605e270010407800fc4f5000d0
:100ec00014003e00605e270010407800e1c1b300ce
:100ed00000c0500030479800614e83003e409000b3
:100ee0000080fb0000017800110009008200d8009a
:100ef000604e8b00714e83003e4090000080fb00ee
:100f000000017800110009008200d800704e8b00ab
:100f100020003700605e270010407800fe4f500030
:100f20001b003600605e2700104078007d405000b6
:100f3000404798004e4090008080fb00604e830048
:100f40008088b900604e8b004e4090008080fb008e
:100f5000704e83008088b900704e8b000d00370002
:100f6000b0068300e10f500004003e00605e2700e1
:100f7000104078000004e00006003a000000eb009a
:100f8000604e8b000000eb00704e8b0001003700bc
:100f900000000000909f2600104078000004e00050
:100fa00013003200409c2600104078000004e0004e
:100fb0000f003200604e8300cf00de000080400052
:100fc0000080d10080007800704e83004f01de0069
:100fd000000041000080d1000080400030079800f0
:100fe000be009000614e8b003e019000724e8b005f
:100ff000309c2600104078000004e0000900320018
:10100000604e8300207602000000000030618800fe
:10101000704e8300207602000000000030628800dd
:101020000a003700604e83003e7602000000000098
:1010300030618800704e83003e76020000000000a0
:101040003062880001003700000000000080fa00d4
:101050004f03be004f02be004f01be004f00be0056
:101060003600f900004006000040da000000fe00f3
:101070002002e20004003d002342ab0002003200e7
:101080002302ab00feff32000040da00feff370013
:101090000a00fa00e20f500034003e00a0b18300c5
:1010a000e10f500003003200e20f500011003a003f
:1010b0000c003700032220000300e00001003a008a
:1010c0000040da002002e200020035002822ef0092
:1010d00021e2a8002342ab000d003a002342a80001
:1010e0000b003700032320000300e00001003a005a
:1010f0000040da003002e200020035003822ef0042
:1011000031e2a8003342ab0001003a003342a800ac
:10111000820178000b0037003102fb00e10f500024
:1011200004003a002322ab00feff3a00241188009d
:10113000030037003322ab00feff3a00a411880001
:101140008301e9000300e000f3ff3a00e10f5000e3
:1011500003003a002302ab00feff32000b00370011
:101160003302ab00feff32000800370033002000de
:10117000b3bf9f00c0bf9f00d1bf9f00e2bf9f00d1
:101180006a8057000c1107006fb9970002007800c1
:101190000080fa0000000600000005005400f8007e
:1011a000a102880080027800620040003549ba0040
:1011b000e08048003204e0000410a7001000320074
:1011c0008301e9000e0032002549ba003204e00034
:1011d0000410a7000a0032008301e9000800320071
:1011e0000408a300eeff320015c9ba003204e00083
:1011f0000410a700020032008301e900e8ff3a0072
:101200005400f9000000060003f0a200889fbe0011
:101210008a9fbe008c1f78003a010700410133000d
:101220006450e1004f0032006420e10052003200bf
:1012300003826c0007003b000905d0000306d000c4
:10124000820f54000c065d000200390002003200db
:1012500089017800030678008582550004003d006e
:101260000003fd008103fd008502ea008b8542003a
:10127000840f720002003b0060001000e080180044
:101280006011b8000005eb007a28e1000a0039007f
:1012900006007800c75ddd00f707b20087807500a3
:1012a0002d003700828171000a017800610560001d
:1012b0008180d1000080d3008502e900f9ff3b0066
:1012c000060440008784480002003b0060041400cc
:1012d000e0841c000988a300070032008a817100a5
:1012e00082817100610164008904d1000884d30007
:1012f0008b05e800170037000978a30013003a00b7
:101300000b00e000130034008b05e90008044400e2
:1013100089844c000a4474000978a3000d003a0047
:101320000b00e000070034008b05e90008044400ce
:1013300089844c0001003a000b0020000978a300ca
:10134000f7ff32000001eb000200370082817100dc
:101350000a017800b00007000cf0a70001f0a0001f
:10136000f90037006420e10002003a00838f6c002e
:10137000f90033000801be000200be00f200370091
:101380000001eb00570007000400320002002000bb
:1013900003f8230001f0a6009cff070000000600f0
:1013a000889fbe008a9fbe008c1f7800d500070072
:1013b000dc00330003866c006450e1002e00320034
:1013c0006420e100330032006150e1002f00320060
:1013d0006120e1003100320085855500eb07b00047
:1013e000090020000804200005003700080444001c
:1013f00089844c000a0031000603430087834b00b8
:101400000001530081815b00f8ff33000203be003e
:101410000800a0000804440089844c00f6ff39004d
:10142000c639dd0083017300010032001300200083
:101430008904d1000884d3000998a3000500320074
:101440000800a7000300a0008904d1000884d3008d
:101450008b05e8008904d1000884d3000001eb006b
:101460000281d2006c00070001f0a1000cf0a7007f
:1014700001f0a000b40037006420e100b6003200a3
:101480000801be000200be00f7ff37006120e10046
:10149000b10032006000b800f3ff37000000200008
:1014a00001f82700f0ff3700839f68000100e0008b
:1014b00002003d0060001000e08018000300e00022
:1014c00002003d0060011100e08119001d010700cc
:1014d0004f00e00002003b0060001000e0801800b8
:1014e00000000600889fbe008a9fbe000003be0069
:1014f0006f000700850578008281520002002000fd
:101500006220e10004003a00f307b1000400350056
:101510007718e100040035000600be001400370013
:101520006000b8000f003700f50f2000faff2f0011
:101530008502d1000a85d3008301e900fcff3b004e
:101540008184620000046500890f7400f2ff32009c
:101550008582ea000a85ea00818462000004650051
:101560002d00070007f0a70001f0a0000081eb00ac
:101570000200e0004f05be004f04be000000060060
:101580001400200006023700f4ff2f000402370089
:101590000001be00460007000470a70003f0a10090
:1015a00003f8a30013003a006509b10010003200ef
:1015b000090035006928e10002003500010028001b
:1015c0000000050000004000818048008502e9001d
:1015d000fcff3a0000000600f88f420005003500cd
:1015e0008100d1000080d3008502e800fcff3a00b2
:1015f000000006008000eb00000005004f89de00bf
:1016000082017800010237006011b8000f02370034
:1016100004002000e20137008100200061805500b5
:101620000b003d000b00200061fe2f000100e100d7
:101630001d00340082817100610164008904d100c1
:101640000884d3000000e800faff3a00710020008f
:1016500061006400030070000200600009003200b5
:1016600061044400e0844c000988a50005003200b4
:101670008b05e8006808e10002003a008904d10007
:101680000884d300f20f20000258e10005003d005d
:10169000c75ddd00f907b200898075000800780099
:1016a000000006000bf827008b0078000000050002
:1016b000c70ade00f107b200f50fb20008003200e1
:1016c000e1cf4200020032000170a00024000500ba
:1016d000810f70000100320004080500440005007d
:1016e000810f700002003a00140005008502e90035
:1016f0000000400081c04800fcff3b000170a000da
:10170000240005000004be00e9ff07000003be003e
:101710000405be000200be00e5ff0700844f75000f
:10172000000006000200be006450e1000500360023
:101730006420e100020036000968a30001003a00bd
:101740000800be000160a0004f0678004f05be00f3
:101750004f04be0000000600f0ff2f00f1ff27003d
:10176000f9ff3700811f78000100e00002003d0012
:1017700060001000e08018000300e00002003d005f
:1017800060011100e08119007e0007004f00e000b9
:1017900002003b0060001000e0801800000006001e
:1017a000889fbe008a9fbe008c1f7800d5ff07006f
:1017b000dcff330003866c006450e100240032003b
:1017c0006420e100270032006150e1002200320075
:1017d0006120e100210032008b854200eb07b1005f
:1017e0000134b800003ab8000804420089844a0075
:1017f000013ab8000030b8008880400009014a0072
:1018000004003300000040008180480002014900cc
:101810008b05e900c909dd00830170000100320079
:1018200013002000c814de004814dd004709de0064
:101830001200b200c808de000884700076ff0700be
:1018400001f0a1000cf0a70001f0a000beff3700de
:101850006120e100c0ff32000801be000200be00ae
:10186000f7ff37006150e100fcff3a00baff370094
:10187000889fbe008a9fbe008c1f78000004be00b7
:101880008bff07000478a30026003a006120e100e6
:101890002500320009f8a30025003a006420e10089
:1018a00021003200f507b1000508a3000200320054
:1018b00000004000818048006044b8000310200010
:1018c000020020000000400081804800080544001c
:1018d00089854c000a0541008b8549000a055000a6
:1018e0008b855800030033000a00be000204740018
:1018f000838474008301d1000281d300830f7100bf
:10190000f0ff3a008904d1000884d3006001490047
:1019100082017800c1adde00fb07b0003eff07008a
:1019200089ff37000960a0000800be0086ff37006d
:101930001202200002808800f0ff2f00f1ff270034
:1019400081ff37006022b800060220000000d000ae
:101950008180d2000482d2008582d2000000a000e3
:101960000202520083825a00030031000202420048
:1019700083824a000000a1000603e900f3ff3a0059
:1019800000000600efff07000400be000000060094
:10199000889fbe008a9fbe0030044200b0844a0087
:1019a00030054b0090854b006000b1000898be00e8
:1019b0000a90be000440e10005c8e10006d0e10045
:1019c00007d8e10002003100680040001008e8007c
:1019d0004f05be004f04be0000000600889fbe00f9
:1019e0008a9fbe00100478009004900020059000ab
:1019f000b00590000418540005985c0006185d00be
:101a000007985d00110020000440e10005c8e100d6
:101a100006d0e10007d8e100010039008000eb00aa
:101a2000108810004f05be004f04be0000000600e5
:101a30001200fa00889fbe008a9fbe008c9fbe00e5
:101a4000e0b79f00f1b79f0082bf9f0093bf9f0048
:101a50000605be000404be000000eb00d0b79f00e6
:101a6000c0b79f00b0b79f00a0b79f0090b79f007e
:101a70000006eb005fb19700cfb0970082014100f4
:101a80003fb097000200e00004003d00370007006f
:101a90007e805700beff07000300370033000700b9
:101aa0007e805700cdff0700dfb697000d00e000f5
:101ab0000c0035006fb29700ffb297000fbb970084
:101ac0009fbb970010002000010020006011b800ab
:101ad000000272008182720002037300838373002c
:101ae0001b0007000c06e80001042000810f5600cf
:101af000e0ff3a000d00e00004003d000802be00d7
:101b00000a03be007e805700a1ff07005fa8970070
:101b10000000e00005003a001fb29700afb2970046
:101b20003fb39700cfb39700090007006fb097004d
:101b3000ffb097000fb997009fb997004f06be00fe
:101b40004f05be004f04be000080fa0000000600f2
:101b50000100070000000600a4b79f00b5b79f0072
:101b6000c6b79f00d7b79f00000006004f09de00f0
:101b700082817100b3b79f004f01de008180400079
:101b800082807000a1b79f008fb097004f09de00e0
:101b9000000040000200700090b79f007fa89700ef
:101ba0004f01de00818040008280700081b79f007d
:101bb0000d0007004f3ade000000400004007000f6
:101bc000f0af9f00080007000402420085824a002f
:101bd00006034b0087834b00dfff07000802be00af
:101be0000a03be00000006002fb29700bfb29700a4
:101bf0004fb39700dfb3970000000600881f7800fe
:101c000018002000881f780089ff07008f87e900ef
:101c10004f04780000000600801feb0084ff0700df
:101c20008f87e90000000600889fbe008a9fbe00e3
:101c3000e00f5000e08f5800e00f5900e08f59008e
:101c40000c003d006044b8006055b800000054002e
:101c500081805c0002015d0083815d00180020002e
:101c60001500070008003d00180007000004eb0005
:101c7000050037000004eb000f00070002003d00e4
:101c80001200070018002000dcff07000800e00039
:101c9000060032006022b8006033b8000000520035
:101ca00081805a0002015b0083815b004f05be000a
:101cb0004f04be0000000600e00f5200e08f5a0003
:101cc000e00f5b00e08f5b00000006006044b8009e
:101cd0006055b8000402540085825c0006035d0074
:101ce00087835d0000000600889fbe008a9fbe00bb
:101cf0008c1f7800e00f5000e08f5800e00f590073
:101d0000e08f59000d003d006044b8006055b800f8
:101d10000000540081805c0002015d0083815d0051
:101d20001c0020000820e10009a8e1000ab0e10041
:101d30000bb8e1000d003d00080037000006eb0085
:101d4000e00f5200e08f5a00e00f5b00e08f5b0075
:101d500006003d006044b8006055b800040254001d
:101d600085825c0006035d0087835d00aaff070093
:101d70000c00e000060032006022b8006033b800ba
:101d80000000520081805a0002015b0083815b00e9
:101d90004f0678004f05be004f04be00000006004d
:101da000889fbe008a9fbe00841f780055fe0700f2
:101db0004f00780011003300f0ff2f00838f6c007c
:101dc00006003b00040565000a00a7000800370074
:101dd00009f0a6001000200008003700820f540010
:101de000838f5c00030039001000200001003e00da
:101df0000000200009f0a7000000ea004f05be0027
:101e00004f04be000000e00000000600881f7800bc
:101e1000030478000300e00007003d0060001000ac
:101e2000e080180060011900e081190002003b0009
:101e300001f02d00030037000400070008f0a700a0
:101e400001f0a0004f04780000000600889fbe004b
:101e50008a9fbe000082700004027100048271003b
:101e6000260032000004be000200be006011b8006f
:101e70006b092000950220000182cf000a00390082
:101e80000541b1000082cf00070039000541b100d3
:101e90000982cf00040039000541b1000882cf005b
:101ea000010039000541b100054252001200320024
:101eb0000a003b0082817100610164008100d10051
:101ec0000080d3008984d3000884d3008b05e80008
:101ed0000442e800f7ff3a00070037000804440016
:101ee00089844c0000004800818048008b05e9008f
:101ef0000442e900f9ff3a00c7fd07004f05be00a4
:101f00004f04be00000006000c00fa00889fbe00cf
:101f100000047800f0ff2700d0bf9f008004eb0092
:101f200099bf9f0088bf9f00a8bf9f00200c200082
:101f3000b0bf9f0078815700cfb0970070805700e6
:101f4000100007000fb89700094878008fb8970075
:101f5000088050004f04be000080fa000000060018
:101f6000d0019000028151004240a90003003400da
:101f700010017800014978000208e80001007800ab
:101f800000000600f6874700889fbe008a9fbe00bb
:101f90008c9fbe008e1f780000057800a1b79f00bf
:101fa000020778008004eb0092023700afb0970080
:101fb0008100e800a1b79f0051c2b300814f5000db
:101fc00003003a00afb097000004eb0011003700a7
:101fd000ba0090000000fb000168a3000700320077
:101fe00009017800800078000a007800dcff070013
:101ff0000000e00005003a007e0237008a00780009
:10200000c8020700e10f40007a0232008904e800ac
:10201000780237000100780031417800d3c2b30064
:10202000834f51000c00320007003c00edc151000d
:10203000834f51000a003200ebc14100834f510031
:102040000d003a000800370003c3b300834f51006e
:1020500009003a00060037000830a000edff370005
:102060000800a000ebff37000810a000e9ff3700d0
:102070000820a000e7ff37000818a3000100320085
:102080000800a1000838a300010032000820a100c8
:102090008200fb000103b100e98f50000c003e00fc
:1020a000000178008000eb00ea08b900b200fb00f4
:1020b0000103b10080804000020078009201fb0023
:1020c0000303b100e98f5100f7ff36000600370027
:1020d0008000eb00a3c2b300834f510002003a001e
:1020e000ce0078000000e8008005eb00e2c2b300fb
:1020f000904f110008003a0008e0a0006441510030
:10210000d04f1100020032000001780006003700b5
:10211000ce0578000000e8000001780008003700d4
:10212000ea58b9008085410002007800b201fb0046
:102130000303b100e98f5100f9ff3600f6ff3700c5
:1021400032407800a2b79f00c3c6b300834f50004f
:10215000250032000f003c0032c6b300824f500011
:102160008800320004003c000004e0002602320037
:102170006b4151000f00370042c6b300824f500040
:102180001700320065414100824f500094003a0030
:102190001300370032c7b300824f50001b003200db
:1021a00007003c0064415100824f50001000320093
:1021b0000241e800824f500089003a000f003700ca
:1021c00052c7b300824f50008a0032006341410081
:1021d000824f500082003a00e0df9f000900370084
:1021e000e0df9f00850037000840a000d4ff3700e3
:1021f000e0df9f000860a00080003700e0df9f0064
:102200000850a0000870a0007c003700e0df9f00ad
:102210004e007800000678000000e00001003a005f
:10222000ac4c27000c0178000000eb0001003700e7
:102230000000e800800141001304e000fcff3a00c8
:10224000800678000b00e000030032008d8f5500ff
:10225000010031008b0678008005eb008d8f500067
:10226000010036008d855000680464002a003a00a1
:10227000110037003a0090000068a3000700320008
:1022800009017800010220000a00780034ff0700ed
:102290000000e00006003a00060037008a007800df
:1022a000000220001f020700e10f40000100320081
:1022b0008904e8008b05e9000b00e000edff3a001f
:1022c0008085eb00140037003a0090000068a300fe
:1022d000090032000c007800b000fb000006780016
:1022e000090178000a0078001dff07000000e000e7
:1022f00008003a00080037008c0078003100fb002d
:10230000010678008a00780006020700e10f40000d
:10231000010032008904e8000d0078008006e90021
:102320000000e000e8ff3a000800e000b1013200e0
:10233000110037003a0090000068a3000700320047
:1023400009017800010220000a00780004ff07005c
:102350000000e00006003a00060037008a0078001e
:1023600000022000ef010700e10f400001003200f1
:102370008904e8008b05e9000b00e000edff3a005e
:102380009c0137004e017800cf91de00c81ade00b4
:102390004818dd004812de0004027000e4df9f00f0
:1023a0000848a300080032000404e00006003200e0
:1023b000e14f420004003200f4df9f0082e79f00fb
:1023c0002d00200002003700f2df9f001d002000da
:1023d000e2fd2f000f0141000206e80099ff3700df
:1023e000e0df9f00ecfd2f000f0646001d002000df
:1023f00094ff3700e0df9f00080cb300080178006d
:10240000020cb200700064000200e0000f003a000d
:102410000000e00004003200640757001e06780048
:102420009e069000020037004e067800cfe6de00e0
:10243000e00f5600e08f5e000c003d003800b30056
:1024400060061600e0861e00080037000000e0006d
:1024500004003200640757001e0678009e069000b4
:10246000020037004e0678008006eb000b00e0000b
:1024700005003a008c8576000bf0a7008b05ea007a
:102480008b05e900cf5dde0088017800030cb20007
:10249000e3b79f0000042000808f5100230032002a
:1024a00003003c000300e000080032002d0037006c
:1024b000000820006fb29700800f52000d0032001c
:1024c000000c2000800f520026003a00224d270009
:1024d00010c0b30064014100b20f5600a28f5e002d
:1024e0001f0039000040e800ea4f5000f9ff3a00b1
:1024f0001b00370010c0b3000201200003002000c1
:10250000820f5600838f5e0015003900441add00eb
:10251000cc11de00830172004411dd000040e800b0
:10252000e84f5000f6ff3a000d00370010c0b3002e
:102530008200200003002000820f5600838f5e007f
:1025400007003900431add00cd11de00830172005f
:102550004311dd000040e800eb4f5000f6ff3a0069
:10256000e0df9f006fd997000200fb008b0f500047
:1025700002003d00ebdf9f0003003700808f550015
:1025800001003d00800578000100e00003003200fa
:1025900063006400010032008100e90008e8a30044
:1025a000050032008b8f5000020034008b805000f9
:1025b000010037008000eb00efd997000300fb001b
:1025c0000002eb00d4b79f00808f5000020034005f
:1025d00000805000d0b79f000828a30040003200c0
:1025e000610164000818a3000f0032003a00900057
:1025f0000068a30006003200b10220000200e000e3
:10260000010032008180e800090178000d003700e8
:10261000b00220000200e000010032000080e8006b
:102620008a0078000e0037000200e000100032003f
:102630003a0090000068a30007003200090178000a
:10264000010220000a00780045fe07000000e000bb
:1026500006003a00060037008a00780000022000d9
:1026600030010700e10f4000010032008904e8005a
:102670005fb097000000e0005a003200bcb79f0036
:10268000cdb79f00800678003a0090000068a30054
:102690000700320009017800010320000a007800d9
:1026a0002ffe07000000e00006003a000600370099
:1026b0008a007800000320001a010700e10f4000a3
:1026c000010032008904e8008d06e900eeff3a00bf
:1026d000ddb79f003fb69700cfb6970041003700a7
:1026e000dfb197000300e0001a0032000838a300b1
:1026f00018003a00bcb79f00cdb79f008306780052
:102700003a0090000068a300070032000901780039
:10271000010220000a00780011fe07000000e0001e
:1027200006003a00060037008a0078000002200008
:10273000fc000700e10f4000010032008904e800be
:102740008d06e900eeff3a00ddb79f003fb6970027
:10275000cfb69700610164000818a3000f00320093
:102760003a0090000068a30006003200b102200089
:102770000200e000010032008180e80009017800d9
:102780000d003700b00220000200e000010032001e
:102790000080e8008a0078000e0037000200e000a8
:1027a000100032003a0090000068a30007003200d9
:1027b00009017800010220000a007800e8fd070006
:1027c0000000e00006003a00060037008a007800aa
:1027d00000022000d3000700e10f4000010032009a
:1027e0008904e8000b03e900e331b900b2b79f00a8
:1027f0004233dd00204d2700000343008e017800a6
:1028000093b79f0008077800060478005d00370042
:102810008b05e900000420006fb29700800f520082
:102820003900320003003c000400e00008003200e0
:102830003f00370000082000efb09700808f500065
:1028400021003200000c2000808f500038003a0038
:102850000e48a30011003200180278009802900080
:102860000401be000c00be00f4b79f0085bf9f00ae
:1028700034fc0700e0df9f000000fb00cf80de009b
:102880007fb297008fba97000401be007a0b070051
:102890000006560081865e000700370018017800a8
:1028a000110009000286d800a200200011000900d2
:1028b0000280d800e1df9f006fd997000243b0008b
:1028c000e2df9f001a003700904b27000e58a3004c
:1028d00001003200804a2700214d2700810054006a
:1028e0000c01be008100e900030033008301d10028
:1028f0000281d300fbff3700ef00610001004000c0
:1029000010407800090037000c00be003fb297006d
:102910000402e900030033008100d1000080d300ed
:10292000fbff3700674060000043b000e0df9f001e
:10293000ba0090006fd997000200fb000168a30065
:102940000700320009017800800078000a00780052
:1029500083fd07000000e00005003a000500370095
:102960008a0078006f000700e10f4000010032008c
:102970008904e8003fb2970063025200b4b79f0099
:10298000640454000b00e000a1ff3a000e0478003c
:102990001fb797000838a300160032005fb09700f9
:1029a0000000e00013003400000478003a009000ba
:1029b0000068a3000700320009017800010220002e
:1029c0000a00780066fd07000000e00006003a00fb
:1029d000060037008a00780000022000510007003e
:1029e000e10f4000010032008904e8000804e9001a
:1029f000eeff3a00afb0970011407800e0df9f0093
:102a00000004e00069fd3a00090078004f077800f3
:102a10004f06be004f05be004f04be006f01b1005f
:102a200000000600889fbe008a1f780030447800ae
:102a30008004780001c2b300814f5400fbff3200d4
:102a4000e94f5400f9ff3200d0c2b300804f540068
:102a500003003a00394478001ac0b300050037007b
:102a60000045eb00b0c2b300804f540001003a00b3
:102a7000394478006000b8000a003700a200200046
:102a800003002000fc0a070002cdb300024144000d
:102a90000281fb008001eb000200400083804800bf
:102aa000394478000881fb000203b100e90f5100ae
:102ab000f2ff36000a04e00002003200600010005d
:102ac000e08018004f0578004f04be0000000600ab
:102ad000c45427000300e00002003a009355270089
:102ae00003027800831f7800841f7800801f78001d
:102af000811f7800821f7800a0552700801f780072
:102b0000805c270001000700eb0007000000fa00ce
:102b100068815700cfb897009c0107000080fa0039
:102b200000000600889fbe0001047800b8009000f5
:102b30008084eb000118a3003a00320018019000d5
:102b40000198a30002003a000200e00035003a00bc
:102b50000190a0003104980080047800f90fb200c1
:102b60000200e00002003a0028009000000c78000b
:102b7000ea8f540005003a000178a30003003a00f0
:102b800088007800d0002000e6ff070018009000c1
:102b9000d8009000810f50000b0032000000e800c8
:102ba000100498001800780009487800000ce8002c
:102bb00011c0b300e061270001487800ea8f54009b
:102bc00018003a00050037008800780009407800b6
:102bd0003a0a07008004780012003700380090009d
:102be0000088a3000f00320018019000a800900098
:102bf0004800900026f9070098009000810f5000cf
:102c000004003200380090000003b3003004980044
:102c10008084eb000000eb00100498002800900076
:102c2000000c7800090078004f04be000000060088
:102c30008001780002003700b15978000201e900f4
:102c40000200e000fcff3a0000000600800178006e
:102c5000808f50000900310002824000800f520036
:102c6000060036008401780082004000c3607800ce
:102c70000201e900fdff3a00000006000200e0004a
:102c800003003200b15978000201e900fbff370070
:102c900000000600800178000200370081597800aa
:102ca0000201e9000200e000fcff3a00000006001b
:102cb0008000eb00d0b08b00e1b08b0011c0b300fe
:102cc000806127000148780000000600806127002d
:102cd0001004e00002003a0010002000f4ff07009a
:102ce000d2e62400631c2400d0b08300e1b083004e
:102cf000610a070092032300030020000001410045
:102d000081814900d2b08b00e3b08b0003007800d2
:102d100000f0a100000006000c00fa00889fbe0031
:102d200000047800f0ff2700d0bf9f008004eb0074
:102d300099bf9f0088bf9f00a8bf9f00200c200064
:102d4000b0bf9f0078815700cfb0970070805700c8
:102d50000e0107000fb89700094878008fb8970058
:102d6000088050004f04be000080fa0000000600fa
:102d7000b041780031c1510002003a000304e00084
:102d8000fbff3a000200fb00000006000001780093
:102d9000b1417800035978000304e000fcff3a00d9
:102da00000000600800078003104e000feff3a00d9
:102db0000080ea0000804000000006000a003700a2
:102dc000b04178000304e000030032000201e90092
:102dd000b1cf5100040032008381fb001480fb005e
:102de0000080510000000600010278000200e000af
:102df000f3ff3a0000000500889fbe000004be00fb
:102e000008007800e7ff07000000440090cf14009e
:102e100005003200880f5000020032000000e90077
:102e2000faff37000000eb004f04be000000060070
:102e30000001e9000080eb00e50f510005003e00b5
:102e400002014100406027000201400012007800aa
:102e500001097800000006008000e900e58f5000bd
:102e600010003e0081804000426027008100410048
:102e7000910078000100e00002003a0010002000fc
:102e800011000700e18f4000080032000001eb0054
:102e9000e18f500006003200010001000001eb004c
:102ea000030037000081eb000100370001017800ca
:102eb000020078000000060010002000e6ff070076
:102ec0001000200000000700000478000200070046
:102ed0000800780066f8070000000600889fbe0022
:102ee0008a9fbe000084fb00d1c6b300814f500012
:102ef000230036004b062000110009000b84d80087
:102f000081057800720040004200dd004a4727003a
:102f1000000045000200200003f023009000900014
:102f2000100078001efa07000002be00a900200071
:102f3000110009008985d80080057800e9854500e1
:102f4000c25ddd008b0545001b0178009b019000f0
:102f50000400be0012fa07000002be0011000900c2
:102f60000984d800010478004244dd0008054500ca
:102f70001a0178009a0190000400be001b0037007f
:102f8000ea4f500012003600aa002000110009008c
:102f90000a84d80001057800690440004244dd003d
:102fa00049472700088444000200200003f0230062
:102fb0001800780098009000f9f907004255dd00ec
:102fc0008a844400190178009901900007003700b5
:102fd0004244dd0040472700080440000200200072
:102fe00003f023001800780098009000ecf9070027
:102ff0004f05be004f04be0000000600889fbe00c3
:103000008a1f7800d1c6b3000004e00028003d000c
:103010000040ea000004fb00814f50000f00340024
:1030200042062000110009000204d800a900200077
:10303000110009008900d800e9004000c208dd0045
:103040004a47270081004500110178009101900056
:1030500000a6830011a6830026003700ea4f500027
:1030600010003400a2002000110009000204d80062
:1030700001017800690040004200dd00414727005f
:10308000008040004211dd00828040001101780084
:10309000910190009000900010007800c0f90700a6
:1030a0002e0037004244dd0040472700280037004b
:1030b0000004fb00814f500019003400420620003c
:1030c000110009000204d800a90020001100090025
:1030d0008900d800e9004000c208dd000a4427004a
:1030e00081004500110178009101900060a48300e7
:1030f00071a48300aaf907000002be0011000900b4
:103100000904d800010478004244dd0008054500a8
:103110001a0178009a0190000400be00dfff37001a
:10312000ea4f500008003400a200200011000900fe
:103130000204d80001017800690040004200dd006f
:1031400001442700ceff37004244dd000044270041
:103150000804400018007800980090004f0578009f
:103160004f04be0000000600d00190000281510013
:103170004240a900030034001001780001497800a2
:103180000208e8000100780000000600af02b0006d
:10319000889fbe008a9fbe008c9fbe008e1f780055
:1031a00000077800a1af9f00f2af9f006055b80004
:1031b0000000eb00c0b79f00b4083700afa897002d
:1031c0008100e800a1af9f0051c2b300814f5000c1
:1031d00003003a00afa997000000eb00130037008e
:1031e000be0090000000fb000168a3000700320051
:1031f0004fb19700800078000e007800daff0700da
:103200000000e00005003a00a00837008e007800ba
:1032100044fe0700e10f40009c0832004fb19700c8
:103220000201e800c2b79f009808370083007800c9
:1032300033417800b4c2b300844f51001300320010
:1032400007003c006b425200844f51000d003200d9
:1032500063424200844f510012003a000d003700d3
:10326000d4c2b300844f51000400320063424200d4
:10327000844f51000b003a00080037000030a000d6
:10328000eaff37000000a000e8ff37000010a000b0
:10329000e6ff370000b0a000e4ff37000020a000e8
:1032a000e2ff37000018a300010032000000a10077
:1032b0000038a300010032000020a1008201fb00c1
:1032c0000303b100e98f51000e003e0001017800b8
:1032d0008001eb0093b79f00ea1ab900b201fb002e
:1032e0000303b10084814100820078001202fb00d8
:1032f0000403b100e90f5200f7ff360093b79f00b7
:103300000a0037000002eb0094b79f00a3c2b3008d
:10331000834f510005003a00ffaa9700450178004d
:10332000f5af9f0092b79f008100e800e2c2b300b2
:10333000914f110019003a0000e0a000a0b79f00d3
:10334000a0c2b300d14f1000040032000100780089
:103350008001eb0083b79f00090037007faa970028
:10336000c4027800f4af9f0085b79f008100e80099
:10337000afb197000e003700ea1ab900840141008e
:10338000800078003001fb000203b100e90f51001a
:10339000f9ff360083b79f00f5ff370000c0a0009b
:1033a000a0b79f000000eb0080b79f00f0ff370040
:1033b00031407800a1af9f0072c6b300824f500029
:1033c0003500320018003c00a3b79f0031c6b3009f
:1033d000814f5000d00032000e003c00fcc0500075
:1033e000814f50004200320006003c000004e00023
:1033f0002b08320081c0e900814f5000e0003a0004
:103400003300370081c5b300814f5000dc003a0023
:103410004400370051c6b300814f500021003200f4
:1034200026003c002100370002c7b300824f500045
:103430003b0032000b003c0064415100824f5000c1
:103440001c003200a3b79f00f1c6b300814f5000ab
:103450002e003200e6c05000814f5000c8003a00f4
:1034600012003700a3b79f0051c7b300814f50002f
:10347000c8003200e3c04000814f50000400320019
:10348000e5c05000814f5000bd003a002d003700cc
:10349000a0cf9f0027003700a3b79f00a0cf9f00b9
:1034a00017003700a0cf9f000d003700a0cf9f006e
:1034b000bc0037000340a000bdff3700a0cf9f0035
:1034c000afb1970003a0a000a3b79f00b5003700dd
:1034d000a0cf9f002fb297000450a000a4b79f0078
:1034e000afb297000580a000a5b79f00ad003700e0
:1034f000a0cf9f002fb097000050a000a0b79f0062
:10350000afb097000190a000a5003700a0cf9f00aa
:103510002fb197000260a000a2b79f00a100370062
:10352000a3b79f00a0cf9f00afb197000350a000aa
:10353000a3b79f002fb297000470a000a4b79f000c
:1035400098003700a0cf9f00ffaa970045007800a1
:10355000f5af9f00000678000000e00001003a008f
:10356000cc5127008c0078000000eb0001003700f0
:103570000000e800008140001204e000fcff3a0077
:10358000800678000fb097000000e00003003200d2
:103590008d0f500001003100800678000004eb0020
:1035a0009fb097008d8f5000010036000d845000b1
:1035b0002fb19700e804610035003a00acb79f00d6
:1035c000bdb79f000a06be00cfb5970011003700b7
:1035d0003e0090000068a300070032000b01780055
:1035e000010220000e007800dffe07000000e0006e
:1035f00006003a00060037008e0078000002200026
:1036000048fd0700e10f4000010032008b05e80093
:103610000804e9000800e000edff3a00cbb79f0086
:103620000c05be002fb69700bfb697000084eb00d4
:10363000aab79f00bbb79f00170037003e0090005d
:103640000068a300090032000c007800b000fb0005
:10365000000678000b0178000e007800c2fe07001b
:103660000000e00008003a000c0037008c007800f1
:103670003100fb00010678008e00780029fd07006c
:10368000e10f4000050032008b05e8000300370021
:10369000aab79f00bbb79f00cfb597000d00780079
:1036a0008006e9000000e000e4ff3a00cbb79f008d
:1036b0002fb59700bfb597000900e00073073200ef
:1036c000cfb49700110037003e0090000068a300bf
:1036d0000700320009017800010220000e00780086
:1036e000a1fe07000000e00006003a0006003700d7
:1036f0008e007800000220000afd0700e10f400064
:10370000010032008904e8000804e9000800e00034
:10371000edff3a005c073700ffa9970043007800ef
:10372000f3af9f00cf80de00c809de00480add004d
:103730004801de0002017200a2cf9f00afb29700e5
:103740000548a300080032000204e0000600320031
:10375000e14f410004003200b2cf9f00c0cf9f0074
:103760002d00200002003700b0cf9f001d00200078
:10377000a0fc2f000f0040000006e80081ff37008a
:10378000a0cf9f00acfc2f000f0646001d002000bc
:103790007cff3700a0cf9f00afb09700010cb300b3
:1037a000a1b79f00017020002fb197008100610038
:1037b000700061000100e000ee04320002c8a300c6
:1037c000020032006300200083b79f000000e00089
:1037d0000a0032007faa97006802520014007800a5
:1037e0009400900024019000b4019000f4af9f0079
:1037f000760707000004be0005003700ffaa970007
:10380000e48252001504780095049000f5af9f0003
:103810006011b8000800be0059f707000000e00082
:1038200004003d0009f0a2002fb097003000b30063
:10383000a0b79f000000eb00f0a79f006011b80048
:103840000800be0072f707000000e000240032000c
:10385000e2fc2f000f0141000800be0058070700de
:103860007fa097000000e900e300b900a20020005b
:10387000110009000200d800f0a79f000000e0003e
:1038800002003d000000e900f0a79f007fa697001e
:103890000c40ea00d9fd07000801be00c0f7070090
:1038a0000005be000200200003f8230034f70700e3
:1038b0000000e00002003d000c06e90007003700b0
:1038c00002002000031224000a00be002ef70700a9
:1038d0000000e000020035000c06e800fca79f0095
:1038e0007fa69700afb097000188a30007003a00b9
:1038f0000198a300b2023200e40f46000300350035
:103900000fb19700820f5600690235008fb1970002
:103910000300e000050032002fb297000498a300d6
:10392000020032008301e90083b79f008fb2970045
:1039300080c0b300e88f520001003e000fe0970006
:10394000a0cf9f006011b8000800be0030f707004c
:103950000000e00033003200afce97000d4056006b
:10396000a6fd07000001be000800be008cf607009f
:103970000004be0006f7070023f707000001be00a1
:103980000800be0020f607000200200003f023001c
:10399000fdf607000000e0000500350002002000f1
:1039a00003f023000800be0018f607000004be0064
:1039b0000800be00f6f607000d01fb008201e800da
:1039c000c219dd004452270083014200b30f5000aa
:1039d000a38f580007003900d2cc2c00c3dc230091
:1039e0000800be006ef707000004be000c06e800e9
:1039f0000b0037004211dd0002014200b20f5000ff
:103a0000a28f58000700310002002000031224009a
:103a10000800be0062f707000004be000c06e900c3
:103a2000fca79f0001a020002fb19700810061003a
:103a300000202000808f500026003a008fb19700b0
:103a4000ea8f510002003400a400200084b79f00d8
:103a50000800be00cef60700070037008fb29700bf
:103a60008502e90085b79f00a20020000300200026
:103a70000c00be00b3f707000006be00e00f5000c8
:103a8000e08f580006003200a20020000300200052
:103a9000bcf70700e00f5000e08f5800efff320046
:103aa0002fc897008000fb000fb19700810f5100d5
:103ab00008003d000240500050fd07000001be001c
:103ac0000800be0036f607000004be008fe1970034
:103ad000a3cf9f001fb29700650052008fb29700de
:103ae0000500500090b79f000500e00003003a0079
:103af0002fb0970000b8a300030032009fb09700da
:103b00008100e90091b79f002fb197006300610029
:103b1000030032009fb197008301e90093b79f0033
:103b20002fb297000428a300530032003e009000fb
:103b3000610162000418a300180032000068a300ad
:103b40000a003200b10220000200e0000100320051
:103b50008180e8004fb197000e00780082fd0700d9
:103b60000000e00009003a003a003700b0022000ef
:103b70000200e000010032000080e8008e007800c2
:103b8000e8fb0700e10f400032003200cfb297009f
:103b90008502e800050678002f0037000200e000eb
:103ba0002c0032000068a300070032004fb19700dc
:103bb000010220000e0078006bfd07000000e0000d
:103bc00006003a00230037008e0078000002200033
:103bd000d4fb0700e10f40001e0032004fb09700f9
:103be0000000e800000678001b0037003e0090004f
:103bf0000068a3000b0032000c01780001032000d4
:103c00000e007800f4b79f0085bf9f0056fd0700a7
:103c10007fb297008fba97000000e0000a003a00d8
:103c20000a0037008e00780000032000f4b79f00e0
:103c300085bf9f00bbfb07007fb297008fba97003c
:103c4000e10f4000010032000c06e8008904e900a1
:103c5000030037004fb697000802be009fb49700dc
:103c60000900e000e1ff3c0099b79f00ccb79f003e
:103c70000404be004f003700afb097000138a30026
:103c80001c003a004fb69700d8af9f00e9af9f00e5
:103c90009fb49700110037003e0090000068a30019
:103ca000070032000c017800010220000e007800ad
:103cb0002dfd07000000e00006003a000600370076
:103cc0008e0078000002200096fb0700e10f400004
:103cd000010032000c06e8008904e9000900e00058
:103ce000edff3c0099b79f00ccb79f005fac9700f9
:103cf000efac97003e009000afb19700618161008a
:103d00000318a300180032000068a3000a00320064
:103d1000b10220000200e000010032008180e800d2
:103d20004fb197000e0078000ffd07000000e00083
:103d300009003a001f003700b00220000200e00036
:103d4000010032000080e8008e00780075fb07005b
:103d5000e10f4000170032004fb297000402e80064
:103d6000c4b79f00130037000200e00011003200ca
:103d70000068a300070032004fb197000102200045
:103d80000e007800f8fc07000000e00006003a0092
:103d9000080037008e0078000002200061fb070059
:103da000e10f400003003200cfb297008502e80027
:103db000c5b79f000800be00f5f507000006be006d
:103dc0003e01900040522700afc997008300fb00de
:103dd0000268a3000e003200c208dd0001004000ae
:103de00010017800900190000c00be00d5f607008d
:103df00001032000808040004fb197000e00780042
:103e0000d9fc07000000e0000e003a001000370067
:103e1000c208dd0001004000100178009001900010
:103e20000c00be00c7f6070002032000000141009d
:103e30008e007800020078003afb0700e10f400096
:103e4000030032004fb297000402e800c4b79f009d
:103e5000afca97000500fb004200dd004152270079
:103e60000080400010017800900190000c00be001e
:103e7000c4f607000006be000fb097000000e00087
:103e800003003a00afb0970001b8a3006900320008
:103e90003e0090000068a300070032004fb1970079
:103ea000e10220000e007800affc07000000e000f7
:103eb00006003a00080037008e007800e00220007b
:103ec00018fb0700e10f4000030032004fb19700dc
:103ed0000201e800c2b79f002fcc9700cfb4970033
:103ee00036003700afb197000398a30008003200f6
:103ef000e00f5600e08f5e0005003a00c9b79f0052
:103f00000042eb00a4cf9f000004eb004600370006
:103f10003e019000405227008100fb000268a30090
:103f20000e003200c208dd000100400010017800e0
:103f3000900190000c00be0082f6070001032000f3
:103f400080804000090178000e00780086fc0700a0
:103f50000000e0000e003a000e003700c208dd004d
:103f60000100400010017800900190000c00be009c
:103f700074f6070002032000000141008e00780063
:103f800002007800e7fa0700e10f4000010032006c
:103f90008904e800afca97000500fb004200dd007d
:103fa00041522700008040001001780090019000ed
:103fb0000c00be0073f607000006be002fc8970075
:103fc0008040e900a1cf9f000004e000c5ff3a0057
:103fd000c9b79f000804fb000fb097000804500009
:103fe000110037003e0090000068a3000700320077
:103ff00009017800010320000e0078005afc070038
:104000000000e00006003a00060037008e0078004d
:1040100000032000c3fa0700e10f40000100320056
:104020008904e8000804e9000800e000edff3a0018
:10403000c9b79f003e009000afb097000158a300a1
:10404000120032000068a300070032004fb1970051
:10405000510420000e00780043fc07000000e0003f
:1040600006003a001a0037008e0078005004200045
:10407000acfa0700e10f4000150032004fb1970085
:104080000201e800c2b79f00110037000068a300da
:10409000070032004fb19700510620000e00780053
:1040a00031fc07000000e00006003a00080037007d
:1040b0008e007800500620009afa0700e10f4000b9
:1040c00003003200cfb197008301e800c3b79f001f
:1040d000ffa097003e0090000100e00014003d00aa
:1040e0008100ea00f1a79f000068a30007003200ea
:1040f0004fb19700d10220000e0078001afc070093
:104100000000e00006003a001a0037008e00780038
:10411000d002200083fa0700e10f400015003200b2
:104120004fb297000402e800c4b79f0011003700a7
:104130000068a300070032004fb19700b1022000d1
:104140000e00780008fc07000000e00006003a00be
:10415000080037008e007800b002200071fa0700d6
:10416000e10f400003003200cfb297008502e80063
:10417000c5b79f00be0090007fa097000168a30014
:104180000b003200a2002000110009000200d8003c
:1041900001032000808040004fb197000e0078009e
:1041a000f1fb07000000e00009003a000b003700b7
:1041b000a2002000110009000200d8000003b00096
:1041c0008e00780057fa0700e10f4000030032002c
:1041d0004fb097000000e800c0b79f00be009000fd
:1041e0007fa097000168a3000a003200a20020000f
:1041f000110009000200d8000103b0004fb1970080
:104200000e007800d8fb07000000e0000a003a002a
:104210000c003700a2002000110009000200d800a5
:1042200000032000010040008e0078003dfa0700e6
:10423000e10f400003003200cfb097008100e8009a
:10424000c1b79f002fb197000238a3008f0432003e
:104250009fb197000300e0008c0434000304780051
:10426000cfb497003e0090000068a3000700320022
:1042700009017800010220000e007800bafb070057
:104280000000e00006003a00060037008e007800cb
:104290000002200023fa0700e10f40000100320075
:1042a0008904e8000804e900eeff3a0076043700cc
:1042b0000c00e00004003d000c86ea000fb29700fd
:1042c0000c02420084b79f000800be00b0f4070053
:1042d000d0af9f00e1af9f00015227000040eb00ec
:1042e00007003700e48040005faa9700efaa97001c
:1042f000b10f5200a18f5a00030039000040e800be
:10430000ea4f5000f7ff3a000000fb008fb2970021
:104310008082520085b79f00ec8f520006003c005f
:1043200005407800edfa07000001be000800be005d
:10433000b6f307000004be000fe097002ffb070054
:104340000006be005fa89700efa89700aef4070034
:104350000001be000800be00abf307000001be0074
:104360000c00be000ef5070089f407000006be0031
:1043700008003700a2002000030020000c00be004f
:1043800070f507000006be000fb097000000e900be
:1043900080b79f008fb097000100e000110032004d
:1043a000a2002000030020000c00be0075f50700ed
:1043b000e00f5000e08f5800eeff32000900370098
:1043c0000fb19700ec0f510006003c00024078004e
:1043d000c2fa07000001be000800be008bf3070010
:1043e0000004be007fa69700e90f56000c003c00b9
:1043f0006011b8000800be0085f407000000e0006e
:104400001b0032000800be0061f40700e00f5000fe
:10441000e08f580016003a00e10f560014003400f7
:10442000f2052700930824000a00be0054f4070098
:104430000000e00002003d00690656000100370060
:1044400068065600fca79f006fc89700ebfa0700ac
:104450000005be000001be000800be00d0f307004a
:104460004bf407000006be006044b8000a003700a5
:104470000800be0046f407000006be0062f4070014
:104480000001be000800be005ff307000004be008c
:104490000000eb00f0a79f004152270010c0b300be
:1044a00005003700e4804000b10f5600a18f5e0088
:1044b000030039000040e800ea4f5000f9ff3a00dd
:1044c000a0cf9f00ffa097009fb19700818051006f
:1044d0000fb29700848050000000fb000080500065
:1044e00090b79f0000802000afb29700008062006c
:1044f000d0af9f0002003a000400e0000300320049
:104500001fb097000000e90090b79f00afb0970080
:1045100063806000030032001fb197000201e900d0
:1045200092b79f00afb197000328a3005e0032004e
:10453000618161000318a300190032003e00900061
:104540000068a3000a003200b10220000200e0006f
:10455000010032008180e8004fb197000e00780022
:1045600001fb07000000e00009003a0043003700ab
:10457000b00220000200e000010032000080e800ec
:104580008e00780067f90700e10f40003b00320021
:104590004fb297000402e800c4b79f00370037000d
:1045a0000200e000350032003e0090000068a300e9
:1045b000070032004fb19700010220000e00780082
:1045c000e9fa07000000e00006003a002b0037007f
:1045d0008e0078000002200052f90700e10f400031
:1045e00026003200cfb297008502e800c5b79f00d1
:1045f000220037003e0090000068a3000f00320048
:104600000d017800010320000e007800f4b79f0030
:1046100085bf9f00d6b79f00e7b79f00d2fa07007b
:104620007fb297008fba97005fb39700efb3970000
:104630000000e0000e003a000e0037008e00780007
:1046400000032000f4b79f0085bf9f00d6b79f00ee
:10465000e7b79f0033f907007fb297008fba970042
:104660005fb39700efb39700e10f40000100320005
:104670008d06e8008904e900040037000802be0046
:104680009fb497000c03be00cfb697000900e0006e
:10469000d8ff3c0099b79f00cdb79f000404be002f
:1046a0000606be007e0037002fb097000038a3003a
:1046b00020003a00b8af9f00c9af9f009fb4970099
:1046c0008caf9f009daf9f00cfb6970011003700c1
:1046d0003e0090000068a300070032000d01780042
:1046e000010220000e0078009ffa07000000e000a1
:1046f00006003a00060037008e0078000002200015
:1047000008f90700e10f4000010032008d06e800c3
:104710008904e9000900e000edff3c0099b79f0023
:10472000cdb79f003fac9700cfac97000fae97007e
:104730009fae9700afb29700618162000518a30099
:10474000190032003e0090000068a3000a00320009
:10475000b10220000200e000010032008180e80088
:104760004fb197000e0078007ffa07000000e000cc
:1047700009003a004a003700b00220000200e000c1
:10478000010032000080e8008e007800e5f80700a4
:10479000e10f4000420032004fb097000000e800f7
:1047a000c0b79f003e0037000200e0003c0032002e
:1047b0003e0090000068a300070032004fb1970050
:1047c000010220000e00780067fa07000000e000f8
:1047d00006003a00320037008e0078000002200008
:1047e000d0f80700e10f40002d003200cfb0970055
:1047f0008100e800c1b79f00290037003e0190000a
:10480000415227000000fb000268a30011003200a3
:104810004200dd000080400010017800900190000f
:104820000c00be0047f40700a20020000300200097
:1048300054f4070001032000808040004fb197002e
:104840000e00780048fa07000000e00011003a006e
:10485000130037004200dd000080400010017800a6
:10486000900190000c00be0036f40700a20020006a
:104870000300200043f40700020320000001410070
:104880008e00780002007800a6f80700e10f4000d3
:10489000030032004fb197000201e800c2b79f0049
:1048a000afc897000140e900a0cf9f000104e000dd
:1048b000d2ff3a000806be00cfb4970013003700bd
:1048c0003e0090000068a300070032000901780054
:1048d000010320000e00780023fa07000000e0002a
:1048e00006003a00060037008e0078000003200022
:1048f0008cf80700e10f4000010032008904e80055
:104900007fa097000000e900f0a79f007fa097001c
:104910000000e000eaff3c00c9b79f000c04be00a5
:104920008fb19700e88f51000300340080c0b300be
:10493000a0cf9f00020037000fe29700a4cf9f0096
:104940002fc897008000fb008fb297008180520033
:1049500081b79f000004e00003003a005fa89700c1
:104960000000e000120032003e0090000068a3004a
:10497000070032004fb19700e10220000e007800de
:10498000f9f907000000e00006003a0008003700cf
:104990008e007800e002200062f80700e10f40007e
:1049a00003003200cfb097008100e800c1b79f003c
:1049b0002fc8970091f907000001be000800be0053
:1049c00077f30700f2f207000006be004fb497002d
:1049d000310037003e019000405227008100fb006b
:1049e0000268a30011003200c208dd00010040008f
:1049f00010017800900190000c00be00d1f3070078
:104a0000a200200003002000def3070001032000c5
:104a100080804000080178000e007800d2f907007d
:104a20000000e00011003a0011003700c208dd006c
:104a30000100400010017800900190000c00be00c1
:104a4000c0f30700a200200003002000cdf3070000
:104a500002032000000141008e007800020078006f
:104a600030f80700e10f4000010032000804e800c0
:104a70002fc997000200fb004200dd0041522700d1
:104a80000080400010017800900190000c00be00f2
:104a9000bcf307000006be002fc897008040e90065
:104aa000a1cf9f000004e000caff3a00c8b79f00f2
:104ab0000fb49700cfb49700110037003e0090006c
:104ac0000068a300070032000901780001032000fc
:104ad0000e007800a4f907000000e00006003a008c
:104ae000060037008e007800000320000df8070054
:104af000e10f4000010032008904e8000804e900e9
:104b00000800e000edff3a00c9b79f00afb1970081
:104b10000338a3005d0232001fb297000400e000da
:104b20005a023400040478003e0090000068a3009c
:104b30000700320009017800010220000e00780011
:104b400089f907000000e00006003a00060037007f
:104b50008e00780000022000f2f70700e10f40000d
:104b6000010032008904e8000804e900eeff3a0081
:104b700045023700afb09700010cb20015003a00b3
:104b80000000e00006003200ffaa9700e482520015
:104b90001506780095069000f5af9f0004003700d9
:104ba0007fa8970040067800f0af9f00cfe6de00b8
:104bb000e00f5600e08f5e0012003d00afb097009e
:104bc0003100b300a1b79f0060061600e0861e000a
:104bd0000c0037000000e000060032007fa99700bb
:104be000640151001206780092069000f2af9f0017
:104bf00004003700ffa9970043067800f3af9f0039
:104c00008006eb000fb297000400e00006003a00b7
:104c10000c80760000f0a7000000ea000000e90028
:104c20004f00de0080b79f00afb29700050cb200c6
:104c3000b5af9f0000042000808f52002300320097
:104c400003003c000500e000080032002d003700a2
:104c500000082000bfa89700808f50000d00320090
:104c6000000c2000808f500026003a00415227009f
:104c700010c0b300e4804000b10f5600a18f5e0069
:104c80001f0039000040e800ea4f5000f9ff3a00e9
:104c90001b00370010c0b3000201200003002000f9
:104ca000820f5600838f5e0015003900441add0024
:104cb000cc11de00830172004411dd000040e800e9
:104cc000e84f5000f6ff3a000d00370010c0b30067
:104cd0008200200003002000820f5600838f5e00b8
:104ce00007003900c31add00cd11de008381720098
:104cf0004311dd000040e800eb4f5000f6ff3a00a2
:104d0000a0cf9f00afc897000100fb000fb1970034
:104d1000820f500002003d00a2cf9f000400370028
:104d20008fb19700808f510001003d0080b79f0038
:104d30001fb297000400e00005003200afb29700f8
:104d400063806200020032000402e90094b79f0011
:104d50002fb0970000e8a300090032009fb0970031
:104d60000fb19700828f5000030034008280500002
:104d700091b79f00020037008001eb0093b79f00be
:104d8000418c20002fb29700810062000084200037
:104d9000808f500006003a009fb297000500e000a7
:104da000110032008502e90095b79f000e00370020
:104db000018c20002fb09700810060000088200047
:104dc000808f500008003a009fb09700e28f50009b
:104dd000030034008180e90091b79f000200370092
:104de0000001eb0092b79f00afc997000300fb00e2
:104df0000002eb00d4af9f009fb29700808f52005b
:104e00000200340000805200d0af9f002fb0970006
:104e10000028a3007d003200610160000018a3009b
:104e2000190032003e0090000068a3000a00320022
:104e3000b10220000200e000010032008180e800a1
:104e40004fb197000e007800c7f807000000e0009f
:104e500009003a0053003700b00220000200e000d1
:104e6000010032000080e8008e0078002df7070076
:104e7000e10f40004b003200cfb097008100e80006
:104e8000c1b79f00470037000200e0001300320066
:104e90003e0090000068a300070032004fb1970069
:104ea000010220000e007800aff807000000e000cb
:104eb00006003a003b0037008e0078000002200018
:104ec00018f70700e10f4000360032004fb197009d
:104ed0000201e800c2b79f0032003700018c2000b9
:104ee000afb197008180610000882000808f500062
:104ef0002c003a003e0090000068a300070032003a
:104f00004fb19700010320000e00780096f80700cb
:104f10000000e00006003a00080037008e0078002c
:104f200000032000fff60700e10f400003003200fd
:104f30004fb297000402e800c4b79f003e00900003
:104f40002fb197000202b2000068a3000a003200ed
:104f5000810720000200e0000100320081052000ee
:104f60004fb197000e0078007ff807000000e000c6
:104f700009003a000b003700800720000200e00023
:104f800001003200800520008e007800e5f6070061
:104f9000e10f400003003200cfb297008502e80025
:104fa000c5b79f005fa897000000e000ac0032008a
:104fb00000047800cfb497003e0090000068a30082
:104fc0000700320009017800010320000e0078007c
:104fd00065f807000000e00006003a000600370010
:104fe0008e00780000032000cef60700e10f40009d
:104ff000010032008904e8000804e900eeff3a00ed
:10500000d8af9f00c9b79f0095003700dfa8970071
:105010000100e000190032002fb197000238a30010
:1050200016003a0001047800cfb497003e009000cb
:105030000068a30007003200090178000102200087
:105040000e00780048f807000000e00006003a0073
:10505000060037008e00780000022000b1f607003d
:10506000e10f4000010032008904e8000804e90073
:10507000eeff3a00d8af9f00c9b79f00afb19700cd
:10508000618161000318a300190032003e00900006
:105090000068a3000a003200b10220000200e00014
:1050a000010032008180e8004fb197000e007800c7
:1050b0002df807000000e00009003a00200037004a
:1050c000b00220000200e000010032000080e80091
:1050d0008e00780093f60700e10f400018003200c0
:1050e0004fb297000402e800c4b79f0014003700d5
:1050f0000200e000120032003e0090000068a300b1
:10510000070032004fb19700010220000e00780026
:1051100015f807000000e00006003a00080037001c
:105120008e007800000220007ef60700e10f4000ac
:1051300003003200cfb297008502e800c5b79f0098
:10514000008c2000afb09700008060000184200038
:10515000810f500013003a003e0090000068a30049
:10516000070032004fb19700010320000e007800c5
:10517000fdf707000000e00006003a0038003700a5
:105180008e0078000003200066f60700e10f400063
:10519000330032004fb197000201e800c2b79f0010
:1051a0002f00370001882000810f50002c003a00aa
:1051b0003e0090000068a300070032004fb1970046
:1051c000010320000e007800e7f707000000e00070
:1051d00006003a00080037008e0078000003200027
:1051e00050f60700e10f400003003200cfb19700f6
:1051f0008301e800c3b79f003e0090002fb19700e5
:105200000202b2000068a3000a00320081072000f9
:105210000200e00001003200810520004fb197003c
:105220000e007800d0f707000000e00009003a0007
:105230000b003700800720000200e0000100320070
:10524000800520008e00780036f60700e10f400050
:10525000030032004fb297000402e800c4b79f0079
:105260008fb297000502e900e320b90090b79f00d4
:105270004222dd0040522700000242008aaf9f0018
:105280009baf9f0004047800bfac97005f0037001d
:105290008fb197008301e90083b79f0000042000cd
:1052a000808f54003800320003003c000900e00009
:1052b000070032003e00370000082000808f5400b5
:1052c0001f003200000c2000808f540038003a008c
:1052d0002fb297000400e00003003500afb2970042
:1052e0000548a3000d0032001805780098059000cd
:1052f0000a01be000c00be0092f10700a0cf9f0083
:105300000000fb00cf80de000a01be00da000700cb
:105310000006560081865e000700370018017800fd
:10532000110009000286d800a20020001100090027
:105330000280d800a1cf9f002fc897001a00370025
:10534000b0502700afb097000158a3000100320011
:10535000a04f270041522700810054000c01be00dd
:105360008100e900030033008301d1000281d300f2
:10537000fbff37006f01610002014000124178001d
:10538000a2cf9f000a0037000c00be001fb197009b
:105390000201e900030033008100d1000080d30046
:1053a000fbff3700674060000043b000a0cf9f00c4
:1053b000be009000afc997000300fb000168a30086
:1053c000070032004fb19700800078000e0078008f
:1053d00065f707000000e00005003a00070037000d
:1053e0008e007800cff50700e10f40000300320087
:1053f0004fb297000402e800c4b79f001fb09700a7
:105400006300500090b79f00640454008fb0970071
:105410000100e0009eff3a000fad97009fad97009e
:105420002fb197000238a30018003200dfa99700bf
:105430000300e0001500340003047800cfb49700a7
:105440003e0090000068a3000700320009017800c8
:10545000010220000e00780043f707000000e00082
:1054600006003a00060037008e0078000002200097
:10547000acf50700e10f4000010032008904e800ac
:105480000804e900eeff3a00c9b79f002faa970071
:1054900014407800a0cf9f000004e00047f73a00d6
:1054a0004fb097004f0778004f06be004f05be0073
:1054b0004f04be00af02b100000006000200fa0077
:1054c000889fbe00a0ff9f00010478003800900074
:1054d0000068a30033003a00e200600005003a00d3
:1054e0000003b30030049800110498000080eb0022
:1054f0002e003700d80490000900e00006003a00b2
:1055000012002000e680570048009000e0ee0700ff
:105510001904980023003700a80090000100e00063
:1055200008003a001162270021049800010c78005d
:105530002100200051049800110498000030a000c0
:105540003004980018019000a800900048009000d6
:10555000cfee0700280090008080eb001104980037
:10556000aff8970001487800000ce8002ff897008a
:10557000ea4f50000b003a00380090000088a3006a
:105580000800320018019000a80090004800900028
:10559000bfee07000000eb0010049800a800900088
:1055a000010c7800aff897000100fb004f04be002b
:1055b0000080fa000000060000c0da0000000600cb
:1055c0003300070005097800000006001400fa0007
:1055d000889fbe008a9fbe008c9fbe000005be0053
:1055e0000206be00680047000c90be000a90be0094
:1055f000340007006400e1001a00320016003e008b
:105600006100e1001a0032006e049000fe04900078
:105610000e0b90009e0b90006011b8009e0590004c
:105620000b38b100d5012000828171006101640056
:105630008703d1000683d3008984d3000884d30074
:105640008502e900f8ff3a00f3ef07000df0a7002c
:1056500001f0a00056003700f1ff2700f0ff2f00f7
:105660005300370001f8270000002000f7ff370043
:105670006000b800f5ff3700020ab900001bb9004e
:105680000200b800810042008100430000000600d3
:105690000003be0006f007006220e10002003200b5
:1056a0000600be0005000500e507b100f107b200e5
