:020000040000FA
:0600000069EF3BF0120065
:0600080004EF08F01200F5
:060018000CEF08F01200DD
:0610000069EF3BF0120055
:0610080005EF12F01200DA
:06101800A0EF12F012002F
:06102A00040050770000F5
:10103000C0010000090000004E770000FC00000025
:10104000020000003A770000E600000014000000F3
:0C1050006B620000FF00000001000000C7
:04105C00D9CFE6FF03
:10106000E1CFD9FFE652A09A6A6A686A706A010EF7
:10107000E66EE66AE66A710EE66E0F0EE66E93ECB9
:1010800037F0006E050EE15E0050160E6F6E9F0E7B
:101090006B6E7B0E696EDF6ADF50006E016A080EB0
:1010A000005C000E015810E2DF50040DF3CFE9FFA1
:1010B000F4CFEAFF000EE926040EEA22EE6AEE6A99
:1010C000EE6AEE6ADF2AE8D76D8C6E6A6D986D9CC9
:1010D00068A607D068960101696B6E6B6F6B706BC9
:1010E000F7D70101010E816F826F836B846B776B81
:1010F000DF6A020EDF5C26E2EA6ADF34FE0BEA36C4
:10110000E96E600EE926010EEA22EE6AED6AEA6AED
:10111000DF34FE0BEA36E96E5C0EE926010EEA22A8
:10112000EE6AED6ADF50EA6A7B0FE96E010EEA2291
:10113000EF6ADF50EA6A7D0FE96E010EEA22EF6A7C
:10114000DF2AD7D70101080E606F040E616F160EFB
:10115000706E0401200E026F040E036F080E016F03
:10116000840E006F0101566B556BE552E552E7CFD7
:10117000D9FF1200D9CFE6FFE1CFD9FFE652010136
:10118000555116E106D06D6A696A0101556BA19A45
:10119000BDD06D6A696A160E6F6E9F0E6B6E7B0E08
:1011A000696E6DB602D06D86FCD70101010E556FD8
:1011B000550508E16DBA06D0686A696A6980698870
:1011C000020E556F6850040B06E06950040B03E0F3
:1011D00068942AEC0FF06DA202D0A19A97D06850C3
:1011E000010B08E06950010B05E038DF0101040E36
:1011F000556F68906850100B06E06950100B03E0C3
:1012000015EC0FF0689868AC19D069AC0FD0010EDE
:10121000E66EE66A000EE66EE66A730EE66EE66A53
:1012200039EC1BF0006E060EE15E0050689C010177
:101230007F5101E07F077F5101E1EFD96850200B1A
:1012400005E06950200B02E0FCEC0EF06850020B48
:1012500013E06950020B10E0010EE66EE66A000E24
:10126000E66EE66AE6687F0EE66E39EC1BF0006E0D
:10127000060EE15E00506A6A040E0101E76E551920
:10128000E8AE02D0E73402D0E750555D02E2A19A01
:101290003DD069A63AD0DF6A040EDF5C36E268A66C
:1012A00031D06CCF78F101017851780BE842E842F7
:1012B000E842796F689678B508D07951EA6A7D0F6F
:1012C000E96E010EEA22EF7007D07951EA6A7B0FCE
:1012D000E96E010EEA22EF70795103E141EC0FF063
:1012E00010D0000EE66EE66A780EE66E010EE66E2F
:1012F000720EE66EE66A39EC1BF0006E060EE15ED9
:10130000005001D002D0DF2AC7D7A19AE552E5529A
:10131000E7CFD9FF1200D9CFE6FFE1CFD9FF020E08
:10132000E126FD0EDBA407D0E66AFE0EDBCFE6FF6A
:1013300005DAE552E552FD0EDBA208D0010EE66E9D
:10134000FE0EDBCFE6FFFAD9E552E552FE0EDB508A
:10135000016A700F006E0F0E012200C0DEFF01C097
:10136000DDFFDECFE9FFDDCFEAFFFD0EDBCFEFFFD4
:10137000020EE15C02E2E16AE552E16EE552E7CF7E
:10138000D9FF1200D9CFE6FFE1CFD9FF020EE12647
:10139000FD0EDB500FE0FE0EEA6ADB34FE0BEA3690
:1013A000E96E600EE926010EEA22EECFDEFFEDCFF8
:1013B000DDFF0ED0FE0EEA6ADB34FE0BEA36E96E84
:1013C0005C0EE926010EEA22EECFDEFFEDCFDDFF57
:1013D000D9CFE9FFDACFEAFFEE50ED1003E1F36A6F
:1013E000F46A49D0DECFE9FFDDCFEAFF020EE9263D
:1013F000000EEA22FB0EDBCFEEFFFC0EDBCFEDFF93
:10140000DECFE9FFDDCFEAFFEE52FA0EDBCFEFFFD2
:10141000400E006EDECFE9FFDDCFEAFF0050EF1691
:10142000880E006EDECFE9FFDDCFEAFF0050EF123D
:10143000FD0EDB500CE0FE0EEA6ADB34FE0BEA36F2
:10144000E96E600EE926010EEA22EF740BD0FE0E63
:10145000EA6ADB34FE0BEA36E96E5C0EE926010E21
:10146000EA22EF74DECF00F0DDCF01F000C0F3FF21
:1014700001C0F4FF00D0020EE15C02E2E16AE55235
:10148000E16EE552E7CFD9FF1200D9CFE6FFE1CFF9
:10149000D9FF020EE126FE0EDB5020E15AC1E9FF22
:1014A0005BC1EAFFEE52080EEF6E5AC1E9FF5BC165
:1014B000EAFF020EE926000EEA22200EEE6E040E6E
:1014C000ED6E5AC1E9FF5BC1EAFF8C0EEF6E60C1A1
:1014D000E9FF61C1EAFF840EEF6E3DD0FD0EDB50E7
:1014E000E824026EFE0EDB50040DF3500224040DBE
:1014F000F3CF00F0F4CF01F0000E0026040E01221D
:1015000000C0DEFF01C0DDFF840E006EDECFE9FF0C
:10151000DDCFEAFF0050EF12FD0EDB50E824026E33
:10152000FE0EDB50040DF3500224010F040DF3CF27
:1015300000F0F4CF01F0000E0026040E012200C0DE
:10154000DEFF01C0DDFF840E006EDECFE9FFDDCFE0
:10155000EAFF0050EF12020EE15C02E2E16AE5529E
:10156000E16EE552E7CFD9FF1200D9CFE6FFE1CF18
:10157000D9FF6DA84ED0FE0EEA6ADB34FE0BEA36C8
:10158000E96E600EE926010EEA22EE50EFCFEAFF87
:10159000E96E400EEE16EE6AEE6AEE6AFE0EEA6A3A
:1015A000DB34FE0BEA36E96E600EE926010EEA2214
:1015B000EE50EFCFEAFFE96EEE7CFE0EEA6ADB3416
:1015C000FE0BEA36E96E600EE926010EEA22EF74A0
:1015D000400E006EFE0EEA6ADB34FE0BEA36E96E60
:1015E000600EE926010EEA22EE50EFCFEAFFE96E27
:1015F0000050EF16FE0EEA6ADB34FE0BEA36E96EA7
:10160000600EE926010EEA22EE50EFCFEAFFE96E06
:10161000EF7CE552E7CFD9FF1200010181514DE186
:10162000010E816F825149E1010E826F020E655DEC
:101630000DE160C1E9FF61C1EAFFEE52EF6A60C1EE
:10164000E9FF61C1EAFFC80EEF6E37D0650535E1ED
:101650007A6B58C1E9FF59C1EAFFEE52080EEF6EEE
:1016600058C1E9FF59C1EAFF020EE926000EEA223D
:10167000200EEE6E040EED6E58C1E9FF59C1EAFF6F
:10168000840EEF6E010E7A6F5AC1E9FF5BC1EAFF6B
:10169000EE52080EEF6E5AC1E9FF5BC1EAFF020E7F
:1016A000E926000EEA22200EEE6E040EED6E5AC1FF
:1016B000E9FF5BC1EAFF800EEF6E12000101836B50
:1016C000846B020E655D1AE15AC1E9FF5BC1EAFF56
:1016D000EE52080EEF6E5AC1E9FF5BC1EAFF020E3F
:1016E000E926000EEA22280EEE6E040EED6E5AC1B7
:1016F000E9FF5BC1EAFFC80EEF6E1FD06A5104011B
:10170000265D01016B510401275904E226C46AF1E8
:1017100027C46BF1D1D860C1E9FF61C1EAFF020EB5
:10172000E926000EEA22280EEE6E040EED6E60C170
:10173000E9FF61C1EAFFC80EEF6E1200D9CFE6FFE4
:10174000E1CFD9FF020EE126000EDE6E040EDD6E43
:10175000FD0EDB50E824026EFE0EDB50040DF3504C
:101760000224040DF3CF00F0F4CF01F0D9CFE9FF4C
:10177000DACFEAFF0050EE260150ED22DECFE9FF7E
:10178000DDCFEAFFEF9EFD0EDB500FE1FE0EEA6AB1
:10179000DB34FE0BEA36E96E5C0EE926010EEA2226
:1017A000DECFEEFFDDCFEDFF0ED0FE0EEA6ADB34BA
:1017B000FE0BEA36E96E600EE926010EEA22DECF64
:1017C000EEFFDDCFEDFFDECFE9FFDDCFEAFFEF9CDF
:1017D000DECFE9FFDDCFEAFF040EE926000EEA22A4
:1017E000EF8C020EE15C02E2E16AE552E16EE55245
:1017F000E7CFD9FF12006D98010169BF2BD06EAF02
:1018000009D0020E656F845101E158DF0101826B3E
:10181000816B1FD05AC1E9FF5BC1EAFFEE52080E8F
:10182000EF6E5AC1E9FF5BC1EAFF020EE926000E26
:10183000EA22200EEE6E040EED6E5AC1E9FF5BC186
:10184000EAFF8C0EEF6E60C1E9FF61C1EAFF840E12
:10185000EF6E31D0040120AF0DD00101010E656F94
:10186000835101E12BDF0101826B816B805101E12A
:10187000D4DE21D00101020E656F5AC1E9FF5BC1C0
:10188000EAFFEE52080EEF6E5AC1E9FF5BC1EAFFB4
:10189000020EE926000EEA22200EEE6E040EED6E18
:1018A0005AC1E9FF5BC1EAFF840EEF6E826B816B68
:1018B000805101E1B2DE1200D9CFE6FFE1CFD9FFBE
:1018C000E652080EDF6E01016A5D000E6B590BE2F5
:1018D0006AC1DFFF645103E1010E646F04D0640547
:1018E00002E1020E646FDF50006E016A00506A5D13
:1018F0006A6F01506B596B6F60C1E9FF61C1EAFF0C
:10190000EE52DFCFEFFF280E746F040E756F69B1D2
:101910001CD0DF5019E066C1F6FF662B67C1F7FFE8
:10192000000E672368C1F8FF68230800F550E66ED3
:1019300074C1E9FF75C1EAFF742B000E7523E552EF
:10194000E750EF6EDF06E5D717D0DF5015E066C130
:10195000E9FF67C1EAFF662B000E6723EF50E66ED2
:1019600074C1E9FF75C1EAFF742B000E7523E552BF
:10197000E750EF6EDF06E9D7E552E552E7CFD9FF32
:101980001200D9CFE6FFE1CFD9FF020EE12658C100
:10199000E9FF59C1EAFFEE52EFCFDFFFDFCF00F0E2
:1019A000005001016F5D000E705902E26FC1DFFF50
:1019B000DF50006E016A00506F5D6F6F015070590B
:1019C000706F010EDB6ADF50F36E010EDBCFF4FFA8
:1019D000F350F45C16E2010EDB50EA6A280FE96E60
:1019E000040EEA22EF50E66E6CC1E9FF6DC1EAFF1A
:1019F0006C2B000E6D23E552E750EF6E010EDB2AD3
:101A0000E2D7000ED8806F55000E705528E25AC1FB
:101A1000E9FF5BC1EAFFEE52080EEF6E5AC1E9FF23
:101A20005BC1EAFF020EE926000EEA22280EEE6EE6
:101A3000040EED6E58C1E9FF59C1EAFFEF50400BAB
:101A400007E15AC1E9FF5BC1EAFFC80EEF6E06D09D
:101A50005AC1E9FF5BC1EAFF880EEF6E2BD05AC175
:101A6000E9FF5BC1EAFFEE52080EEF6E5AC1E9FFD3
:101A70005BC1EAFF020EE926000EEA22200EEE6E9E
:101A8000040EED6E5AC1E9FF5BC1EAFF840EEF6EF2
:101A900071517211731109E007D073C1FBFF72C15C
:101AA000FAFF01017151F96EF8DF01016E9F80515B
:101AB00001E1B3DD020EE15C02E2E16AE552E16EB2
:101AC000E552E7CFD9FF1200D9CFE6FFE1CFD9FF2A
:101AD000E6520101698F010EE66EE66AE66A710E52
:101AE000E66E0F0EE66E93EC37F0006E050EE15ECB
:101AF0000050DF6ADF50006E016A080E005C000EC5
:101B0000015810E2DF50040DF3CFE9FFF4CFEAFFF4
:101B1000000EE926040EEA22EE6AEE6AEE6AEE6A2A
:101B2000DF2AE8D76D8CDF6A020EDF5C10E2DF503F
:101B3000EA6A7B0FE96E010EEA22EF6ADF50EA6A79
:101B40007D0FE96E010EEA22EF6ADF2AEDD7010E62
:101B5000E66EE66AE66A570EE66E010EE66E93ECF6
:101B600037F0006E050EE15E00506D9C0101080E1D
:101B7000606F040E616F000E586F040E596F58C1EC
:101B80005AF159C15BF122C456F1565103E1100ECE
:101B9000556F13D0010EE66EE66A560EE66E010E24
:101BA000E66E010EE66EE66A39EC1BF0006E060E7C
:101BB000E15E00500101200E556FE552E552E7CF7E
:101BC000D9FF1200800E0401205D01E0ACD00101BC
:101BD000C00E696F04012351030A61E0010A10E09D
:101BE000030A03E00101696B9ED00101020E666FDA
:101BF000730E676F000E686F120E6A6F6B6B93D077
:101C0000AD0E006E730E016E000E026E22C403F064
:101C1000046A056A030E266E276A286A03C021F04B
:101C200004C022F005C023F010EC23F01EC003F026
:101C30001FC004F020C005F000500324F36E0150D3
:101C40000420F46E02500520F86EF4CFF7FFF3CFB6
:101C5000F6FF0900F5CF66F10900F5CF67F108003E
:101C6000F5CF68F166C1F6FF67C1F7FF68C1F8FFFD
:101C7000020EF626000EF722F8220800F5CF6AF1D0
:101C800066C1F6FF67C1F7FF68C1F8FF030EF626CD
:101C9000000EF722F8220800F5CF6BF144D0030EB6
:101CA000225D3EE2B00E006E730E016E000E026EFB
:101CB00022C403F0046A056A030E266E276A286AA6
:101CC00003C021F004C022F005C023F010EC23F083
:101CD0001EC003F01FC004F020C005F00050032414
:101CE000F36E01500420F46E02500520F86EF4CF1C
:101CF000F7FFF3CFF6FF0900F5CF66F10900F5CF46
:101D000067F10800F5CF68F166C1F6FF67C1F7FF1C
:101D100068C1F8FF0800F55001016A6F6B6B02D0D3
:101D20000101696B00D01200D9CFE6FFE1CFD9FFE6
:101D3000020EE1260401286B296B20511F0B020AB9
:101D400012E0030A0DE0010A01E042D00101698FAF
:101D5000040128810101760502E10401288338D0BD
:101D60000101698F35D00101698F040124BF10D0B2
:101D700024510F0BE96EEA6AD890E936EA365C0E18
:101D8000E926010EEA22EECFDEFFEDCFDDFF0FD018
:101D900024510F0BE96EEA6AD890E936EA36600EF4
:101DA000E926010EEA22EECFDEFFEDCFDDFFDECF2A
:101DB000E9FFDDCFEAFFEF50800B09E0DECFE9FF5E
:101DC000DDCFEAFFEF50040B02E0010E286F00D0D8
:101DD000010169AF07D0280E666F040E676F698135
:101DE000020E6A6F020EE15C02E2E16AE552E16E08
:101DF000E552E7CFD9FF120070A015D058C1E9FF16
:101E000059C1EAFFEF5080080DE160C1E9FF61C1EF
:101E1000EAFFEF50840806E158C1E9FF59C1EAFF23
:101E20008C0EEF6E7090689A1200698468986D82CB
:101E30000101010E776F000EE66EE66AE66EE66A55
:101E4000750EE66EE66A39EC1BF0006E060EE15E7A
:101E5000005012000101776B000EE66EE66AE66E36
:101E6000E66A740EE66EE66A39EC1BF0006E060E4A
:101E7000E15E00506D92699468A402D06894FCD72A
:101E80001200D9CFE6FFE1CFD9FFE65201012D0EB6
:101E90007F6FFD0E781553E17E0E7815E8407F0BBD
:101EA000040DF3CF58F1F4CF59F1000E5827040E6A
:101EB000592358C15AF159C15BF15A7558C1E9FF0C
:101EC00059C1EAFFEF503C0BE842E8420D0835E10A
:101ED000DF6A080EDF5C23E258C1E9FF59C1EAFF5F
:101EE000020EE926000EEA22EE50EFCFEAFFE96E7D
:101EF000EF50E66EDF50EA6A200FE96E040EEA2228
:101F0000E552E750EF6E58C1E9FF59C1EAFF020EF2
:101F1000E926000EEA22EE2AEF22DF2ADAD758C19C
:101F2000E9FF59C1EAFF020EE926000EEA22200E5F
:101F3000EE6E040EED6E0DD801D03AD805D0FD0E30
:101F40007815040801E159D8E552E552E7CFD9FFE9
:101F500012000101646B806B836B846B7A6B656B21
:101F600060C1E9FF61C1EAFFEF9E607560C1E9FFF2
:101F700061C1EAFFEF9E60755AC1E9FF5BC1EAFFEC
:101F8000EF9E696B6A6B6B6B6E6B6F6B706B92D84D
:101F9000000EE66EE66AE66EE66A030EE66EE66A36
:101FA00039EC1BF0006E060EE15E0050FBEF0BF00B
:101FB000020E0101655D02E1E4DC1ED0656B7A5121
:101FC0001AE15AC1E9FF5BC1EAFFEE52080EEF6E5B
:101FD0005AC1E9FF5BC1EAFF020EE926000EEA22C0
:101FE000200EEE6E040EED6E5AC1E9FF5BC1EAFFF2
:101FF0008C0EEF6E01D07A6B1200D9CFE6FFE1CFE5
:10200000D9FFE65260C1E9FF61C1EAFFEF50400B22
:1020100001E0010EDF6E01016075080E555D09E1FA
:1020200022C46EFF6E5003E0100E556F02D0040EF6
:10203000556F650528E160C1E9FF61C1EAFF020E45
:10204000E926000EEA22280EEE6E040EED6E34DC58
:10205000020E0101645D07E160C1E9FF61C1EAFFB1
:10206000840EEF6E0FD0DF5007E160C1E9FF61C160
:10207000EAFFC80EEF6E06D060C1E9FF61C1EAFF5A
:10208000880EEF6E12D06EAF0FD0715172117311B6
:1020900009E007D073C1FBFF72C1FAFF0101715162
:1020A000F96EF8DF01016E9F656BE552E552E7CFEF
:1020B000D9FF120004012051600BE842E842E842D7
:1020C000E842E842000901E058D021510C0A54E0EE
:1020D0000B0A43E00C0A35E0010A26E00B0A22E075
:1020E000020A20E0030A1CE0080A10E0010A0CE0E2
:1020F0000F0A08E0030A01E03FD00101698F080ED2
:10210000556F3BD05FDD39D0DFDC37D00101560E93
:10211000666F010E676F6981010E6A6F698F2DD03E
:1021200003DE2BD02BD829D024510101666F676BB9
:10213000570E6627010E67236981010E6A6F698F4A
:102140001CD00101698F04012451EA6A570FE96E1E
:10215000010EEA2222C4EFFF10D0000EE66EE66AFE
:10216000E66EE66A020EE66EE66A39EC1BF0006E79
:10217000060EE15E005001D000D01200D9CFE6FF7C
:10218000E1CFD9FF050EE1260401220510E120511F
:102190001F0B00090CE10101698F030E0401215D91
:1021A00004E10101010E766F02D00101766B04019A
:1021B000225101E020D120511F0B020801E01BD168
:1021C00024510F0B000901E116D124510F0B010816
:1021D00001E211D1200E0101555D01E00CD1698FA2
:1021E000040124BF1AD024510F0BE96EEA6AD8907B
:1021F000E936EA365C0EE926010EEA22EECFDEFF72
:10220000EDCFDDFF24510F0BEA6A7D0FE96E010E61
:10221000EA22020EEFCFDBFF19D024510F0BE96E3B
:10222000EA6AD890E936EA36600EE926010EEA221B
:10223000EECFDEFFEDCFDDFF24510F0BEA6A7B0FFF
:10224000E96E010EEA22020EEFCFDBFFD950020F3A
:10225000E96EDACFEAFFEF50010B03E1000EDF94E5
:1022600001D0DF8424BF10D024510F0BE96EEA6A3D
:10227000D890E936EA365C0EE926010EEA22DECF76
:10228000EEFFDDCFEDFF0FD024510F0BE96EEA6AB0
:10229000D890E936EA36600EE926010EEA22DECF52
:1022A000EEFFDDCFEDFF030E215D23E1DECFE9FF81
:1022B000DDCFEAFFEF50800B13E024BF09D024519B
:1022C0000F0BEA6A7D0FE96E010EEA22EF8208D059
:1022D00024510F0BEA6A7B0FE96E010EEA22EF82AE
:1022E000840E006EDECFE9FFDDCFEAFF0050EF1273
:1022F00082D0DF74DECFE9FFDDCFEAFFEF50800B45
:102300001BE0DECFE9FFDDCFEAFFEF9EDECFE9FF86
:10231000DDCFEAFFEF8C020EE66EE66ADECFE6FF67
:10232000DDCFE6FF050EE66EE66A39EC1BF0006EC7
:10233000060EE15E005005D0DECFE9FFDDCFEAFFFB
:10234000EF8CDF74D950020FE96EDACFEAFFEF505D
:10235000020B07E1DECFE9FFDDCFEAFFEF50800B94
:102360002DE0040124BF09D024510F0BEA6A7D0F30
:10237000E96E010EEA22EF9208D024510F0BEA6AAF
:102380007B0FE96E010EEA22EF923B0E006EDECF6C
:10239000E9FFDDCFEAFF0050EF16020EE66EE66AB7
:1023A000DECFE6FFDDCFE6FF050EE66EE66A39EC2E
:1023B0001BF0006E060EE15E005008D03B0E006E72
:1023C000DECFE9FFDDCFEAFF0050EF160401245114
:1023D0000F0B016A700F006E0F0E0122030E00C07A
:1023E000DBFF040E01C0DBFF030EDBCFE9FF040EB1
:1023F000DBCFEAFFEF90050EE15C02E2E16AE55215
:0A240000E16EE552E7CFD9FF1200AC
:06240A00DACFE4FFE2CF8F
:10241000DAFFE9CFE4FFEACFE4FFF6CFE4FFF7CF3E
:10242000E4FFF8CFE4FFF5CFE4FFF3CFE4FFF4CF10
:10243000E4FFFACFE4FFFBCFE4FF00EE1AF0140E46
:10244000E80403E3EECFE4FFFBD700EE00F01A0E42
:10245000E80403E3EECFE4FFFBD7E652F2A207D095
:10246000F2920001EA5102E02EEC2AF041D0F0A0F5
:1024700002D0F0903DD0F0A210D0F092010EE66EA6
:102480004E0EE66E620EE66E000EE66E54EC38F00E
:10249000E552E552E552E5522BD0F2A429D00001D5
:1024A000E62BE651010B18E1E7C0E6FFE8C0E6FFC6
:1024B0004CEC39F0E552E5520001E96FE9C0BEFF8E
:1024C000E72B000EE823E75D010EE85905E2E9C0BD
:1024D000E6FF1DEC38F0E5520001E6512E6E2F6A42
:1024E000FF0E2E1801E12F5001E1E66BF29400D0AF
:1024F000E55200EE19F01A0EE80403E3E5CFEDFF14
:10250000FBD700EE2DF0140EE80403E3E5CFEDFF5A
:10251000FBD7E5CFFBFFE5CFFAFFE5CFF4FFE5CF33
:10252000F3FFE5CFF5FFE5CFF8FFE5CFF7FFE5CF08
:10253000F6FFE5CFEAFFE5CFE9FFE5CFDAFF1100CF
:10254000D8CFE4FFE0CFE4FFE46EDACFE4FFE2CFE0
:10255000DAFFE652E552E5CFDAFFE550E5CFE0FFDE
:10256000E5CFD8FF1000D9CFE6FFE1CFD9FF250E88
:10257000E1260E0EDB6A0F0EDB6A100EDB6A110E0F
:10258000DB6AFEEC16F065909680969296948D82AA
:10259000C290C19AC198C180C192C184C186C08EC7
:1025A000C086C088C08AC090C082C0849280C28029
:1025B000929A928893849398939A959E959C959AD3
:1025C000959894809492949477EC2DF045EC2DF0AE
:1025D00013EC2DF08EEC38F0E66A3D0EE66E620EDE
:1025E000E66E000EE66E54EC38F0E552E552E55228
:1025F000E552010EE66E320EE66E620EE66E000EDB
:10260000E66E54EC38F0E552E552E552E55212EC34
:102610002AF00001010EEA6FF8EC32F00101126FAE
:1026200012510FE0030EE66E240EE66E620EE66EA9
:10263000000EE66E4DEC2EF0E552E552E552E55205
:102640000ED0030EE66E160EE66E620EE66E000EFD
:10265000E66E4DEC2EF0E552E552E552E55294EC73
:1026600025F00101026F025101E0E0D0036B046B21
:10267000290E056F066B140E076F086B1E0E096F8F
:102680000A6B070E0B6F0C6B060E0D6F0E6B0C0EAC
:102690000F6F106B03C1E6FF04C1E6FF05C1E6FF43
:1026A00006C1E6FF07C1E6FF08C1E6FF0BC1E6FF72
:1026B0000CC1E6FF0FC1E6FF10C1E6FF0DC1E6FF4A
:1026C0000EC1E6FF09C1E6FF0AC1E6FFD8EC25F01E
:1026D000006E0E0EE15E0050D950080FE66E000E3F
:1026E000DA20E66ED9500C0FE66E000EDA20E66EA8
:1026F000D9500A0FE66E000EDA20E66ED950060FAA
:10270000E66E000EDA20E66E65EC26F0006E080E2E
:10271000E15E0050D9CFE6FFDACFE6FFD950020FD5
:10272000E66E000EDA20E66ED950040FE66E000E5B
:10273000DA20E66EE4EC26F0006E060EE15E005054
:1027400009C100F00AC101F0060EDB50001803E1D8
:10275000070EDB50011847E10DC102F00EC103F076
:102760000A0EDB50021803E10B0EDB5003183BE1AD
:102770000FC104F010C105F00C0EDB50041803E18A
:102780000D0EDB5005182FE10BC106F00CC107F050
:10279000080EDB50061803E1090EDB50071823E191
:1027A00007C108F008C109F0040EDB50081803E166
:1027B000050EDB50091817E105C10AF006C10BF040
:1027C000020EDB500A1803E1030EDB500B180BE17D
:1027D000DECF0CF0DDCF0DF00C500101031902E14A
:1027E0000D50041902E0000E01D0010E0101116F1D
:1027F00011510EE0E66A080EE66E620EE66E000EFD
:10280000E66E4DEC2EF0E552E552E552E5520DD064
:10281000E66AFB0EE66E610EE66E000EE66E4DECAD
:102820002EF0E552E552E552E55202D0010E116F4D
:1028300072EC2BF00101006FF00EE66E000EE66EFA
:10284000EF0EE66E000EE66E01EC2FF0E552E5525B
:10285000E552E5520101016F010EE66EF00EE66EE3
:10286000610EE66E000EE66E4DEC2EF0E552E5527E
:10287000E552E55236EC31F0D00EE66E610EE66EB2
:10288000000EE66E130EE66E010EE66EDEEC39F01B
:10289000006E050EE15E0050130EE66E010EE66E50
:1028A0003EEC31F0E552E5529B0EE66E610EE66EAF
:1028B000000EE66E130EE66E010EE66EDEEC39F0EB
:1028C000006E050EE15E0050130EE66E010EE66E20
:1028D0003EEC31F0E552E552830EE66E610EE66E97
:1028E000000EE66E130EE66E010EE66EDEEC39F0BB
:1028F000006E050EE15E0050130EE66E010EE66EF0
:102900003EEC31F0E552E5528D92BAEC08F08BDAEC
:10291000100EDBCF00F0110EDBCF01F0300E276E72
:10292000750E286E00C022F001C023F021EC3BF0B0
:102930001EC000F01FC001F00050011001E04ED297
:10294000100EDB6A110EDB6A010111515CE00251CD
:102950005AE00B0EE66E010EE66E0F0EE66E010EED
:10296000E66E0D0EE66E010EE66E090EE66E010EC7
:10297000E66E65EC26F0006E080EE15E0050030E78
:10298000E66E010EE66E050EE66E010EE66E070EB1
:10299000E66E010EE66EE4EC26F0006E060EE15ED9
:1029A00000500DC1E6FF0EC1E6FF09C1E6FF0AC1F6
:1029B000E6FF03C1E6FF04C1E6FF05C1E6FF06C16D
:1029C000E6FF07C1E6FF08C1E6FF6A0EE66E610E8C
:1029D000E66E000EE66ED950120FE66E000EDA209B
:1029E000E66EDEEC39F0006E0F0EE15E0050E66A36
:1029F000D950120FE66E000EDA20E66E85EC2EF04E
:102A0000E552E552E552F00EE66E000EE66EEF0E70
:102A1000E66E000EE66E01EC2FF0E552E552E5524F
:102A2000E5520101016F015117E00001EF51E66E1F
:102A3000E66A640EE66E610EE66E000EE66ED95032
:102A4000120FE66E000EDA20E66EDEEC39F0006E54
:102A5000070EE15E005012D0600EE66E610EE66E6B
:102A6000000EE66ED950120FE66E000EDA20E66E0A
:102A7000DEEC39F0006E050EE15E00500101005100
:102A80003DE00DEC2CF020C0EBF021C0ECF022C0BA
:102A9000EDF023C0EEF0EBC0E6FFECC0E6FFEDC0CA
:102AA000E6FFEEC0E6FF4AEC27F0E552E552E552BC
:102AB000E552200EF3CFDBFF210EF4CFDBFF200E1B
:102AC000DBCFE6FF210EDBCFE6FFD950120FE66E1B
:102AD000000EDA20E66E570EE66E610EE66E000E10
:102AE000E66ED950120FE66E000EDA20E66EDEECCE
:102AF00039F0006E090EE15E00501ED0200EDBCFD3
:102B0000E6FF210EDBCFE6FFD950120FE66E000E76
:102B1000DA20E66E4F0EE66E610EE66E000EE66E91
:102B2000D950120FE66E000EDA20E66EDEEC39F0B8
:102B3000006E090EE15E0050C284C296C298C29A2D
:102B4000C282C2B2FED7C3CF22F0C4CF23F0A4EC1E
:102B500021F021C004F022C005F023C006F024C0FB
:102B600007F09A0E266E990E276E190E286E400EEB
:102B7000296E04C021F005C022F006C023F007C072
:102B800024F0A3EC22F021C000F022C001F023C009
:102B900002F024C003F0266A276A400E286E296ED0
:102BA00000C021F001C022F002C023F003C024F0D5
:102BB00050EC22F080EC23F022C0F1F00001F15142
:102BC000E66EE66AD950120FE66E000EDA20E66E67
:102BD000460EE66E610EE66E000EE66ED950120FDE
:102BE000E66E000EDA20E66EDEEC39F0006E090EBD
:102BF000E15E0050020EE66ED950120FE66E000E36
:102C0000DA20E66E85EC2EF0E552E552E552F30E41
:102C1000E66E000EE66E7CEC36F0E552E552000101
:102C2000F26F020EF25D17E1F3C0E6FFF4C0E6FFBB
:102C30003F0EE66E610EE66E000EE66ED950120F84
:102C4000E66E000EDA20E66EDEEC39F0006E070E5E
:102C5000E15E005027D0F20513E1360EE66E610EFC
:102C6000E66E000EE66ED950120FE66E000EDA2008
:102C7000E66EDEEC39F0006E050EE15E005012D01B
:102C80002D0EE66E610EE66E000EE66ED950120F46
:102C9000E66E000EDA20E66EDEEC39F0006E050E10
:102CA000E15E0050010101511DE00001F051E66EAE
:102CB000E66AD950120FE66E000EDA20E66E230E99
:102CC000E66E610EE66E000EE66ED950120FE66EED
:102CD000000EDA20E66EDEEC39F0006E090EE15EE1
:102CE000005018D0D950120FE66E000EDA20E66EB2
:102CF0001C0EE66E610EE66E000EE66ED950120FE7
:102D0000E66E000EDA20E66EDEEC39F0006E070E9D
:102D1000E15E0050040EE66ED950120FE66E000E12
:102D2000DA20E66E85EC2EF0E552E552E552815050
:102D3000040B13E18450010B10E0050EE66E0E0E3D
:102D4000E66E610EE66E000EE66E4DEC2EF0E5527C
:102D5000E552E552E5528A8A41D08150040B13E1D5
:102D60008450010B10E1050EE66E000EE66E610E5A
:102D7000E66E000EE66E4DEC2EF0E552E552E552A1
:102D8000E5528A8A2BD08150040B13E08450010B4A
:102D900010E0050EE66EF20EE66E600EE66E000EB8
:102DA000E66E4DEC2EF0E552E552E552E5528A8A88
:102DB00015D08150040B12E08450010B0FE1050E79
:102DC000E66EE40EE66E600EE66E000EE66E4DEC0C
:102DD0002EF0E552E552E552E5528A9A100EDB2AB2
:102DE000110E01E3DB2A91D5250EE15C02E2E16AD6
:102DF000E552E16EE552E7CFD9FF12000F0EC16E2A
:102E0000926A936A946A956A966A806A816A826A0B
:102E1000836A846A02D82EEF08F00001F56BF66B26
:102E2000F76BF86B1200D9CFE6FFE1CFD9FF060EA2
:102E3000E126DE6ADD6A020EDB6A030EDB6A200E23
:102E40000101E76E5519E8AE02D0E73402D0E75031
:102E5000555D03E36D50020B01E08FD30001F55186
:102E6000F61102E1000E08D0F5C0E9FFF6C0EAFF56
:102E7000EF50800B01E0010E000901E07ED3050157
:102E80000051980A01E140D30F0A01E116D3010A6B
:102E900001E1E4D2030A01E1B7D2010A01E19AD2C9
:102EA000070A01E167D2010A01E113D21B0A01E11D
:102EB000E7D1010A01E1CAD10F0A01E14FD1010AAC
:102EC00001E126D1030A01E1E8D0010A01E1A3D022
:102ED000070A2FE0930A01E03DD3400EE66E050E8F
:102EE000E66ED7EC31F0E552E5520001F751F811EA
:102EF00002E1000E08D0F7C0E9FFF8C0EAFFEF508A
:102F0000800B01E0010E000913E1400EE66E400E59
:102F1000E66E050EE66E010EE66EE66EC2EC09F098
:102F2000006E050EE15E0050F3CFF7F0F4CFF8F03D
:102F300011D30101005103E10501406B48D00501A7
:102F40004069EBC021F0ECC022F0EDC023F0EEC0F0
:102F500024F059EC23F023C041F541C523F093EC54
:102F600021F021C004F022C005F023C006F024C0E7
:102F700007F004C026F005C027F006C028F007C0FF
:102F800029F0EBC021F0ECC022F0EDC023F0EEC040
:102F900024F0B9EC21F021C000F022C001F023C0E0
:102FA00002F024C003F0266A276A800E286E430EC2
:102FB000296E00C021F001C022F002C023F003C03E
:102FC00024F0A3EC22F059EC23F023C042F50001D9
:102FD000F751F81102E1000E08D0F7C0E9FFF8C080
:102FE000EAFFEF50800B01E0010E000913E1400EF3
:102FF000E66E400EE66E050EE66E010EE66EE66EBD
:10300000C2EC09F0006E050EE15E0050F3CFF7F060
:10301000F4CFF8F09FD20101115111E002510FE0FD
:10302000050140690FC141F50DC142F509C143F5E4
:1030300007C144F505C145F503C146F50AD0115154
:1030400006E0025104E10501F00E406F02D00501D7
:10305000406B0001F751F81102E1000E08D0F7C0F3
:10306000E9FFF8C0EAFFEF50800B01E0010E000914
:1030700013E1400EE66E400EE66E050EE66E010EA2
:10308000E66EE66EC2EC09F0006E050EE15E0050E1
:10309000F3CFF7F0F4CFF8F05DD20101115137E032
:1030A000BA0EE66E600EE66E000EE66E130EE66E6B
:1030B000010EE66EDEEC39F0006E050EE15E0050AA
:1030C000130EE66E010EE66E3EEC31F0E552E5526F
:1030D00005010751E66EE66A0651E66EE66A05519D
:1030E000E66EE66A0451E66EE66A0151E66EE66A4D
:1030F0000251E66EE66A0351E66EE66AD8EC25F008
:10310000006E0E0EE15E00500101010E026F22D230
:1031100012C140F50001F751F81102E1000E08D08C
:10312000F7C0E9FFF8C0EAFFEF50800B01E0010EA5
:10313000000913E1400EE66E400EE66E050EE66EE7
:10314000010EE66EE66EC2EC09F0006E050EE15E61
:103150000050F3CFF7F0F4CFF8F0FCD18D820101ED
:10316000125172E0050101510CE102510AE182A005
:1031700003D0BEEC32F0FBD7C5EC32F0000901E120
:10318000FBD70001F751F81102E1000E08D0F7C09B
:10319000E9FFF8C0EAFFEF50800B01E0010E0009E3
:1031A00053E1DE6ADD6ADECF00F0DDCF01F0D890BA
:1031B000015004E6200E005C000E015832E2BEEC25
:1031C00032F0C294C296C298C29AC282C2B2FED7EC
:1031D000C4CF00F0016ADECFE9FFDDCFEAFFD8906F
:1031E000E936EA36400EE926050EEA2200C0EFFF76
:1031F000C350E66EDECFE9FFDDCFEAFFD890E936B7
:10320000EA36010EE926000EEA22400EE926050EF6
:10321000EA22E552E750EF6EDF2A010E01E3DB2AD6
:10322000C2D7400EE66E400EE66E050EE66E010E4B
:10323000E66EE66EC2EC09F0006E050EE15E00502F
:10324000F3CFF7F0F4CFF8F08D9284D18A0EE66ECA
:10325000600EE66E000EE66E130EE66E010EE66E72
:10326000DEEC39F0006E050EE15E0050130EE66EE6
:10327000010EE66E3EEC31F0E552E5528A7A6AD1F3
:103280008A50200B01E0010E406F0001F751F81148
:1032900002E1000E08D0F7C0E9FFF8C0EAFFEF50E6
:1032A000800B01E0010E000913E1400EE66E400EB6
:1032B000E66E050EE66E010EE66EE66EC2EC09F0F5
:1032C000006E050EE15E0050F3CFF7F0F4CFF8F09A
:1032D00041D1040EDB6A050EDB6A8FEC29F0E76E44
:1032E000050EE7CFDBFFDB500EE0040EDB2ADBCF61
:1032F000E9FFEA6AE9BEEA68400EE926050EEA221D
:10330000050EDBCFEFFF040EDBCF00F03F0EE76EC4
:103310000018E8AE02D0E73402D0E750005C03E2C8
:10332000050EDB50DAE1040EDBCF40F50001F7516A
:10333000F81102E1000E08D0F7C0E9FFF8C0EAFF7B
:10334000EF50800B01E0010E000913E1400EE66E24
:10335000400EE66E050EE66E010EE66EE66EC2ECFF
:1033600009F0006E050EE15E0050F3CFF7F0F4CFE8
:10337000F8F0F0D00101015103E10501406B06D0E6
:1033800005014069EFC041F5F0C042F50001F75179
:10339000F81102E1000E08D0F7C0E9FFF8C0EAFF1B
:1033A000EF50800B01E0010E000913E1400EE66EC4
:1033B000400EE66E050EE66E010EE66EE66EC2EC9F
:1033C00009F0006E050EE15E0050F3CFF7F0F4CF88
:1033D000F8F0C0D05F0EE66E600EE66E000EE66E90
:1033E000130EE66E010EE66EDEEC39F0006E050E91
:1033F000E15E0050130EE66E010EE66E3EEC31F01B
:10340000E552E552D58EA6D08150040B040A01E0A6
:10341000010E406F0001F751F81102E1000E08D0D3
:10342000F7C0E9FFF8C0EAFFEF50800B01E0010EA2
:10343000000913E1400EE66E400EE66E050EE66EE4
:10344000010EE66EE66EC2EC09F0006E050EE15E5E
:103450000050F3CFF7F0F4CFF8F07CD0F2C040F595
:10346000F4C000F0016A00C041F50001F35105010C
:10347000426F0001F751F81102E1000E08D0F7C0C9
:10348000E9FFF8C0EAFFEF50800B01E0010E0009F0
:1034900013E1400EE66E400EE66E050EE66E010E7E
:1034A000E66EE66EC2EC09F0006E050EE15E0050BD
:1034B000F3CFF7F0F4CFF8F04DD08450010B406F0C
:1034C0000001F751F81102E1000E08D0F7C0E9FF42
:1034D000F8C0EAFFEF50800B01E0010E000913E194
:1034E000400EE66E400EE66E050EE66E010EE66ECE
:1034F000E66EC2EC09F0006E050EE15E0050F3CFFF
:10350000F7F0F4CFF8F026D0F1C040F50001F75104
:10351000F81102E1000E08D0F7C0E9FFF8C0EAFF99
:10352000EF50800B01E0010E000913E1400EE66E42
:10353000400EE66E050EE66E010EE66EE66EC2EC1D
:1035400009F0006E050EE15E0050F3CFF7F0F4CF06
:10355000F8F000D0400EE66E000EE66E050EE66E48
:10356000E66A010EE66EC2EC09F0006E050EE15E41
:103570000050F3CFF5F0F4CFF6F0060EE15C02E276
:10358000E16AE552E16EE552E7CFD9FF1200010E84
:10359000E66E500EE66E600EE66E000EE66E4DECC8
:1035A0002EF0E552E552E552E5528B9412001200DE
:1035B0001200010EE66E410EE66E600EE66E000E23
:1035C000E66E4DEC2EF0E552E552E552E5528B9455
:1035D00012009BEF38F012001E0EE66E010EE66E32
:1035E0008BEC09F0E552E552400EE66E000EE66EF9
:1035F000050EE66EE66A010EE66EC2EC09F0006E9C
:10360000050EE15E0050F3CFF5F0F4CFF6F0010EB9
:10361000E66E320EE66E600EE66E000EE66E4DEC65
:103620002EF0E552E552E552E5528B84120001017D
:1036300076051EE1010177051BE1B9DF6D920101FD
:10364000776B0101100E536F0E0E546F5307000E6F
:10365000545B53515411FAE16D84080E536F070EF9
:10366000546F5307000E545B53515411FAE16D949B
:103670001200D9CFE6FFE1CFD9FFFD0EDBCF22F05C
:10368000FE0EDBCF23F0E868221802E17F0E23183C
:1036900031E0030E221801E123502AE0020E221825
:1036A00001E1235023E0010E221801E123501CE028
:1036B000740E221801E1235015E0750E221801E165
:1036C00023500EE0730E221801E1235007E0720E22
:1036D000221801E1235001E00FD00ED069DF0CD099
:1036E00056DF0AD064DF08D077DF06D074DF04D05D
:1036F00070DF02D05EDF00D0010E00D0E552E7CFD0
:04370000D9FF1200DB
:0C370400BEEC20F0FB0EDBCFF3FFDB0679
:10371000F35000090AE00CEC21F0FA0E77EC21F0EE
:10372000F3E1011CF1E1010E01D0000EEDEF20F0FC
:10373000BEEC20F03B0EE12402E3E168E652E16ECC
:10374000010EDB6A020EDB6AF90EDBCFF6FFFA0E22
:10375000DBCFF7FFFB0EDBCFF8FF0800F550DF6E85
:10376000DF5002E111EF20F0250EDF5C02E004EFF4
:1037700020F0030EDB6A040EDB6A050EDB6A060E20
:10378000DB6A070EDB6A26EC20F02D0EDF5C0CE016
:103790002B0EDF5C09E0200EDF5C06E0230EDF5C11
:1037A00003E0300EDF5C1AE1DF50300A14E0130A48
:1037B0000FE0030A0AE00B0A05E0060AE4E1030E43
:1037C000DB80E1D7030EDB82DED7030EDB84DBD7A1
:1037D000030EDB86D8D7030EDB88D5D72A0EDF5C35
:1037E0001BE122EC20F070EC20F010E0030EDB80F7
:1037F00022682368130EDBCF27F0140EDBCF28F0EE
:103800009CEC24F0040E20C0DBFF03D0130E59EC17
:1038100020F026EC20F00BD0090EDB6AC7EC20F07C
:1038200003E03BEC21F0FAD7090E59EC20F0030E2F
:10383000DBB0DB982E0EDF5C1BE126EC20F02A0EBD
:10384000DF5C0BE122EC20F070EC20F003E1130EC2
:10385000ABEC20F026EC20F00BD0090EDB6AC7ECB5
:1038600020F003E03BEC21F0FAD7090EABEC20F09E
:10387000680EDF5C07E126EC20F0680EDF5C1DE1DE
:10388000030E18D0740EDF5C17E07A0EDF5C14E0D4
:10389000480EDF5C06E0540EDF5C03E05A0EDF5C8E
:1038A00002E1020E07D06C0EDF5C03E06A0EDF5C03
:1038B00004E1010EFEEC20F0C9DBDF506E0A01E1ED
:1038C0007FD31E0A01E192D1200A01E18FD13F0A84
:1038D00001E149D11A0A01E146D10D0A01E143D1C2
:1038E000200A01E140D13A0A01E13DD1200A01E17B
:1038F0003AD1260A01E135D10D0A01E132D11A0A85
:1039000001E1D9D0200A4AE0300A1FE0460A0EE061
:10391000250A01E083D3D950F90FE96EFF0EDA20B2
:10392000EA6E010EEE5E000EEE5AEE5A0CEC21F03D
:10393000250EE66E95DB03E1011C01E169D308EC7D
:1039400021F001E26BD3DB2A69D3080EDB6A040E97
:10395000DB50010806E2040EDB04D0EC20F0DB5063
:103960008BDB080EDB5009E0030EDB50010B05E199
:1039700072DB01E04DD3080EDB6A64DBEFCFDFFFC3
:1039800080EC21F003E1011C01E142D308EC21F0BD
:1039900001E3DB2A60DB01E141D33AD3070EDB50C0
:1039A00002080FE14CEC21F0030E13EC21F00E0E97
:1039B000EECFDBFF0F0EEECFDBFF100EEECFDBFF07
:1039C00020D0F70EDBCF03F0F80EDBCF04F0020EB1
:1039D000035E000E045AF70E03C0DBFFF80E04C0AE
:1039E000DBFF03C0E9FF04C0EAFF03EC21F0026A39
:1039F0000E0E00C0DBFF0F0E01C0DBFF100E02C079
:103A0000DBFF0E0EDBCFE6FF0F0EDBCFE6FF100E67
:103A1000DBCFE6FFF8EC37F0E552E552E552130E46
:103A200021C0DBFF140E22C0DBFF060EDB5005E0D9
:103A3000130E47EC21F001E26ADB6BEC21F002E2AD
:103A4000130E37DB2EEC21F006E0040E47EC21F0DC
:103A500002E2050E2EDB030EDBB005D0FCDA01E03E
:103A6000D7D2080EDB6A090EDB6A0E0EDBCFF6FF3B
:103A70000F0EDBCFF7FF100EDBCFF8FF0800F5507D
:103A8000DF6EDF5014E071EC21F011E280EC21F0E8
:103A900003E1011C01E1BCD2BBDB01E3DB2A090E1F
:103AA000DB2AD9500E0FE96E000ECBDBE7D7D3DA55
:103AB00001E1B4D2ADD2C6DA110EEECFDBFF120EA9
:103AC000EDCFDBFF110EDBCFE6FF120EDBCFE6FF03
:103AD000EAEC37F0E552E552130EF3CFDBFF140E9C
:103AE000F4CFDBFF060EDB5004E0130ED0DB01E267
:103AF0000EDB6BEC21F002E2130EDBDAAFDB05E04C
:103B0000040EC5DB02E2050ED4DA030EDBB005D0ED
:103B1000A2DA01E07DD2080EDB6A090EDB6A110E23
:103B2000DBCFE9FF120EDBCFEAFFEFCFDFFFDF5085
:103B300014E0D7DB12E2E4DB03E1011C01E168D20F
:103B400067DB01E3DB2A090EDB2A110EDB2ADBCF60
:103B5000E9FF120EE8E3DB2AE6D77DDA01E15ED267
:103B600057D2030EDB8E070EDB0410E195DB040E4B
:103B70005ADB0A0EEECFDBFF0B0EEECFDBFF0C0E97
:103B8000EECFDBFF0D0EEECFDBFF6CD0070EDB5070
:103B900003082CE1030EDBAE0DD0B2DA020E76DAAA
:103BA000EFCF00F0016A026A036A00AE39D0016803
:103BB000026835D0F70EDBCF01F0F80EDBCF02F054
:103BC000020E015E000E025AF70E01C0DBFFF80E76
:103BD00002C0DBFF01C0E9FF02C0EAFFEFCF00F047
:103BE0000A0E00C0DBFF0B0EDB6A38D0070EDB507D
:103BF000020809E1030EDBAE04D059DB02AE10D09F
:103C00000ED055DB0DD0030EDBAE12D079DA020EEA
:103C10003DDAF9DA026A036A01AE02D0026803688B
:103C2000E2DA0C0E02C0DBFF0D0E03C0DBFF1AD080
:103C3000F70EDBCF02F0F80EDBCF03F0020E025ED0
:103C4000000E035AF70E02C0DBFFF80E03C0DBFFC5
:103C500002C0E9FF03C0EAFFD6DAC5DA0C0EDB6A60
:103C60000D0EDB6A060EDB5005E1010EF36E050E4C
:103C7000F3CFDBFF150EDB6A160EDB6AD950370F68
:103C8000006E000EDA20016E390E00C0DBFF3A0E26
:103C900001C0DBFF380EDB6A080EDB6A0A0EAEDA03
:103CA000DF50780A12E0200A10E0280A0CE0200A0F
:103CB0000AE03F0A06E00D0A02E0200A08E1020ECF
:103CC00005D0080E03D0080EDF26100E97DA030E7B
:103CD000DBBE02D0DB92DB94DB50800B24E08ADA7F
:103CE000D890030EEB50000A08E6000EEE5C000EC2
:103CF000EE58000EEE58000EEE5815E213DA256865
:103D0000266827682868C5EC3AF00A0E1CC0DBFF5D
:103D10000B0E1DC0DBFF0C0E1EC0DBFF0D0E1FC007
:103D2000DBFF2D0E08D0030EDBA202D02B0E03D03A
:103D3000DBA408D0200EF36E170EF3CFDBFF150EB9
:103D4000DB2A02D0170EDB6A050EDB5003E1B7D980
:103D500001E189D0200E006E770E016E000E026E1A
:103D6000070EDBCF03F0046A056A066A03C025F07C
:103D700004C026F005C027F006C028F0D3D9FDEC1A
:103D80003AF000501C24F36E01501D20F46E0250D6
:103D90001E20F86EF4CFF7FFF3CFF6FF0800090EF0
:103DA000F5CFDBFF580EDF5C0FE1610EF36E090EFD
:103DB0007BD90AE3200E006E090EDBCFE7FF00502F
:103DC000E75E090EE7CFDBFF070EDBCF00F0016AED
:103DD000026A036A0FDA00C025F001C026F002C0B3
:103DE00027F003C028F0EECF20F0EECF21F0EECF89
:103DF00022F0EFCF23F0FDEC3AF023C0EDFF22C01C
:103E0000EDFF21C0EDFF20C0EFFF390EDBCFE9FF52
:103E1000DB063A0EDBCFEAFF01E2DB06090EDBCF61
:103E2000EFFF150EDB2A4BD995E1030EDBA61DD063
:103E30006F0EDF5C06E1C1D918E3150EDB285BDAF3
:103E400014D0780EDF5C09E0580EDF5C06E0620EED
:103E5000DF5C03E0420EDF5C08E1020EF36E160E3B
:103E6000F3CFDBFF02D0150EDB6A030EDB50100B25
:103E70000EE0040EDBCF00F0050EDB50D8800054BE
:103E800006E2060EDB5003E1040EDB5034DA95D96E
:103E90000AE2050EDBCFE7FF150EDB50E75E050EED
:103EA000E7CFDBFF02D0050EDB6A040EDBCF00F0AC
:103EB000160E45D9D880005414E2160EDBCFE6FF6B
:103EC000150EDBCFE6FF040EDBCFE6FF050EDB5061
:103ED000E552E75CE552D880E754E552D880E754D4
:103EE0005FD9030EDB50010B0BE1080EDB5008E03D
:103EF000B2D801E08DD0080EDB50BED8080EDB6AC8
:103F0000170EDB5007E088D9170EF1D903E1011C29
:103F100001E17ED0160EDB5016E07ED9300EE66E43
:103F20009FD802E1011C74E077D9DFCFE6FF83EC74
:103F30003AF0E552E552E552F4CF01F00001F31CEE
:103F400002E1011C65E0050EDBCF00F0160EDB5030
:103F5000D880005409E2050EDBCFE7FF160EDB50D8
:103F6000E75E050EE7CFDBFF300EE66E050ECBD920
:103F70004FE1390EDB2ADBCFE9FF3A0E01E3DB2A02
:103F8000DBCFEAFF090EEFCFDBFFDB500EE044D9B9
:103F9000090EADD902E1011C3BE0390EDB2ADBCF73
:103FA000E9FF3A0EEDE3DB2AEBD755D831E1160EE7
:103FB000DBCFE6FF080EC3D8E552E7245DD82ED04C
:103FC000070EDB50030A1CE0010A14E0030A07E0B5
:103FD0007BD9DBCFEEFF020EDBCFEDFF1FD0F5D894
:103FE000056A03AE02D0046805682CD8BCD805C0A9
:103FF000EEFF14D0EAD803BE046824D8B4D80ED09B
:1040000063D9DBCFEFFF0AD07BD905E1011C03E1C7
:10401000F368F46810D0FCD801E3DB2A79D9ADEF5E
:104020001BF0010EDBCF00F0020EDBCF01F000C071
:10403000F3FF01C0F4FF3B0EE15C02E2E16AE552EE
:10404000E16ECBD029D9020E13EF21F061D908001F
:10405000F550DF6E1200200EE66E080E83EF21F0A1
:1040600083EC3AF0E552E552E552F3CF00F0F4CF9D
:1040700001F00001F31C1200006E016AD950010F1B
:104080004DD90050EE260150ED221200045E000EC4
:10409000055AF70E04C0DBFFF80E05C0DBFF04C0B5
:1040A000E9FF05C0EAFF1200DBCFF4FFF350F45C38
:1040B0001200DB50E76E040EE7CFDBFF12000A0EA2
:1040C000DBCF00F00B0EDBCF01F00C0EDBCF02F0EC
:1040D0000D0EDBCF03F00050011002100310120090
:1040E000130EEECFDBFF140EEDCFDBFF130EDBCF95
:1040F00000F0140EDBCF01F00001800E011412005D
:10410000F70EDBCF04F0F80EDBCF05F01200050E42
:10411000DB50E66ED950130F01D9E552E750EE6E31
:10412000ED6A12000A0EDBCF20F00B0EDBCF21F080
:104130000C0EDBCF22F00D0EDBCF23F01200DBCF15
:10414000E6FF150EDBCFE6FF050EDB50E552E72458
:10415000E552E7241200DB50CED8010EF36E060EB6
:10416000F3CFDBFF1200EE50EFCFEAFFE96E02C0A3
:10417000EEFF03C0EEFF04C0EEFF1200D9CFE6FF52
:10418000DACFE6FFE1CFD9FFE2CFDAFF1200DFCFCF
:10419000E6FFE66A37EC3BF0E552E552F3501200D9
:1041A000E76E080EE7CFDBFF1200EECF00F0EECF98
:1041B00001F0EFCF02F0036A1200050EDBCF00F032
:1041C000150EDB50D88000541200010EDBCF02F038
:1041D000020EDBCF03F0046A1200E552E5CFDAFFEE
:1041E000E7CFD9FF12000A0E00C0DBFF0B0E01C0A3
:1041F000DBFF1200D9500A0F8EEF21F0F36E070E8D
:10420000F3CFDBFF1200EECF00F0EFCF01F0120092
:10421000010EDB2A020E1200FC0EDBCFE6FFFD0EC4
:10422000DBCFE6FF1200005E000E015AF70E00C061
:10423000DBFFF80E01C0DBFF00C0E9FF01C0EAFFB1
:104240001200DA20EA6EEF2AEECFF6FF000EEF2220
:10425000EECFF7FFEF22EECFF8FF1200040EDBCF18
:10426000E6FF130EDB50E552E75C9ADFDB5004DF1C
:10427000060EDB501200090EDB500A0DF350DF244E
:10428000D00FE76E090EE7CFDBFF26EF20F0DB5003
:10429000F36E050E54EF20F0F70EDBCF00F0F80EB2
:1042A000DBCF01F01200DFCFE6FF30EF20F028DF98
:1042B000030EECDED5EF20F082EC1BF0E552E55268
:1042C000E552E55200091200BDDEEE50EFCFEAFFE5
:1042D000E96E010E1200130EDB50F36E040E54EF64
:1042E00020F0040EDB50F36E090E54EF20F0DBCF0C
:1042F000E6FF30EF20F0E76E050EE7CFDBFF1200A0
:104300008BDF53EF21F0DBCFE6FF86DF5CEF21F0A0
:10431000D950F90FE96EFF0E21EF21F0E96E000E82
:06432000DA20EA6E120033
:0A4326001B9E05D01B9E23AE02D0A3
:10433000236C1B8E23C01DF01C6A2D6A2C6A860E0E
:104340001E6E1F6A32EF24F01B9E08D01B9E23AE08
:1043500005D0226C231EE86A23221B8E23C01DF089
:1043600022C01CF02D6A2C6A8E0E1E6E1F6A32EF60
:1043700024F0297E1B6A6EEC24F086EC24F01BB638
:1043800016EF24F01BA20AD01BAA03D01BBE16EF07
:1043900024F01BA422EF24F01FEF24F01BAA05D069
:1043A0001BAC22EF24F01FEF24F01BA00AD01BA8A7
:1043B00008D01BBE04D01BA402D02BEF24F02FEF9B
:1043C00024F02C6A1F6A2950245C2B6E10E321C054
:1043D0002DF022C01CF023C01DF024C02AF026C0FE
:1043E00021F027C022F028C023F01B3A09D026C0B4
:1043F0002DF027C01CF028C01DF029C02AF02B6C1E
:104400001B9E1BBC1B8E2AC01EF01BB05EEF24F04F
:104410001A0E2B605EEF24F01E6A246A1BA408D0DB
:10442000216C221E231E241EE86A2222232224221B
:104430001BAC08D02D6C1C1E1D1E1E1EE86A1C2203
:104440001D221E22206A2B5207E0243423322232FE
:10445000213220322B2EF9D721502D2622501C221A
:1044600023501D2224501E2220C02CF01B9E1EAE65
:104470000BD02C6C2D1E1C1E1D1E1E1EE86A2D222C
:104480001C221D221E221B8E1EA006D0D8801D328B
:104490001C322D322C322A2A2AC01EF032EF24F090
:1044A0001B6A6EEC24F086EC24F01BB616EF24F0A9
:1044B0001BA205D01BBA16EF24F01DEF24F01BBA87
:1044C00029EF24F01BA005D01BB816EF24F029EF2C
:1044D00024F01BB81DEF24F01F6A7F0E24241E6EEB
:1044E000E86A1F2229501E5EE86A1F5A1A0E2A6EB9
:1044F000246A2C6A2D6A1C6A1D6A2650215E275088
:10450000225A2850235A000E245A09E72650212601
:104510002750222228502322000E242201D02C8A48
:10452000D8902136223623362436D8902C362D3694
:104530001C361D362A2EE1D7235022102110D8A474
:104540002C8A32EF24F01B6A6EEC24F086EC24F007
:104550001BB616EF24F01BA205D01BB816EF24F0F3
:104560001DEF24F01BAA05D01BB016EF24F01DEFA1
:1045700024F01BB002D01BA802D029EF24F01F6A40
:10458000295024241E6EE86A1F227E0E1E5EE86AF1
:104590001F5A2C6A2D6A1C6A1D6A28502302F4CF08
:1045A0001DF0F3CF1CF027502302F3502D26F450BA
:1045B0001C22000E1D2228502202F3502D26F450FA
:1045C0001C22000E1D2226502302F3502C26F450EC
:1045D0002D22000E1C221D2227502202F3502C26D1
:1045E000F4502D22000E1C221D2228502102F350CF
:1045F0002C26F4502D22000E1C221D2226502202B1
:10460000F4502C26000E2D221C221D2227502102A0
:10461000F4502C26000E2D221C221D2232EF24F0F5
:1046200023C02DF022C02CF021C02BF021502602F7
:10463000F4CF1FF0F3CF1EF022502702F4CF21F069
:10464000F3CF20F02602F3501F26F4502022E86A10
:1046500021222B502702F3501F26F4502022E86A13
:10466000212223502602F3502026F45021222350E9
:104670002702226AE86A2222F3502126F4502222DD
:104680002B502802F3502026F4502122236AE86A96
:10469000222223222C502802F3502126F4502222D9
:1046A000E86A23222D502802F3502226F4502322B8
:1046B000000C1B6A6EEC24F01BB663EF23F01BA208
:1046C0000AD01BB403D07F0E236E19D0800E236E48
:1046D00016D0236A14D01BB0FCD7870E2460F1D704
:1046E0007E0E2464F6D7860E245C04E0D890233234
:1046F000242AF9D71BA403D0236C23AEEAD71200D7
:104700001B6A6EEC24F01BB68AEF23F01BA20ED0BE
:104710001BB405D07F0E236EFF0E226E1FD0800EBD
:10472000236E226A1BD0236A226A18D01BB0FBD7E3
:104730008F0E2460EDD77E0E2464F5D78E0E245C98
:1047400005E0D89023322232242AF8D71BA406D0C1
:10475000226C231EE86A232223AEE5D71200C1ECA7
:1047600023F01BB6000C1BB0000C1BB4000C010C9A
:10477000C1EC23F01BB6000C1BB0000C1BA4000CFA
:10478000010C1B6A6EEC24F086EC24F01BB61200C0
:104790001BAE08D01BA004D01BA802D01B801200A7
:1047A0001B9012002950245C0BE12850235C08E187
:1047B0002750225C05E12650215C02E11B8012009B
:1047C000D8A002D01B8E10D0245029C024F0296E0E
:1047D000235028C023F0286E225027C022F0276ED5
:1047E000215026C021F0266E2950245C10E0FF0FD6
:1047F00009E01B901BB403D01BAE1B8412001BAE40
:104800001B941200292AD8902832273226322650AB
:10481000215E2750225A2850235A23BEEAD7D89027
:10482000213622362336242EF8D7C8D77F0E246EA1
:10483000FF0E236E226E216E12007F0E1BBEFF0E36
:10484000246E02D07F0E246E800E236E226A216AAF
:10485000F3D71BAE04D0800E246E236AF7D7246AE8
:10486000236AF4D71D501C102D102C10F8E01FBE29
:10487000F0D71DBE0CD01E501F10EBE0D8902C3688
:104880002D361C361D361E06D8A01F06F2D71F5027
:10489000D4E11E28D2E02CAE11D07F0E2C1402E100
:1048A0002DA00CD02D2AE86A1C221D2207E3D880F7
:1048B0001D321C322D321E2A1E28BFE01E50C9E0B8
:1048C0002DC021F01CC022F01D34236E1E30246E3A
:1048D0002332249E1BBE248E1CEF24F02336243664
:1048E00002E31B841B7E06E11B80246A236A226A82
:1048F000216A1200242803E0D88023321200D890C5
:10490000233202E11B8212001B8612002836293650
:1049100002E31B8C1B7E06E11B88296A286A276A32
:10492000266A1200292803E0D88028321200D89085
:104930002832EAE11B8A120023C02DF022C02CF09D
:1049400022502702F4CF21F0F3CF20F02350280289
:10495000F4CF23F0F3CF22F02702F3502126F450B6
:104960002222E86A23222C502802F3502126F450F8
:104970002222E86A232228AEC2EF24F02C50225EC5
:104980002D50235A2DAE000C2750225E2850235A5A
:02499000000C19
:0E499200D9CFE6FFE1CFD9FF040EE126FD0EDE
:1049A000DBCFDEFFDBCFDDFF020EDB6A030EDB6A4F
:1049B000DECF00F0DDCF01F00A0E005C000E0158E2
:1049C00012E3D9CFE9FFDACFEAFF0A0EEE5E000E5E
:1049D000ED5AD950020FE96EDACFEAFF100EEE263B
:1049E000000EED22E5D7DECF00F0DDCF01F0D9508B
:1049F000020FE96EDACFEAFF0050EE260150ED22F9
:104A0000020EDBCF00F0030EDBCF01F000C0F3FF9E
:104A100001C0F4FF040EE15C03E200D0E16AE5525C
:104A2000E16EE552E7CFD9FF1200D9CFE6FFE1CF23
:104A3000D9FF020EE126FD0EDBCFDEFFDBCFDDFF6F
:104A4000D9CFE9FFDACFEAFF010E0F0B06E0EC52F7
:104A5000D890ED32EF32E806FAE1780EDE16DD6A24
:104A6000DECF04F0DDCF05F0D89005320432D890C7
:104A700005320432DE500424026EDD500520036E40
:104A80000F0EE76EFD0EDBCF06F0FE0EDBCF07F05C
:104A9000E7500616076A02500624006E03500720EE
:104AA000016E00C0F3FF01C0F4FF020EE15C03E2FF
:104AB00000D0E16AE552E16EE552E7CFD9FF12007E
:104AC000D9CFE6FFE1CFD9FF09EC37F0D00EE66E83
:104AD00069EC37F0E552E66A69EC37F0E552FD0E15
:104AE000DBCFE6FFFE0EDBCFE6FF53DFE552E552FC
:104AF000F350E66E69EC37F0E55209EC37F0D00E72
:104B0000E66E69EC37F0E552070EE66E69EC37F0B9
:104B1000E552800EE66E69EC37F0E55212EC37F0A4
:104B2000E552E7CFD9FF1200D9CFE6FFE1CFD9FF99
:104B3000030EE126DE6ADD6A020EDB6A09EC37F05D
:104B4000D00EE66E69EC37F0E552E66A69EC37F0B4
:104B5000E55209EC37F0D10EE66E69EC37F0E5521C
:104B6000E66A19EC37F0E552E76E020EE7CFDBFF9D
:104B7000DBCFE6FFE66A59DFE552E552F3CFDEFF11
:104B8000F4CFDDFF12EC37F0020EDB50800B02E0B9
:104B9000000E01D0010E006E030EE15C03E200D0B6
:104BA000E16AE552E16E0050E552E7CFD9FF12000D
:104BB000D9CFE6FFE1CFD9FFD950F10FE96EFF0E53
:104BC000DA20EA6EEE9EED6AD950F50FE96EFF0E1F
:104BD000DA20EA6E3F0EEE16ED6A09EC37F0D00EE1
:104BE000E66E69EC37F0E552E66A69EC37F0E552BB
:104BF000F10EDBCFE6FFF20EDBCFE6FFCADEE552B9
:104C0000E552F350E66E69EC37F0E552F30EDBCF78
:104C1000E6FFF40EDBCFE6FFBCDEE552E552F350D3
:104C2000E66E69EC37F0E552F50EDBCFE6FFF60EE7
:104C3000DBCFE6FFAEDEE552E552F350E66E69ECFF
:104C400037F0E552F70EDBCFE6FFF80EDBCFE6FFDD
:104C5000A0DEE552E552F350E66E69EC37F0E5521E
:104C6000FD0EDBCFE6FFFE0EDBCFE6FF92DEE55268
:104C7000E552F350E66E69EC37F0E552FB0EDBCF00
:104C8000E6FFFC0EDBCFE6FF84DEE552E552F35093
:104C9000E66E69EC37F0E552F90EDBCFE6FFFA0E6F
:104CA000DBCFE6FF76DEE552E552F350E66E69ECC7
:104CB00037F0E552800EE66E69EC37F0E55212EC03
:104CC00037F0E552E7CFD9FF1200D9CFE6FFE1CFA9
:104CD000D9FF09EC37F0D00EE66E69EC37F0E552FB
:104CE000030EE66E69EC37F0E55209EC37F0D10EB1
:104CF000E66E69EC37F0E552010EE66E19EC37F01E
:104D0000E5527F0BE66EE66A90DEE552E552F3CFA0
:104D100000F0F4CF01F0F70EDBCFE9FFF80EDBCFA8
:104D2000EAFF00C0EEFF01C0EDFF010EE66E19ECD8
:104D300037F0E5523F0BE66EE66A77DEE552E55264
:104D4000F3CF00F0F4CF01F0FD0EDBCFE9FFFE0E54
:104D5000DBCFEAFF00C0EEFF01C0EDFF010EE66E03
:104D600019EC37F0E5521F0BE66EE66A5EDEE5529F
:104D7000E552F3CF00F0F4CF01F0FB0EDBCFE9FFFB
:104D8000FC0EDBCFEAFF00C0EEFF01C0EDFFE66ADC
:104D900019EC37F0E552E66EE66A47DEE552E55279
:104DA000F3CF00F0F4CF01F0F90EDBCFE9FFFA0EFC
:104DB000DBCFEAFF00C0EEFF01C0EDFF12EC37F0E1
:104DC000E552E7CFD9FF1200D9CFE6FFE1CFD9FFF7
:104DD00009EC37F0D00EE66E69EC37F0E552E66A82
:104DE00069EC37F0E55209EC37F0D10EE66E69EC6C
:104DF00037F0E552010EE66E19EC37F0E5527F0B05
:104E0000E66EE66A12DEE552E552F3CF00F0F4CF2B
:104E100001F0F90EDBCFE9FFFA0EDBCFEAFF00C0AD
:104E2000EEFF01C0EDFF010EE66E19EC37F0E55222
:104E30007F0BE66EE66AF9DDE552E552F3CF00F04E
:104E4000F4CF01F0FB0EDBCFE9FFFC0EDBCFEAFF76
:104E500000C0EEFF01C0EDFFE66A19EC37F0E55245
:104E60003F0BE66EE66AE1DDE552E552F3CF00F076
:104E7000F4CF01F0FD0EDBCFE9FFFE0EDBCFEAFF42
:104E800000C0EEFF01C0EDFF12EC37F0E552E7CFB6
:044E9000D9FF120034
:0C4E9400D9CFE6FFE1CFD9FF030EE126E5
:104EA000DF6AFB0EDBCF00F0FC0EDBCF01F0FD0E66
:104EB000DBCF02F0FE0EDBCF03F0266A276A286AFA
:104EC000296A00C021F001C022F002C023F003C013
:104ED00024F0B8EC23F0010A32E1DF50DF2AE96E5A
:104EE000EA6AE9BEEA68850EE926010EEA222D0E7D
:104EF000EF6E006A016A800E026EBF0E036ED9501B
:104F0000FB0FE96EFF0EDA20EA6EEECF21F0EECF56
:104F100022F0EECF23F0EFCF24F000C026F001C046
:104F200027F002C028F003C029F0A3EC22F024C02F
:104F3000EDFF23C0EDFF22C0EDFF21C0EFFFDFCF6B
:104F4000E9FFEA6AE9BEEA68850EE926010EEA226F
:104F5000EF6AFB0EDBCF00F0FC0EDBCF01F0FD0EA5
:104F6000DBCF02F0FE0EDBCF03F0266A27687F0E50
:104F7000286E470E296E00C021F001C022F002C049
:104F800023F003C024F0AFEC23F0010A19E15F0E17
:104F9000E66E620EE66E000EE66E850EE66E010EA1
:104FA000E66ED1EC37F0006E050EE15E0050850E26
:104FB000006E010E016E00C0F3FF01C0F4FF48D186
:104FC000FB0EDBCF21F0FC0EDBCF22F0FD0EDBCFA2
:104FD00023F0FE0EDBCF24F080EC23F0DE5222C063
:104FE000DEFF23C0DDFFDD529A0EE66E010EE66E97
:104FF000010EDBCFE6FF020EDBCFE6FFE2EC35F081
:10500000E552E552E552E5529A0EE66E010EE66E65
:10501000850EE66E010EE66EADEC37F0E552E55218
:10502000E552E552850EE66E010EE66EEAEC37F0CB
:10503000E552E552F350DF6EDF50DF2AE96EEA6A8F
:10504000E9BEEA68850EE926010EEA222E0EEF6E11
:10505000DFCFE9FFEA6AE9BEEA68850EE926010EBC
:10506000EA22EF6A010EDBCF22F0020EDBCF23F043
:10507000A4EC21F021C000F022C001F023C002F016
:1050800024C003F0D950FB0FE96EFF0EDA20EA6E60
:10509000EECF21F0EECF22F0EECF23F0EFCF24F0D1
:1050A00000C026F001C027F002C028F003C029F09C
:1050B000B9EC21F024C0EDFF23C0EDFF22C0EDFFCD
:1050C00021C0EFFF216A400E226E1C0E236E460E99
:1050D000246EFB0EDBCF26F0FC0EDBCF27F0FD0E9F
:1050E000DBCF28F0FE0EDBCF29F0A3EC22F080EC22
:1050F00023F0DE5222C0DEFF23C0DDFFDD52010EB1
:10510000DBCF00F0020EDBCF01F0090E005C000ED9
:10511000015811E25B0EE66E620EE66E000EE66E60
:105120009A0EE66E010EE66ED1EC37F0006E050EBB
:10513000E15E00503AD0010EDBCF00F0020EDBCF73
:1051400001F0630E005C000E015811E2580EE66E8D
:10515000620EE66E000EE66E9A0EE66E010EE66ECA
:10516000D1EC37F0006E050EE15E00501ED0010E4E
:10517000DBCF00F0020EDBCF01F0E70E005C030E88
:10518000015811E2560EE66E620EE66E000EE66EF5
:105190009A0EE66E010EE66ED1EC37F0006E050E4B
:1051A000E15E005002D001019A6B9A0EE66E010E8C
:1051B000E66E850EE66E010EE66EADEC37F0E5525A
:1051C000E552E552E5529A0EE66E010EE66E010ECC
:1051D000DBCFE6FF020EDBCFE6FFE2EC35F0E55277
:1051E000E552E552E5529A0EE66E010EE66E850E28
:1051F000E66E010EE66EADEC37F0E552E552E55293
:10520000E552530EE66E620EE66E000EE66E9A0EE4
:10521000E66E010EE66ED1EC37F0006E050EE15E33
:1052200000509A0EE66E010EE66E850EE66E010ED9
:10523000E66EADEC37F0E552E552E552E552850EEB
:10524000006E010E016E00C0F3FF01C0F4FF00D03C
:10525000030EE15C02E2E16AE552E16EE552E7CF5E
:04526000D9FF120060
:0C526400D9CFE6FFE1CFD9FF020EE12612
:10527000DF6ADE52010EDD6EDB5010E0FE0EDBCF8A
:10528000E6FF010EDB50E552E71401E0DF2A010ED4
:10529000DB50020D010EF3CFDBFFEED7010ED880FD
:1052A000DF54010B006E020EE15C03E200D0E16A04
:1052B000E552E16E0050E552E7CFD9FF1200D9CF99
:1052C000E6FFE1CFD9FFFE0EDB50B0C1E9FFB1C16F
:1052D000EAFFEF6E0101B02B000EB123B451B019FB
:1052E00002E1B551B11904E1A80EB06F010EB16F22
:1052F000B251B01902E1B351B1190DE1B22B000E58
:10530000B323B451B21902E1B551B31904E1A80EA7
:10531000B26F010EB36FE552E7CFD9FF1200D9CFBC
:10532000E6FFE1CFD9FFE652DF6A0101B451B219BD
:1053300002E1B551B31904E1A80EB26F010EB36FCB
:10534000B051B21902E1B151B31909E0B2C1E9FF9C
:10535000B3C1EAFFB22B000EB323EFCFDFFFDF5064
:1053600000D0E552E552E7CFD9FF1200D9CFE6FFD2
:10537000E1CFD9FFE6520001FCB739D0FE0EDB5079
:10538000F00802E1FC8732D0FE0EDB50120804E088
:10539000FE0EDB50590802E1FC8128D0FE0EDB50E6
:1053A000580802E1FC7B22D0FE0EDB50140802E11B
:1053B000FC831CD0FE0EDB50110802E1FC8516D0E8
:1053C000FE0EDB50E00802E128D010D0FCC0E6FF62
:1053D000FE0EDBCFE6FF4BEC34F0E552E552DF6E1C
:1053E000DF5004E0DFCFE6FF6ADFE55216D0FC971E
:1053F000FE0EDB50120804E0FE0EDB50590802E1FD
:10540000FC910BD0FE0EDB50140802E1FC9305D09A
:10541000FE0EDB50110801E1FC95E552E552E7CFA5
:10542000D9FF120001010B0EA56F92869380D08EDA
:105430009F9AF28EF28CF19CF288F096F098A80E6A
:10544000B26F010EB36FB2C1B0F1B3C1B1F1080ECA
:10545000B025B46F000EB121B56F12000B0E010123
:10546000A55D09E2A551020806E20001FD417F0B9E
:10547000FD6F80B6FD8F0101A50709E1FDC0E6FFC4
:1054800075DFE55201010B0EA56F0001FD6B1200E7
:10549000D9CFE6FFE1CFD9FF050EE126DF6A010E85
:1054A000DB6A020EDB6A030EDB6AF29893908A9045
:1054B000410EE66E85EC3BF0E552929689968A8025
:1054C000938081B0FED7DF6A0A0EDF5C2DE2080E02
:1054D000DF5C0DE2FE0EDBA002D0898601D089964A
:1054E000DBCFF3FFF390F342F3CFDBFF17D0080ECF
:1054F000DF5C10E1FE0EDBCFE6FFB4DEE552E76EC7
:10550000040EE7CFDBFFDB50000802E2898601D002
:10551000899604D0090EDF5C01E1898681A0FED75F
:1055200081B0FED7DF2AD0D78986928680B6FED793
:1055300080A6FED781A0FED7DF6AFD0EDB50DF5CC0
:1055400052E20B0EF36E010EDBCFF4FFF350F45C6E
:105550003DE281B0FED7010EF36EDBCFF4FFF350D6
:10556000F45C2FE3010EDB5008082BE380A629D062
:10557000DF5014E1010EDB04016E010E015204E064
:10558000E846FE0B0106FCE1006E020EDBCFE7FFF2
:105590000050E712020EE7CFDBFF13D0010EDB0451
:1055A000016E010E015204E0E846FE0B0106FCE12B
:1055B000006E030EDBCFE7FF0050E712030EE7CFCC
:1055C000DBFF010EDB2A81A0FED7BBD7FD0EDB047B
:1055D000DF5C00E1010EDB6A020EDB50FE0801E138
:1055E00002D0DF2AAAD7F288030EDBCF02F002C076
:1055F00003F0026A020EDB5000010224006E000E6E
:105600000320016E00C0F3FF01C0F4FF050EE15C52
:1056100003E200D0E16AE552E16EE552E7CFD9FF3F
:02562000120076
:0E562200D9CFE6FFE1CFD9FF030EE12609EC58
:1056300037F0900EE66E69EC37F0E552AC0EE66E90
:1056400069EC37F0E552FE0EDBCFE6FF69EC37F090
:10565000E55212EC37F0DE6ADD6ADECF00F0DDCF16
:1056600001F0D890015004E6E80E005C030E0158EA
:1056700005E2DF2A010E01E3DB2AEFD709EC37F060
:10568000900EE66E69EC37F0E552AC0EE66E69EC12
:1056900037F0E55209EC37F0910EE66E69EC37F021
:1056A000E552E66A19EC37F0E552E76E020EE7CFF5
:1056B000DBFF12EC37F0FE0EDB50F36E020EDB5018
:1056C000F35C02E0000E01D0010E006E030EE15CFF
:1056D00003E200D0E16AE552E16E0050E552E7CF07
:1056E000D9FF120009EC37F0900EE66E69EC37F046
:1056F000E552EE0EE66E69EC37F0E55212EC37F04B
:10570000080EE66E8EDFE55200D01200D9CFE6FF1C
:10571000E1CFD9FF020EE12609EC37F0900EE66EDC
:1057200069EC37F0E552AA0EE66E69EC37F0E55207
:1057300009EC37F0910EE66E69EC37F0E552010E98
:10574000E66E19EC37F0E552DF6EE66A19EC37F0D9
:10575000E552E76E010EE7CFDBFF12EC37F0010EEA
:10576000DBCF00F0000EE76E0018E8AE02D0003488
:1057700003D0E750D88000542FE2DFCF08F008C0F4
:1057800023F093EC21F021C004F022C005F023C0E7
:1057900006F024C007F0266A276A286A3F0E296EA1
:1057A00004C021F005C022F006C023F007C024F099
:1057B000BAEC21F021C000F022C001F023C002F0B9
:1057C00024C003F000C020F001C021F002C022F08C
:1057D00003C023F018D017D0DFCF04F004C023F0AB
:1057E00093EC21F021C000F022C001F023C002F0B0
:1057F00024C003F000C020F001C021F002C022F05C
:1058000003C023F000D0020EE15C02E2E16AE5523F
:10581000E16EE552E7CFD9FF1200D9CFE6FFE1CF25
:10582000D9FF060EE12672DF20C0DEFF21C0DEFFB9
:1058300022C0DEFF23C0DDFFDD52DD5209EC37F070
:10584000900EE66E69EC37F0E552A90EE66E69EC53
:1058500037F0E55209EC37F0910EE66E69EC37F05F
:10586000E552E66A19EC37F0E552E76E040EE7CF31
:10587000DBFF12EC37F009EC37F0900EE66E69ECC6
:1058800037F0E552A80EE66E69EC37F0E55209EC08
:1058900037F0910EE66E69EC37F0E552E66A19ECE6
:1058A00037F0E552E76E050EE7CFDBFF12EC37F07D
:1058B000D9CFE9FFDACFEAFFEECF08F0EECF09F05B
:1058C000EECF0AF0EFCF0BF0266A276A800E286E23
:1058D0003E0E296E08C021F009C022F00AC023F054
:1058E0000BC024F0B9EC21F021C004F022C005F077
:1058F00023C006F024C007F0040EDBCFE6FF050E40
:10590000DB50E552E75C146E14C023F095EC21F0F7
:1059100021C010F022C011F023C012F024C013F0F7
:10592000040EDBCF19F019C023F095EC21F021C053
:1059300015F022C016F023C017F024C018F015C0CF
:1059400026F016C027F017C028F018C029F010C0A4
:1059500021F011C022F012C023F013C024F050EC4B
:1059600022F021C00CF022C00DF023C00EF024C0A4
:105970000FF00CC026F00DC027F00EC028F00FC0AD
:1059800029F004C021F005C022F006C023F007C0B2
:1059900024F0BAEC21F021C000F022C001F023C0B5
:1059A00002F024C003F000C020F001C021F002C0CA
:1059B00022F003C023F0060EE15C03E200D0E16AAE
:0C59C000E552E16EE552E7CFD9FF12007E
:0459CC00D9CFE6FF4A
:1059D000E1CFD9FFE652FD0EDB50E8B08C80E8A0A5
:1059E0008C908C94DF6ADFCF00F0080EE76E001811
:1059F000E8AE02D0E73402D0E750005C0EE28C96AD
:105A00008C92FE0EDBBE8C828C86DBCFF3FFF39E86
:105A1000F346F3CFDBFFDF2AE6D78C84E552E5526D
:105A2000E7CFD9FF1200D9CFE6FFE1CFD9FF020EB1
:105A3000E126E66A400EE66EC9DFE552E552E66A07
:105A4000800EE66EC3DFE552E552DE6ADD6ADECF28
:105A500000F0DDCF01F0040E005C050E01580BE2F2
:105A6000010EE66EE66AB2DFE552E552DF2A010E6C
:105A700001E3DB2AECD7020EE15C02E2E16AE552C7
:105A8000E16EE552E7CFD9FF1200D9CFE6FFE1CFB3
:105A9000D9FF020EE126E66A400EE66E97DFE55278
:105AA000E552E66A800EE66E91DFE552E552DE6A67
:105AB000DD6ADECF00F0DDCF01F0040E005C050EE4
:105AC00001580BE2010EE66EE66880DFE552E55212
:105AD000DF2A010E01E3DB2AECD7020EE15C02E2D1
:105AE000E16AE552E16EE552E7CFD9FF1200D9CF66
:105AF000E6FFE1CFD9FF020EE126DE6ADD6ADECFE6
:105B000000F0DDCF01F0D890015004E6320E005CC9
:105B1000000E015805E2DF2A010E01E3DB2AEFD770
:105B20008A98DE6ADD6ADECF00F0DDCF01F0D89022
:105B3000015004E6320E005C000E015805E2DF2A37
:105B4000010E01E3DB2AEFD78A88E66A210EE66EB2
:105B50003DDFE552E552E66AC00EE66E37DFE552FC
:105B6000E552E66A060EE66E31DFE552E552E66A78
:105B7000130EE66E2BDFE552E552E66A200EE66E66
:105B800025DFE552E552E66A0C0EE66E1FDFE552B0
:105B9000E55249DF020EE15C02E2E16AE552E16EA4
:105BA000E552E7CFD9FF1200D9CFE6FFE1CFD9FF09
:105BB000E652520EF36EFE0EDBCFF4FFF350F45CB0
:105BC00031E2FE0EDB50E00FE76EFE0EE7CFDBFFAB
:105BD000DF6A050EDF5C25E2010EE66EB60E006E92
:105BE000660E016E000E026EFE0EDB50050DF350C8
:105BF000DF24036E046A056A00500324F36E01502B
:105C00000420F46E02500520F86EF4CFF7FFF3CFB6
:105C1000F6FF0800F550E66ED9DEE552E552DF2AC0
:105C2000D8D730D0FE0EDB50AE0FE76EFE0EE7CFBA
:105C3000DBFFDF6A050EDF5C25E2010EE66EB00ECB
:105C4000006E670E016E000E026EFE0EDB50050D3B
:105C5000F350DF24036E046A056A00500324F36ED8
:105C600001500420F46E02500520F86EF4CFF7FFC7
:105C7000F3CFF6FF0800F550E66EA8DEE552E552D8
:105C8000DF2AD8D7010EE66EE66AA0DEE552E552BD
:105C9000E552E552E7CFD9FF1200D9CFE6FFE1CFB9
:105CA000D9FFE66AFB0EDB50400FE66E8FDEE55251
:105CB000E552E66A800EE66E89DEE552E552FC0E9C
:105CC000DBCFF6FFFD0EDBCFF7FFFE0EDBCFF8FFDD
:105CD0000800F55016E0D950FC0FE96EFF0EDA20EF
:105CE000EA6EEFCFF6FFEE2AEFCFF7FF000EEE22BF
:105CF000EFCFF8FFEE220800F550E66E55DFE552D3
:105D0000DED7E552E7CFD9FF1200D9CFE6FFE1CFCA
:105D1000D9FFE66AFC0EDB50400FE66E57DEE55217
:105D2000E552E66A800EE66E51DEE552E552FD0E62
:105D3000DBCFE9FFFE0EDBCFEAFFEF500EE0FD0EFA
:105D4000DBCFE9FFDB2AFE0EDBCFEAFF01E3DB2A34
:105D5000EF50E66E29DFE552EAD7E552E7CFD9FFEB
:025D600012002F
:0E5D6200D9CFE6FFE1CFD9FFE652DF6ADFCFEF
:105D700000F0016A00BE0168FD0EDBCF02F0FE0EEE
:105D8000DBCF03F001500318E8AE02D0033404D097
:105D90000250005C0350015807E2010EE66E85ECEC
:105DA0003BF0E552DF2AE3D7E552E552E7CFD9FFD2
:105DB0001200D9CFE6FFE1CFD9FFE652DF6ADFCF8D
:105DC00000F0016A00BE0168FD0EDBCF02F0FE0E9E
:105DD000DBCF03F001500318E8AE02D0033404D047
:105DE0000250005C0350015807E20C0EE66E49ECCD
:105DF0003BF0E552DF2AE3D7E552E552E7CFD9FF82
:105E00001200D9CFE6FFE1CFD9FF0B0EE126DE521B
:105E1000070EDD6E020EDB6ADF6A050EDF5C0FE245
:105E2000D950030F006EDACF01F0DF500F010024CC
:105E3000E96E000E0120EA6EEF6ADF2AEED7939238
:105E40008A92170EE66E49EC3BF0E5528A82280EE4
:105E5000E66E85EC3BF0E5529382100EF36E090E70
:105E6000F3CFDBFF270EF36E0A0EF3CFDBFF81A229
:105E70000FD0090EDBCF00F0DB060A0EDBCF01F0FE
:105E800001E2DB060050011002E1000EC6D0EFD7A0
:105E9000100EF36E090EF3CFDBFF270EF36E0A0E22
:105EA000F3CFDBFF81B20FD0090EDBCF00F0DB06B2
:105EB0000A0EDBCF01F001E2DB060050011002E127
:105EC000000EABD0EFD7100EF36E090EF3CFDBFF51
:105ED000270EF36E0A0EF3CFDBFF81A20FD0090E5F
:105EE000DBCF00F0DB060A0EDBCF01F001E2DB06C0
:105EF0000050011002E1000E90D0EFD7DF6A280EAB
:105F0000DF5C63E2100EF36E090EF3CFDBFF270EAA
:105F1000F36E0A0EF3CFDBFF81B20FD0090EDBCF99
:105F200000F0DB060A0EDBCF01F001E2DB060050D9
:105F3000011002E1000E71D0EFD71E0EE66E85EC67
:105F40003BF0E55281A234D0010EF36EDB5004E049
:105F5000D890F336E806FCE1F350026ED950030FF7
:105F6000006EDACF01F0020EDB500F010024E96E63
:105F7000000E0120EA6E0250EF12100EF36E090EB1
:105F8000F3CFDBFF270EF36E0A0EF3CFDBFF81A208
:105F90000FD0090EDBCF00F0DB060A0EDBCF01F0DD
:105FA00001E2DB060050011002E1000E36D0EFD70F
:105FB000010EDB5006E1DE52070EDD6E020EDB2A1B
:105FC00002D0010EDB06DF2A9AD7050EDBCFE6FFF3
:105FD000030EDB50E552E724E76E080EE7CFDBFF48
:105FE000FD0EDBCFE9FFFE0EDBCFEAFF050EDBCFB8
:105FF000EFFFFB0EDBCFE9FFFC0EDBCFEAFF030E6A
:10600000DBCFEFFF070EDB50F36E080EDB50F35CC7
:1060100002E0000E01D0010E00D0006E0B0EE15C1C
:1060200002E2E16AE552E16E0050E552E7CFD9FFA6
:0260300012005C
:0E60320055534220436F6E6E656374656421A2
:106040000055534220436F6E6E2E20457272210020
:106050005553422053757370656E64656421005218
:106060006563656976656420636F6D6D616E64203C
:10607000307839342066726F6D20686F7374202D0C
:10608000205361792054696D6500526563656976B6
:10609000656420636F6D6D616E64203078383820E0
:1060A00066726F6D20686F7374202D20546F676760
:1060B0006C652042757A7A6572005265636569760F
:1060C000656420636F6D6D616E64203078383520B3
:1060D00066726F6D20686F7374202D205365742075
:1060E000525443004E6F7468696E6720466F756E38
:1060F00064004D6F74696F6E20466F756E6420008A
:106100004D61676E657420466F756E6420004D6149
:10611000676E264D6F746E20466E640025732F2DBA
:106120002D430025732F252E3264252500447663E8
:106130004572726F7200526E674572726F720025FF
:106140002E3664636D0025732F252E33644300259E
:10615000732F2D2D2D430025732F252E34734300CF
:106160002D2D4300252E32644300253032643A251C
:106170003032643A2530326420253032642F2530A5
:106180003264005553422044657669636520496E48
:10619000697469616C697365642E00284329323023
:1061A00031312053696D6F6E20496E6E73202D2042
:1061B000687474703A2F2F7777772E7761697469D6
:1061C0006E67666F726672696461792E636F6D00C7
:1061D0005553422047656E657269632048494420E3
:1061E00044656D6F6E7374726174696F6E203300F5
:1061F000436F6E6E656374696E6700525443204549
:1062000072726F7221202000525443204C6F7374BD
:1062100020507772210043616D6572612045727272
:106220006F72210043616D65726120466F756E6407
:10623000210020496E697420446F6E650050494307
:106240002031384634353530205541525400494EBE
:106250005432000D0A003000303000303030004F32
:0B62600076657272616E67650D0A00C2
:01626B004BE7
:04626C000001606B62
:10627000616B626B636B646B656B1200D9CFE6FF79
:10628000E1CFD9FF020EE126FD0EDBCFE6FFFE0EC9
:10629000DBCFE6FFEAEC37F0E552E552000164514E
:1062A000F324006E6551F420016E7E0E005C000E3A
:1062B000015801E372D0DE6ADD6ADECF00F0DDCF87
:1062C00001F000C0E6FF01C0E6FFFD0EDBCFE6FFF8
:1062D000FE0EDBCFE6FFEAEC37F0E552E552E55281
:1062E000E7CF01F0E552E7CF00F0F3CF02F0F4CFB3
:1062F00003F00250005C0350015828E2FD0EDBCF92
:1063000000F0FE0EDBCF01F0DE500024E96EDD5020
:106310000120EA6EEF50E66E660E00016225E96E1E
:10632000000E6321EA6EE552E750EF6E010E622522
:10633000626F000E6321636F636B629F642B000EBC
:106340006523DF2A010E01E3DB2AB7D7660E0001C1
:106350006225E96E000E6321EA6E0D0EEF6E010EEE
:106360006225626F000E6321636F636B629F642B13
:10637000000E6523660E6225E96E000E6321EA6E4B
:106380000A0EEF6E010E6225626F000E6321636FCD
:10639000636B629F642B000E6523020EE15C02E2D8
:1063A000E16AE552E16EE552E7CFD9FF1200D9CF9D
:1063B000E6FFE1CFD9FF040EE126DE6ADD6A0001C7
:1063C0003F0ED8806455000E655504E23F0EDE6E28
:1063D000DD6A04D064C0DEFF65C0DDFFDECF00F003
:1063E000DDCF01F00006000E015AFD0EDBCFE9FF04
:1063F000FE0EDBCFEAFF00C0EFFF6451651140E005
:10640000010EF36E020EF3CFDBFF030EDB6A020E0A
:10641000DBCF00F0030EDBCF01F0DECF02F0DDCFEB
:1064200003F00250005C035001582AE2660E60251A
:10643000E96E000E6121EA6EEF50E66E020EDBCFD0
:1064400000F0030EDBCF01F0FD0EDB500024E96EFF
:10645000FE0EDB500120EA6EE552E750EF6E010EB2
:106460006025606F000E6121616F616B609F640742
:10647000000E655B020EDB2A030E01E3DB2AC7D7A1
:10648000040EE15C02E2E16AE552E16EE552E7CF1B
:04649000D9FF12001E
:0C649400D9CFE6FFE1CFD9FF030EE126CF
:1064A000C8C1DFFFDF50DF06000902E00000FAD7B5
:1064B000030EE15C02E2E16AE552E16EE552E7CFEC
:1064C000D9FF12008C9812008C881200FBDF8C9A86
:1064D000E1DFE0DFF9DFDEDFDDDF8C8A1200D9CF1C
:1064E000E6FFE1CFD9FFE652040EDF6E010EDF5C5E
:1064F00012E3E8DFCFDF8C9CFE0EDB50DF1402E0FE
:106500008C8E01D08C9EC6DFDFDFC4DF8C9EC2DFA5
:10651000DF90DF42EBD7800EDF6E020EDF5C11E30F
:10652000D1DFB8DFFD0EDB50DF1402E08C8E01D02E
:106530008C9EB0DFC9DFAEDF8C9EACDFDF90DF4228
:10654000ECD7C0DFA7DFFD0EDBA002D08C8E01D020
:106550008C9EA0DFB9DF9EDF8C8C9CDFE552E5527C
:10656000E7CFD9FF1200AEDF95DF8C9E8C9C8B822B
:1065700091DFAADF8FDF8B924AEF32F0A3DF8ADF51
:1065800089DFA2DF87DF4AEF32F09CDF83DF82DF23
:106590009BDF80DF82A004D07DDF010E04D003D01A
:1065A00079DF000E00D012008C988C9A8C9C8B9214
:1065B0008C9E1200D9CFE6FFE1CFD9FFE65286DFED
:1065C000DF6A080EDF5C0FE2DF50EA6AC00FE96E97
:1065D000010EEA22EF50E66EDFCFE6FF80DFE552E4
:1065E000E552DF2AEED7E552E552E7CFD9FF120098
:1065F000D9CFE6FFE1CFD9FF050EE126030EDB6A16
:10660000040EDB6AD1DFD6DFAEDFBFDF000914E1A5
:10661000030EDBCF00F0040EDBCF01F0D890015069
:1066200004E6E80E005C030E015806E2030EDB2AC6
:10663000040E01E3DB2AE9D7030EDBCF00F0040EE2
:10664000DBCF01F0D890015004E6E80E005C030EA9
:10665000015802E3000E23D0DE6ADD6A82A012D068
:106660008DDFDF2A010E01E3DB2ADECF00F0DDCF74
:1066700001F0013404E200500008400E015401E230
:1066800001D0ECD7D9CFE9FFDACFEAFFEE5002E133
:10669000400EED1802E0000E01D0010E00D0006E99
:1066A000050EE15C02E2E16AE552E16E0050E5525E
:0666B000E7CFD9FF120044
:0A66B600000000000000005F00007B
:1066C0000007000700147F147F14242A7F2A122356
:1066D0001308646236495522500005030000001C6F
:1066E0002241000041221C0014083E081408083E04
:1066F0000808005030000008080808080060600022
:106700000020100804023E5149453E00427F4000EF
:1067100042615149462141454B311814127F1027DF
:10672000454545393C4A4949300171090503364917
:10673000494936064949291E0036360000005636BA
:1067400000000814224100141414141400412214EF
:10675000080201510906324979413E7E1111117E2C
:106760007F494949363E414141227F4141221C7FB8
:10677000494949417F090909013E4149497A7F0850
:1067800008087F00417F41002040413F017F0814FD
:1067900022417F404040407F020C027F7F0408106E
:1067A0007F3E4141413E7F090909063E4151215E3C
:1067B0007F09192946464949493101017F01013FB5
:1067C0004040403F1F2040201F3F4038403F63145F
:1067D00008146307087008076151494543007F4169
:1067E000410002040810200041417F000402010220
:1067F00004404040404000010204002054545478BA
:106800007F484444383844444420384444487F381E
:1068100054545418087E0901020C5252523E7F080B
:1068200004047800447D40002040443D007F10284F
:10683000440000417F40007C041804787C08040474
:106840007838444444387C14141408081414187C10
:106850007C080404084854545420043F4440203C1D
:106860004040207C1C2040201C3C4030403C4428C0
:106870001028440C5050503C4464544C440008369A
:10688000410000007F000000413608001008081099
:066890000878464146783D
:0A689600D9CFE6FFE1CFD9FF060ECF
:1068A000E126010EDB6A020EDB6A0001FF05E76EDE
:1068B000030EE7CFDBFF020EDBCF00F0030EDB5051
:1068C000D880005459E3030EDBCFE6FF020EDB5005
:1068D000E552E724FE0BE842E76E040EE7CFDBFF4C
:1068E000420E006E6A0E016E000E026E040EDBCFC9
:1068F00003F0046A056A050E266E276A286A03C03B
:1069000021F004C022F005C023F010EC23F01EC0DB
:1069100003F01FC004F020C005F000500324F36E04
:1069200001500420F46E02500520F86EF4CFF7FFFA
:10693000F3CFF6FF0800050EF5CFDBFFFE0EDB50B0
:10694000F36E050EDB50F35C01E116D0FE0EDBCFDB
:1069500000F0050EDB50D880005407E2040EDB285F
:10696000E76E020EE7CFDBFF06D0040EDB04E76E16
:10697000030EE7CFDBFF9FD7020EDBCF00F0030E45
:10698000DB50D88000544EE3010EDF6EFD0EDB506D
:10699000210B03E0020EDF6E0AD0FD0EDBA203D056
:1069A000030EDF6E04D0DBA402D0040EDF6E420EB5
:1069B000036E6A0E046E000E056E040EDBCF06F049
:1069C000076A086A050E266E276A286A06C021F043
:1069D00007C022F008C023F010EC23F01EC006F020
:1069E0001FC007F020C008F003500624006E0450BA
:1069F0000720016E05500820026EDFCF09F00A6AF9
:106A00000B6A00500924F36E01500A20F46E025004
:106A10000B20F86EF4CFF7FFF3CFF6FF0800010E5E
:106A2000F5CFDBFF010EDB50006E060EE15C03E2EA
:106A300000D0E16AE552E16E0050E552E7CFD9FFA0
:026A4000120042
:0E6A4200018899B9A9038495B5A5048293B380
:106A5000A3058191B1A1068192B2A2078C9CBCAC26
:106A6000098A9ABAAA0A8798B8A80B8596B6A60C7E
:106A70008394B4A40D090900000E7E600000157116
